:020000040800F2
:10B00000601A002041460108613E0108653E0108C2
:10B010000000000000000000000000000000000030
:10B02000000000000000000000000000713E010868
:10B030000000000000000000733E0108753E01089A
:10B0400057DE0008070301086B040108570C0108CC
:10B0500033210108B3210108053F01080F3F010812
:10B060000B240108193F01083F240108AF240108FF
:10B07000A734010807350108EF360108133B010822
:10B080005F3B0108AB3F0108A3410108E74301080A
:10B09000F3430108233F01082D3F0108373F010812
:10B0A000694901086B4901086D490108533F0108CE
:10B0B0006F4901085D3F01087149010838B5040076
:10B0C00001D1012032BD250084356868002803D1F4
:10B0D0002870200001F034F924206860206801689D
:10B0E000012291430160A06A002802D0200000F0F4
:10B0F00095FB200000F04AFA012811D02068416831
:10B10000084A0A404260206881682A22914381608F
:10B110002068016801220A430260200000F0E8FB79
:10B1200032BD0000FFB7FFFFF1B584B01F00064637
:10B130005436706B202861D10C000FD06846028015
:10B14000002A0BD00498806880214901884207D1E9
:10B1500004980069002803D1E00701D501204EE0E2
:10B160000025F5632120706301F08EF90100684627
:10B17000008830806846008870803A0004988068B3
:10B1800080235B01984209D104980069002805D109
:10B190002500049F0192029104001AE02000F8E7C4
:10B1A00021788162641C11E001980090029B0022CA
:10B1B0008021380000F006FC00281BD13868002CE4
:10B1C000EED12988C905C90D8162AD1C7088401E69
:10B1D000708070880028E7D13800029B01990091A7
:10B1E0000022402100F0EEFB002803D120207063F4
:10B1F000002004E020207063032000E0022005B05E
:10B20000F0BD70B58C23C358202B2BD100290BD057
:10B21000130009D0836880246401A34206D1036926
:10B22000002B03D1CB0701D5012070BD0023C366DD
:10B2300003680D4CA34212D00C4CA3420FD05B68A4
:10B240001B020CD5EFF31083012484F310880468EB
:10B2500025688026F6042E43266083F3108800F0CC
:10B2600002FC70BD022070BD0080004000840040E0
:10B27000FEB504002368D869194609689A68250054
:10B280005C3520260E4000962026064001960026BA
:10B29000B74F07400ED1019F002F10D0009F002F05
:10B2A00002D1D70000D487E0A969002901D020008D
:10B2B0008847F7BDAF4F174002D1AF4F0F407BD04B
:10B2C000C70706D5CF0504D501271F626B6B1F4347
:10B2D0006F63830708D5D30706D5022327683B622F
:10B2E0006B6B04271F436F630423184207D0D707F3
:10B2F00005D527683B626B6B02271F436F630823EA
:10B3000018420AD0009F002F02D19A4F174004D054
:10B3100027683B626F6B3B436B6380231B011840C4
:10B3200007D0480105D520680362686B20210143DE
:10B330006963686B002835D00198002809D000980F
:10B34000002801D1D00004D5A969002901D020002E
:10B350008847686B402721688968394002D12821D5
:10B36000014024D0200000F015FC206880680740D0
:10B3700019D0EFF31080012181F3108821688A68C9
:10B3800040239A438A6080F31088686A00280AD0B4
:10B390007A498163686A01F05FF9002802D0686A1F
:10B3A000816B8847F7BD200001F018FBF7BD200036
:10B3B00001F014FB6E63F7BD2F69012F00D094E0FC
:10B3C0001027384200D0394200D18EE01F62102091
:10B3D000C0432168896849064BD5696A0A68526882
:10B3E00092B2002AE7D05C23E35A9A42E3DA6A80F9
:10B3F00009680968890634D4EFF31081012282F3C9
:10B400001088226813685E4F1F40176081F3108810
:10B41000EFF31081012282F31088226893680127DC
:10B42000BB43936081F31088EFF31081012282F314
:10B430001088226893684027BB43936081F310888B
:10B44000202129632E61EFF31081012282F31088FD
:10B45000226813681840106081F31088686A01F050
:10B46000C0F8022068615C20205A6988411A89B2BC
:10B4700037E05C21615A6A88891A6A4611806988B6
:10B48000002973D06946098800296FD0EFF3108135
:10B49000012282F31088226813683A4F1F40176018
:10B4A00081F31088EFF31081012282F31088226863
:10B4B0009368354F1F40976081F3108820212963DE
:10B4C0002E61AE61EFF31081012282F310882268B1
:10B4D00013681840106081F3108802206861684684
:10B4E0000188200001F09EFAF7BDC70208D5570277
:10B4F00006D5802040031862200001F094FAF7BDC1
:10B5000080231B048027384209D00F4001D11A4004
:10B5100005D0E969002929D020008847F7BD4022DD
:10B52000104214D00A4012D0EFF31080012181F3B1
:10B53000108821680A6840239A430A6080F31088C3
:10B540002020E862EE61200001F06EFAF7BD0340B2
:10B5500005D04A0003D5200001F067FAF7BDC0010D
:10B5600004D5002902D5200001F060FAF7BD0000E3
:10B570000F080000010000102001000411BC0008A9
:10B58000FFFEFFFFDFFEFFFFFEFFFFEFF8B5050048
:10B5900000242B68186891490140A868084329696C
:10B5A000014368690843E9690143196058688C4997
:10B5B0000140E86808435860A8698A498B4205D071
:10B5C00089498B4202D00100286A08439968874A5A
:10B5D0000A4010439860D86A0F218843696A014382
:10B5E000D962834880210902824E1022824FBB42D9
:10B5F0002ED13668B607B60F30D0022E36D044D3DF
:10B60000032E31D0774EB34202D0774EB34242D1AF
:10B61000002A08D0022A0BD0042A00D192E0082A7E
:10B6200000D192E0CEE001F00DFD002800D1CAE08B
:10B6300072496A6A5200895A01F03EFD6A685100F7
:10B640008918884203D31103814200D37FE0B9E017
:10B650006B4FBB420CD136680C27374070D0042F9B
:10B6600013D0082F02D00C2F56D0CBE70222C9E707
:10B670009C4FBB420BD136683027374060D0102F2B
:10B6800003D0202FF2D0302FEEE70422BAE7964FF6
:10B69000BB4229D10022954F5AA6EB698B426AD151
:10B6A000002A06D0022A08D0042A5FD0082A60D0D7
:10B6B00088E001F0C7FC002869D069680091696AD8
:10B6C0004900715A01F0F8FC4000009949084018FF
:10B6D000009901F0F1FC01001039B94272D2074023
:10B6E0000007400F384365E0AD4FBB42D2D0AD4FAD
:10B6F000BB42CFD03B4FBB4210D13768C02636018A
:10B700003E401DD04F09BE42BFD00F09BE42ADD052
:10B71000C0273F01BE4200D1082273E7324FBB422F
:10B72000B9D13768C026B6003E4009D0CF09BE4225
:10B73000ABD08F09BE4299D0C027BF00BE4293E76D
:10B7400000225FE701F03AFC6FE7080070E7070EA0
:10B7500006025008002180197941002301F0C7FC3E
:10B7600091494118914A91422CD223E001F026FCE4
:10B77000A1E70800A1E7002A06D0022A08D0042A7F
:10B780001BD0082A1CD01DE001F05CFC00281AD058
:10B7900069680091696A4900715A01F08DFC00994D
:10B7A00049084018009901F087FC01001039B9429E
:10B7B00008D280B22968C86005E001F0FFFBE5E728
:10B7C0000800E5E70124280068300121418001805C
:10B7D0000021C16001612000F2BD0000F369FFCFCC
:10B7E000FFCFFFFF0080004000840040FFF4FF1106
:10B7F0000024F400541002400038014004B800084E
:10B8000000440040010002000400060008000A0095
:10B810000C00100020004000800000012821415C45
:10B82000090706D501684A68614B1340826B1A43C9
:10B830004A602821415CC90706D501684A685D4B0A
:10B840001340C26A1A434A602821415C890706D521
:10B8500001684A68584B1340026B1A434A6028211A
:10B86000415C490706D501684A68544B1340426B56
:10B870001A434A602821415CC90606D501688A68D6
:10B880004F4B1340C26B1A438A602821415C8906E2
:10B8900006D501688A68B94B1340026C1A438A6066
:10B8A0002821415C490611D501684A68B44B134010
:10B8B000426C1A434A60426C80235B039A4205D172
:10B8C0004A68B04B1340826C1A434A602821415C9D
:10B8D000090606D501684A68AB4B1340C06C184393
:10B8E0004860704700480040004C0040F0FF0000F6
:10B8F000FEB50600370084370024FC6000F0C4FD6C
:10B900000190202530680068000717D59F480090F7
:10B91000019B00222904300000F054F800280DD0CB
:10B92000EFF31080012181F3108831680A688023C9
:10B930009A430A6080F310887D6026E030680068D2
:10B94000400725D591480090019B002269043000F2
:10B9500000F038F800281BD0EFF31080012181F3AC
:10B96000108831680A688A4B13400B6080F3108896
:10B97000EFF31080012181F3108831688A68012378
:10B980009A438A6080F31088BD603C700320FEBD3E
:10B990007D60BD60F46634673C700020FEBD000031
:10B9A00000500040003C014000FDFFFF00FD0F0083
:10B9B000FF7FFFFFFFFFFDFFFFFFFEFFFFFFFBFF1E
:10B9C000FFEFFFFFFEB580273F010824002506009A
:10B9D00001916846027002933068C0690199014084
:10B9E0000198814201D1012000E0002069460978D8
:10B9F000884236D108980021C9438842ECD000F033
:10BA000043FD0299401A0899814201D3002901D1CE
:10BA10000320FEBD306800684007DDD5019880280E
:10BA2000DAD04028D8D03068C0692040306803D1CF
:10BA3000C0693840D0D009E00462300000F0AAF8B4
:10BA400030008430C46005700120FEBD306807629C
:10BA5000300000F09FF8300084302021C160057074
:10BA6000D6E70020FEBDF4B5816501005C316A4671
:10BA700012880A806A4612884A8000248C6187688E
:10BA800080225205FF25130C9F4204D10669002E27
:10BA900010D1584D0EE07F26002F03D10769002FEB
:10BAA00005D107E0974207D10569002D01D18E80AD
:10BAB00003E03F258D8000E08C804C6322240C63E2
:10BAC000EFF31084012585F310880568AE6801271F
:10BAD0003743AF6084F310888C685500AC4228D19E
:10BAE0006C4624888D89AC4223D384689C4205D15E
:10BAF0000369002B02D1404B8B6110E03F4B8B61FF
:10BB0000016900290BD0EFF31081012383F3108822
:10BB100003681C68150D25431D6081F31088EFF341
:10BB20001081012383F31088006883681A438260C0
:10BB300011E082689A4212D10269002A0FD1304A7C
:10BB40008A61EFF31081012282F310880068026895
:10BB500020231343036081F310880020F2BD294A9B
:10BB60008A6101690029ECD0EFF31081012282F390
:10BB700010880068026890235B00EAE7FFDFFFFFA0
:10BB8000FFFFEFFFFFFF9FFFFFFFF7FFFFFFFF013B
:10BB9000DFFEFFFF10B5EFF31081012282F3108862
:10BBA00002681368184C1C40146081F31088EFF38E
:10BBB0001081012282F3108802689368134C1C40A4
:10BBC000946081F31088C16E01290BD1EFF31081CD
:10BBD000012282F31088026813681024A3431360C3
:10BBE00081F3108820218C2281500021C166416799
:10BBF00010BD0000FF01000041BF0008A7BD000804
:10BC0000CDBC000825BC0008DFFEFFFFFEFFFFEFF4
:10BC100080B5806A0100563100220A810A8000F056
:10BC2000DDFE01BD70B501005C3102680B6B222B9B
:10BC300047D1526A8B881340826D1370826D521CFB
:10BC400082654A88521E4A804A88002A3DD1EFF315
:10BC50001082012383F3108803681C68B44D2540CB
:10BC60001D6082F31088EFF31082012383F31088A4
:10BC700003689C680125AC439C6082F310882022F5
:10BC80000A6300228A614A610368AA4CA34211D068
:10BC9000A94CA3420ED05B681B020BD5EFF31083B7
:10BCA000012484F3108804682568A44E2E40266081
:10BCB00083F310880B69012B00D15CE000F04AFE91
:10BCC00070BD906908210143916170BD70B501009C
:10BCD0005C3102680B6B222B47D1526A8B88134070
:10BCE000826D1380826D921C82654A88521E4A8042
:10BCF0004A88002A3DD1EFF31082012383F3108894
:10BD000003681C688A4D25401D6082F31088EFF39C
:10BD10001082012383F3108803689C680125AC43DB
:10BD20009C6082F3108820220A6300228A614A61A3
:10BD30000368804CA34211D07F4CA3420ED05B68B5
:10BD40001B020BD5EFF31083012484F310880468E1
:10BD500025687A4E2E40266083F310880B69012BEC
:10BD600000D108E000F0F6FD70BD906908210143A4
:10BD7000916170BD00000A61EFF31081012282F32E
:10BD80001088026813681024A343136081F310889D
:10BD900001681022CB69134000D00A625C21415A2D
:10BDA00000F040FE70BDFEB505005C35AB88046850
:10BDB000E76921460968A2682D6B222D00D0B1E009
:10BDC00005005C35AC89002C06D00400029301917B
:10BDD000009200261BE0200001005C314A88002A06
:10BDE00000D1A3E08B899A4200DB9FE0EFF3108241
:10BDF000012383F3108803689C68B44D25409D603F
:10BE000082F31088B24A71E1200000F0A3FDB80669
:10BE1000E1D52068406A02990140A06D0170A06DD3
:10BE2000401CA0656888401E68802068C769790743
:10BE300027D0F90707D50199C90504D50121016269
:10BE4000686B014369630420B90708D50099C907E5
:10BE500005D5022122681162696B014369630742BB
:10BE600008D00099C90705D521680862686B0221CE
:10BE700001436963686B002803D0200000F0AEFD29
:10BE80006E6368880028C2D1EFF31080012181F32E
:10BE9000108821680A688F4B13400B6080F310886C
:10BEA000EFF31080012181F3108821688A688A4BA2
:10BEB00013408B6080F3108820202863AE616E6190
:10BEC00020681C49884211D01B4988420ED0406826
:10BED00000020BD5EFF31080012181F31088216857
:10BEE0000A68164B13400B6080F3108828690128FC
:10BEF0008AD12E61EFF31080012181F3108821682F
:10BF00000A6810239A430A6080F310882068C16988
:10BF1000C90601D5102101625C20215A200000F0E1
:10BF200081FD74E7A06908210143A161F7BD00000C
:10BF3000DFFEFFFF0080004000840040FFFFFFFBAA
:10BF4000FEB505005C35AB880468E76921460968E1
:10BF5000A2682D6B222D00D0B2E005005C35AC89C3
:10BF6000002C07D00400684603800291019200264D
:10BF70001BE0200001005C314A88002A00D1A3E0C8
:10BF80008B899A4200DB9FE0EFF31082012383F359
:10BF9000108803689C684D4D25409D6082F3108891
:10BFA0004E4AA3E0200000F0D5FCB806E1D5206899
:10BFB000406A694609880140A06D0180A06D801C1F
:10BFC000A0656888401E68802068C769790726D008
:10BFD000F90707D50299C90504D501210162686BEB
:10BFE00001436963042002210F4207D0019AD2075E
:10BFF00004D5226811626A6B02436A63074207D064
:10C00000019AD20704D522681062686B0143696304
:10C01000686B002803D0200000F0E0FC6E636888A5
:10C020000028C2D1EFF31080012181F3108821682C
:10C030000A68284B13400B6080F31088EFF31080E0
:10C04000012181F3108821688A68234B13408B609B
:10C0500080F3108820202863AE616E61206820493B
:10C06000884211D01F4988420ED0406800020BD58B
:10C07000EFF31080012181F3108821680A681A4BC0
:10C0800013400B6080F31088286901288AD12E6143
:10C09000EFF31080012181F3108821680A681023D2
:10C0A0009A430A6080F310882068C169C90601D5E7
:10C0B000102101625C20215A200000F0B3FC74E7DB
:10C0C000A06908210143A161F7BD0000FFFFFFEF58
:10C0D00025BC0008FFFEFFFFFEFFFFEFCDBC000800
:10C0E0000080004000840040FFFFFFFB8A61EFF307
:10C0F0001081012282F31088006802682023134314
:10C10000036081F31088F7BD80B58748012142683C
:10C110000A4342604268114000910099802149051C
:10C1200002680A4302600068014000910098802084
:10C13000800001F02DF801BDF0B599B00700142280
:10C14000002101A801F032F84C22002106A801F0DC
:10C150002DF83868734988424FD18020C00106907D
:10C160000024129406A801F02BF8002801D001F059
:10C17000CDFB6E4880214903C2680A43C260C26891
:10C18000114000910099012501682943016001686F
:10C19000294000910099022102680A430260006868
:10C1A000014000910098C02001900326029603945C
:10C1B00001A9A020C00501F0ABFB019502960394F4
:10C1C00001A95B4801F0A4FB5A4D5B48286005209B
:10C1D0006860AC60EC60802028618000686180004D
:10C1E000A8612020E8612C62280000F053F90028A3
:10C1F00001D001F08BFB3D65AF6219B0F0BD18B501
:10C2000099B004001422002101A800F0CFFF4C22B5
:10C21000002106A800F0CAFF2068484988423AD1A8
:10C220008020800406900024189406A800F0C8FF1F
:10C23000002801D001F06AFB3C48810C82680A4367
:10C2400082608268114000910099012102680A43CE
:10C2500002600068014000910098C02040010190F8
:10C2600002200290039404940320059001A9A020C9
:10C27000C00501F04DFB00220021152001F0D5FC86
:10C28000152001F0D7FC00220021162001F0CDFC82
:10C29000162001F0CFFC1AB010BD30B599B00400E3
:10C2A0001422002101A800F081FF4C22002106A8E1
:10C2B00000F07CFF20686C49884230D12020069035
:10C2C00000250C9506A800F07BFF002801D001F0A6
:10C2D0001DFB0220154C21680143216021680840A4
:10C2E00000900098C02001901220029003950495C0
:10C2F0000620059001A90E4801F00AFB802080036A
:10C30000A1680143A160A168084000900098002244
:10C310000021172001F089FC172001F08BFC19B0D7
:10C3200030BD0000002401403C10024034100240A7
:10C330000004005060140020080002400064004027
:10C34000F0B599B0040014220021684600F02EFFD9
:10C350004C22002106A800F029FF20680224444D49
:10C360000026444988422BD101270697079606A844
:10C3700000F026FF002801D001F0C8FA6003E96848
:10C380000143E960E968084005900598286838434A
:10C3900028602868384005900598C020C0000090AB
:10C3A00001940296039604976946A020C00501F007
:10C3B000AFFA002200211B2001F037FC1B202CE0EB
:10C3C0002D4988422BD104270697099606A800F02C
:10C3D000F7FE002801D001F099FA6004A968014332
:10C3E000A960A9680840059005982868204328603E
:10C3F0002868204005900598C02080000090019496
:10C4000002960394049769461C4801F081FA0022C1
:10C4100000211D2001F009FC1D2001F00BFC19B0CA
:10C42000F0BD80B500681149124A90420BD14868AE
:10C43000134A02404A60C021C900A020C00501F093
:10C440001DFB1B200CE00C4A90420BD108680D4AE2
:10C4500002400A60C0218900084801F00FFB1D203E
:10C4600001F0F1FB01BD0000005400403C1002400F
:10C4700034100240003801400048004000040050E1
:10C48000FFBFFFFFFFFFFBFF01484068704700BF91
:10C49000E805002038B5040001D1012032BD206834
:10C4A00014216C4A904207D2884A801800F004FE9A
:10C4B00080006064864806E0864A801800F0FCFD33
:10C4C0008000606484482064022025216054206834
:10C4D0000068824901402068016020680168A26804
:10C4E0000A43E168114322690A4361691143A26961
:10C4F0000A43E1691143226A0A430260200000F006
:10C500008BF90025A0688021C901884200D16560AF
:10C5100020794006400EA16C0860206DE16C4860F7
:10C52000606800280AD0052808D2200000F097F99A
:10C53000606D0560E06DA16D486002E06565A56510
:10C54000E565E563012025216054FFE7242025549B
:10C55000002032BDF2B50400002000262421615CD9
:10C56000012901D10220F2BD2100243101250D70E5
:10C570002527E75D012F2ED102212527E155E06314
:10C5800020680168A94301600099200000F027F9A4
:10C590002068216B0029016801D00E2205E00422E9
:10C5A00091430160206801680A220A430260A16C7D
:10C5B00028020A68D20302D50A6802430A60616D44
:10C5C000002903D009680843616D0860206801688C
:10C5D0000D43056003E08022E2630870012630000D
:10C5E000F2BD70B5002809D00100243100222523B6
:10C5F000C35C022B04D00423C3630A70012070BD06
:10C6000003681C680E25AC431C60846C714B256864
:10C610001D402560046825680126B5432560012476
:10C620004425455D1C262E400125B540066C7560ED
:10C63000056DC66C7560456D002D06D02D682B40CC
:10C64000456D2B60C36D856D6B602523C4540A70E6
:10C65000002070BD0804024070B5002100240122B2
:10C660002523C35C022B03D00421C16301242AE0EB
:10C6700003681D680E26B5431D6003681D68954359
:10C680001D60856C534B2E681E402E604425455D11
:10C690001C262E400125B540066C7560056DC66CE4
:10C6A0007560456D002D06D02D682B40456D2B60C3
:10C6B000C36D856D6B602523C25424228154816B28
:10C6C000002900D08847200070BD0000F8FFFDBFA2
:10C6D00000000240F8FBFDBF000402400F80FFFF96
:10C6E000FEB5016C0968029101680A680192442252
:10C6F000825C1C2313406A46137004232022029C90
:10C700006D462D780426AE40264014D0019C1C4076
:10C7100011D00C68224002D10A689A430A60442171
:10C72000415C1C220A409340016C4B60016B002964
:10C730004DD08847F7BD012302240025029EB44650
:10C740006E4636780227B740664637401FD0019EB6
:10C7500026401CD00E68324005D10A680A26B24332
:10C760000A60252143544421415C1C220A40944024
:10C770000168434A914201D3424900E042490C60BA
:10C7800024214554C16A002921D08847F7BD0822D9
:10C7900064466E4636780827B740274017D0019C7C
:10C7A000224014D00A680E24A2430A604421415C4E
:10C7B0001C220A4001219140026C5160C363252173
:10C7C000435424214554416B002900D08847F7BDCC
:10C7D00000000000FFFEFFFF2521405C704770B5A0
:10C7E000046DC56C6C60446D002C02D0C46D856D09
:10C7F0006C6001244425455D1C262E40B440056C28
:10C800006C60046863608068102802D1A260E160F7
:10C8100070BDA160E26070BD10B50400606C80085E
:10C8200080002168194A914208D2194A1018A06460
:10C83000C8B20838142100F03FFC08E0154A10186F
:10C84000A064C8B20838142100F036FCC01D12499B
:10C85000E1640121C006C00E8140216510BD01794F
:10C860004906490E8A000D4BD21842650C4A826572
:10C870000122491E8907890F8A40C265704700005E
:10C880008100024004040240040002400804024007
:10C89000000802401C08024080080240FC080240D8
:10C8A0004009024010B5544C54482060E120400239
:10C8B00060600020A060E06020610C216161A061E7
:10C8C000E061206260620FE010B54D4C4D48206081
:10C8D000E120400260600020A060E06020610C2147
:10C8E0006161A061E0612062A0622000FEF7E6FBCA
:10C8F000002801D001F00AF80021200001F0EBF936
:10C90000002801D001F002F80021200001F0FCF91C
:10C91000002801D000F0FAFF200001F0BFF9002844
:10C9200001D000F0F3FF10BDF8B505000F001600B0
:10C93000380001F03FFA04003300A2B239002800A9
:10C94000FEF7F2FB002801D000F0E0FF2E48448102
:10C95000F1BD000000682B49884200D0704710B537
:10C960002A4C207861780906090C08432849884236
:10C9700027DA207861780906090C0843A17922009A
:10C9800008321154207861780906090C0843401CCC
:10C990002070000A6070207861780906090C08434D
:10C9A00000212200083211541BA12000083001F0A0
:10C9B00008FA002808D01748817802220A438270BA
:10C9C00002E0002020706070A11C002001F010FA2D
:10C9D0000122A11D0A48FEF714FC10BD10B5084C39
:10C9E000A04208D10120216808622000FFF719FD4C
:10C9F0002000FFF7A5FC10BDFC100020003801400E
:10CA000090110020004800404016002078060020C9
:10CA100033080000501600202B514D545245435608
:10CA20003A000000704770477047704770470268CF
:10CA3000531C036011707047FEB505001BD0B64C47
:10CA40002878C00719D5A16838200840E1688027F8
:10CA5000BF02102808D18807800F032806D0696814
:10CA60007808814233D13AE00828F8D1206807409D
:10CA700003D06868002800D1E3E1287880077AD5E0
:10CA8000A06838210140E268A448A54F10294DD183
:10CA90009207920F022A4BD0E968002900D194E056
:10CAA000216808402969014321602068A10D0143E4
:10CAB0002160FFF7E9FC06002068400500D57DE015
:10CAC000FFF7E2FC801B0328F6D30320FEBDA02263
:10CAD000D202914207D1216882000A432260216874
:10CAE0000843206007E02068B649014021602068C3
:10CAF000B54901402160686800280BD0FFF7C4FCED
:10CB0000060020683840B8D1FFF7BEFC801B6528BE
:10CB1000F7D3DAE7FFF7B8FC060020683840ACD05E
:10CB2000FFF7B2FC801B6528F7D3CEE70029B3D10D
:10CB30002268520502D5EA68002A3ED06268174092
:10CB40006A6912023A43626000290ED121680840E6
:10CB50002969014321609D48012122689204520FF6
:10CB6000914000F0A9FAB8490860B848006801F09F
:10CB700049F9002821D10227287800070AD5A068A2
:10CB800038210140182930D1206E384002D0A869E0
:10CB9000002812D02878400700D4A5E0002001909A
:10CBA000A06838210140202941D1E06D074000D123
:10CBB0009AE0A868002800D096E042E1606807404B
:10CBC0006869000238436060D5E72068A0490140E9
:10CBD0002160FFF759FC060020684005CBD5FFF720
:10CBE00053FC801B0328F7D36FE7A8690028206E49
:10CBF0000ED0012101432166FFF746FC0600206E9E
:10CC00003840C7D1FFF740FC801B0328F7D35CE70F
:10CC1000012188432066FFF737FC0600206E38406C
:10CC2000B8D0FFF731FC801B0328F7D34DE7F80697
:10CC3000E16B014008D1E16B0143E163E16B084026
:10CC40000090009801200190824F3868C00512D4EE
:10CC5000A00D00903868009901433960FFF714FC7B
:10CC6000060038680099014005D1FFF70DFC801BD4
:10CC70000328F6D329E7A8680121012805D0052853
:10CC8000E06D06D104220243E265E06D0143E165F7
:10CC900005E08843E065E06D04218843E0650227F4
:10CCA000A86800280CD0FFF7EFFB0600E06D3840C5
:10CCB00013D1FFF7E9FB801B67498842F6D304E7ED
:10CCC000FFF7E2FB0600E06D384006D0FFF7DCFB23
:10CCD000801B61498842F6D3F7E60198002803D00B
:10CCE000E06B5E490140E1632878800629D5802702
:10CCF0003F04E8690028206814D0790801432160C6
:10CD0000FFF7C2FB0600206838401AD1FFF7BCFBD2
:10CD1000801B0328F7D3D8E600100240FFC7FFFFAF
:10CD2000FF80FFFFA24901402160FFF7ADFB060035
:10CD30002068384005D0FFF7A7FB801B0328F7D3F6
:10CD4000C3E6286A002855D0A16838220A40102A74
:10CD500052D08027BF0497490228206838D101406B
:10CD60002160FFF791FB06002068384005D0FFF7EF
:10CD70008BFB801B0328F7D3A7E6E0688E490140B0
:10CD8000686A0843A96A0143E86A00020843296BFC
:10CD90000143686B0843A96B0143E160206879088F
:10CDA00001432160E068F9000143E160FFF76CFB9B
:10CDB0000500206838401DD1FFF766FB401B0328A3
:10CDC000F7D382E6FFFFFEFFFFFFFBFF0024F40026
:10CDD00001402160FFF758FB05002068384005D06E
:10CDE000FFF752FB401B0328F7D36EE6E0689C492F
:10CDF0000140E1600020FEBD012822D0E0688107EB
:10CE0000890F6A6A91421CD170210140AA6A91423D
:10CE100017D1FE21C9010140EA6A1202914210D1E4
:10CE2000F821890301402A6B91420AD1E0210905CA
:10CE300001406A6B914204D1400F4007A96B8842C0
:10CE4000D8D00120FEBD00BFF4050020F005002071
:10CE5000FFFEFFFF0070004089130000FFFFFFEF9F
:10CE6000F8B5070066D000917E4800684007400F83
:10CE7000884218D27B4C20680721884300990143DF
:10CE80002160FFF701FB009D060020684007400F6E
:10CE9000A84207D0FFF7F8FA801B73498842F4D301
:10CEA0000320F2BD00953968714C022001420CD07C
:10CEB000490704D5A168E022D2010A43A260A16813
:10CEC0006A4A0A40B9681143A1600725ED433978E1
:10CED000C90732D57968012918D12068800329D57E
:10CEE000A06828400143A160FFF7CEFA3E0007008A
:10CEF000A068382101407068C00081421CD0FFF753
:10CF0000C3FAC01B58498842F2D3C9E7022902D1AB
:10CF10002068800103E0002903D120684005DFD4A8
:10CF200008E0032903D1226E1040D9D102E0E26D5E
:10CF30001040D5D10120F2BD370000984949096859
:10CF40004907490F884217D24648006805400098B3
:10CF5000284344490860FFF797FA009D06004148BE
:10CF600000684007400FA84206D0FFF78DFA801BEB
:10CF70003D498842F3D393E73878400705D5A06848
:10CF80003C490140F8680843A06000F017F83A49AE
:10CF9000A2681205120F9200895CC906C90EC8402A
:10CFA000364908603648006800F02CFFF2BD0000EA
:10CFB000FFFFBFFFFFFFFFFE8C80C11130B50721CF
:10CFC00031482B4C3823A2681A4006D1236801222D
:10CFD000DB0A19408A4011001EE04208A5681D4086
:10CFE000082D01D1100030BDA5681D40102D16D1AF
:10CFF000E368E5682D092940491C7F259B079B0FA5
:10D00000032B00D1100000F057F8E168090A0D4029
:10D010006843E168490F491C00F04EF830BDA06834
:10D020001840202802D18020000230BDA0680340B3
:10D03000182B02D1FA20C00130BD002030BD0F48AE
:10D04000006870470F4801680C4800680F4A49049F
:10D05000490F8900515CC906C90EC84070470000DD
:10D06000FCFFFEEE0020024089130000FFF0FFFFEE
:10D0700000100240FF8FFFFF38420108F405002036
:10D08000F0050020081002400024F4009C43010831
:10D09000CA0F00D0494203105A400DD004B500D346
:10D0A000404200F009F8009AD20701D349421242E7
:10D0B00000D5404204BD0000094214D088420FD37D
:10D0C0000122030C01D100041204002300185B416B
:10D0D0008B4200D35B1A5241F8D3190010007047FD
:10D0E00001000020704708B500F0B2FE08BD1242F2
:10D0F0002DD0994231D970B500251B4209D00C00C2
:10D10000002112E01100FFF7D7FF0A0000210023E1
:10D1100070BD0942F6D000240126491864419442AA
:10D1200000D3A41A7641F8D33100012601E07641FC
:10D1300009D2001864416D41A41A9D41F7D2A41888
:10D140005D41B619F5D3300022002B0070BD1B42A3
:10D15000CFD108B500F07EFE08BD01D19042CAD201
:10D1600002000B000021002070473E0010B5002493
:10D170000B480168820D0A430260032000F042FE62
:10D18000002801D0012401E0FEF7BEFF200010BD01
:10D1900004490A68044B13401843086070470000B4
:10D1A0000020024000000140FFF9FFFF10B504001D
:10D1B000080011000200200000F050FE200010BD09
:10D1C000F0B585B0040000206A461070984D022129
:10D1D0000491216889035AD5029080204005296B6B
:10D1E000014008D1296B01432963296B0840019054
:10D1F000019801200290A80D03908E4801900068CC
:10D200000399014301980160FFF73EF90600019878
:10D2100000680399014008D1FFF736F9801B032805
:10D22000F5D30320694608702AE0296DC0208000EC
:10D230000840814F00280ED0216C88420BD0286D09
:10D240003840296D802252020A432A65296D7B4AA3
:10D250000A402A652865C0070DD5FFF715F90600B5
:10D26000286D0499014006D1FFF70EF9801B74491F
:10D270008842F5D3D5E7286D0740206C38432865F0
:10D280000298002803D0286B6E49014029630322CD
:10D29000D2432078C00704D5A86C104061680143D0
:10D2A000A96420680499014005D0A86C0C2188432A
:10D2B000A1680143A9642078400705D5A86C3021F6
:10D2C0008843E1680143A9642078C00605D5A86CAD
:10D2D0005D49014020690843A8642068C00405D561
:10D2E000A86C5549014060690843A864206880051E
:10D2F00005D5A86C55490140A06A0843A864206878
:10D30000400505D5A86C52490140E06A0843A8646D
:10D3100050482178890604D5A96C0140A3690B43C4
:10D32000AB642178490605D5A96C4B4B0B40E169EC
:10D330001943A964216849040ED5A96C890089089C
:10D34000236B0B43AB64216B8023DB05994203D134
:10D3500029689B0B0B432B602168090305D5A96C39
:10D3600040239943636B0B43AB64802149048B08D2
:10D370002668B6020BD5AF6C384E3E40A76B3743DC
:10D38000AF64A66B9E4202D12E680E432E602668C3
:10D3900033400BD0AB6C324E1E40E36B3343AB6477
:10D3A000E36B8B4202D12B680B432B600B0A266880
:10D3B00036050AD5EE6C3240266A1643EE64226AC0
:10D3C000012A02D12A681A432A60CA0A266816402E
:10D3D0000BD0EE6C0C27BE43676A3743EF64666A76
:10D3E000042E02D12E6833432B6023680B400AD0F1
:10D3F000EB6C1840636C0343EB64606C904202D1A9
:10D40000286808432860206880010CD5E86C0A4A27
:10D410000240A06C1043E864A06C0A0C904202D158
:10D420002868014329606846007805B0F0BD000017
:10D430000C10024000700040FFFCFFFFFFFFFEFFEA
:10D4400089130000FFFFFFEFFFF3FFFFFFFFF3FF74
:10D45000FFFFCFFFFFCFFFFFFF3FFFFFFFFFBFFF3C
:10D46000FFFFFFFEF8B586B0FFF780FE00F0FCF985
:10D47000142101A800F0F0FC0124B2480168214306
:10D4800001600168214000910099022102680A436D
:10D4900002600068014000910098A027FF0500226B
:10D4A000E103380000F072FBE003019002940026D3
:10D4B0000396049601A9380000F02AFA1020019082
:10D4C000C42080030290039601A99F4800F020FA2F
:10D4D00000220021062000F0A8FB062000F0AAFB95
:10D4E00000220021072000F0A0FB072000F0A2FB93
:10D4F0000122D103380000F049FBB64CA68200F0AF
:10D50000B3FCB548E06404202065B448A0656065BC
:10D5100020004C3000F074FD00F0E2F9FFF7C2F992
:10D5200000F0A4FD00F062FE00F0F8FE01F0E0F96A
:10D5300002F020F800F0D4F902F014FB01F032FB05
:10D5400002F082F802F048FB00F00AFD00F0C8F992
:10D5500001F0BCFC00F023FD012002F0E5FAA04D33
:10D56000002028706870A91C00F042FC00F068F9E7
:10D5700002F09EFA6670E06A206321001A310020F2
:10D5800000F036FC21001631002000F031FC2100B3
:10D590001E31002000F02CFCA84828180090AE4D49
:10D5A00000F09EF902F027FD00F096FF01F052F91D
:10D5B00000F046F900F075F82000223002F098FEE5
:10D5C000FF21683188420CD321002231002000F075
:10D5D0000FFCA248007800F014FE00F031F900F0D2
:10D5E000DEFC20001A3002F083FE9D49884207D3FA
:10D5F00021001A31002000F0FBFB012002F094FA18
:10D600002000163002F074FE964988421BD3210098
:10D610001631002000F0ECFB287881060DD500992A
:10D6200089780B2909DA009909780B2905DA41066E
:10D6300003D5010601D5000705D501F007FF2878BD
:10D64000F7210140297020001E3002F051FEA74949
:10D65000884208D321001E31002000F0C9FB02F0EF
:10D6600059FD00F073F82000263002F041FEA04979
:10D6700088420AD321002631002000F0B9FB02F0D5
:10D6800073FD02F09FFD02F03FFEA08AC92805DB72
:10D6900080210902380000F07FFAA68202F09BF890
:10D6A0007EE710B56C480078032103220240012A6E
:10D6B00002D00140022942D1464C206BE16A8842E7
:10D6C00034D300F00DF901F0BBFC02F071F801F069
:10D6D0002DFE01F070FD00F0B3F8E121890020007B
:10D6E0005C3000F0B9FB207C217881420FD001280A
:10D6F00003D1002908D1022104E0002804D1012926
:10D7000002D1012002F084F82078207403E0002187
:10D71000002002F07DF800F065F8012802D1608851
:10D72000401C60800020206302F0C2F920786178FC
:10D73000884201D002F0BCF902F0BAF910BD01F044
:10D7400031FA10BD341002400004005070B50020C2
:10D750008025ED00032467491E4AD37ADB071AD4DB
:10D760001278012A16D1644B1A785E783606360C88
:10D7700032430FD1087048708870C87008714871C2
:10D780008871C871280000F088FE642002F02AFE2B
:10D79000641EF7D170BD10220A7048708870C8707E
:10D7A000087148718871C871280000F076FE642005
:10D7B00002F018FE641EF7D170BD102800D070472B
:10D7C00080B500F03DF801BD102802D100204B4982
:10D7D000087070470000002000300040FF0F00007C
:10D7E00078060020F8B500270026444CF820800079
:10D7F000201802F031FB0500761C012D02D102F049
:10D800007AFC03E0002D01D102F0EFFC20004C3047
:10D8100000F021FC002D03D1F0B20228E6DD0AE081
:10D82000012D08D136480770477087706088401C0A
:10D83000608002F03DF92800F2BD00003C080000C5
:10D8400080B510212F4800F09BF9002800D001205E
:10D850002A49087001BD0000501600204A1200201D
:10D86000514600003175000030B593B03C2104A84A
:10D8700000F0F2FA684600210022002300241EC0B6
:10D880008020800002F0C2FD0A200490F63007904C
:10D8900008944020099001200A9002250C950D95CE
:10D8A0000E9408200F90C020C002109028061190FE
:10D8B0000001129004A8FFF7BFF80720009001951F
:10D8C0000294039402216846FFF7CAFAFFF7B7FBF8
:10D8D000FA218900FFF7F0FB00F0C2F913B030BD68
:10D8E00080B5094800F0B7FB01BD0000983A000080
:10D8F000B80B000028130020441200200000002074
:10D90000B40E0020000400504C00002070472E0090
:10D91000FFB500220F2302932DE0052603E0AC4E55
:10D92000B042FAD10426AE402643009C2660A94CA2
:10D930002568DC4325404E68F60200D51D43A54E00
:10D940003560756825404F68BF0200D51D4375607E
:10D95000A14D6E6826404D68AD0300D51E439E4D17
:10D960006E602E6834404E68F60302D526001C0017
:10D9700034432C60521C0B681C00D4407DD0012520
:10D9800095402B40F6D054000327A740FE43019654
:10D990004E68B707BF0F012F03D0B607B60F022E90
:10D9A0000ED18768019E3E40CF68A740374387600D
:10D9B0004668AE434D68EF06FF0F97403743476018
:10D9C0000D79AD07AD0F032D25D0C568019E2E4002
:10D9D0008D68A5403543C5600D79AD07AD0F022DAB
:10D9E00019D1D508AD0045192E6A039697001C265B
:10D9F0003E406F463E70039EB446029F6E463678A8
:10DA0000B7406646BE43B4460F696E463678B740A7
:10DA1000664637432F6207680326019D3D404F68E5
:10DA20003740BC4627006446BC402C4304604C6829
:10DA3000350425409ED0694C9508AD0064190094CA
:10DA4000009C2468D70018253D40029FAF40BC438E
:10DA5000A027FF05B84201D1002664E7604FB84215
:10DA600001D101265FE75F4FB84201D102265AE794
:10DA70005D4FB84200D052E755E7FFBDF0B585B025
:10DA80000200554800900491002348E0052703E078
:10DA90004F4DAA42FAD10427BC46DF0018253D406D
:10DAA0006746AF40BE421AD1039EF543009E3668DA
:10DAB0002E40009F3E60009E76682E40009F7E6054
:10DAC000444E76682E40434F7E603E463668354071
:10DAD0003E463560019D2D68A543019C25600324C9
:10DAE0005D00AC4001941468019D25431560DC087D
:10DAF000A4001419256A9F001C263E400F27B7403A
:10DB0000BD432562019DEC439568254095605568AD
:10DB1000029EB5435560D5682C40D4605B1C049CC4
:10DB2000DC402BD001249C400294049C029D2540A3
:10DB30000395039C002CF1D0284C9D08AD0064197E
:10DB40000194019C26680F24DD0018272F40BC405B
:10DB50002640A025ED05AA4201D100279CE7204DD3
:10DB6000AA4201D1012797E71E4DAA4201D10227FF
:10DB700092E71D4DAA428BD103278DE705B0F0BD7A
:10DB80000069084000D00120C0B27047002A01D0CF
:10DB9000816170478162704742690B0013401B042A
:10DBA000914319438161704770B5040025000F4E01
:10DBB0003068284003D035602000FFF7FEFD706814
:10DBC000284003D075602000FFF7FEFD70BD000007
:10DBD00000100050001802408018024060180240F7
:10DBE0000004005000080050000C00500C180240C7
:10DBF00010B5C20018231340FF249C40E24389075C
:10DC0000090E9940030004D41F489B089B00C018CC
:10DC100006E01E4B0007000F083880088000181827
:10DC200003681A401143016010BD80B5FFF7E0FFA3
:10DC300001BD0000010005D40121C006C00E8140D5
:10DC4000134801607047010009D40121C006C00ECD
:10DC5000814010480160BFF34F8FBFF36F8F704753
:10DC600010B5401E80214904884201D3012010BD17
:10DC7000094C606003210020C043FFF7B9FF00207A
:10DC8000A0600721216010BD00E400E01CED00E071
:10DC900000E100E080E100E010E000E030B50100CC
:10DCA00084310A78012A01D1022030BD01220A7094
:10DCB00024224A600268136814680125AC4314608A
:10DCC00000224266224C1C4000680460202048600C
:10DCD0000A70002030BD70B5040025008435287816
:10DCE000012801D1022070BD012028702420686025
:10DCF00020680668026801239A43026020688268EF
:10DD0000D200D208114317E070B504002500843515
:10DD10002878012801D1022070BD0120287024201C
:10DD2000686020680668026801239A4302602068E0
:10DD30008268084B134019438160200000F00CF802
:10DD400020680660202068600020287070BD0000F8
:10DD5000FFFFFFDFFFFFFFF1F8B50400606E002852
:10DD600002D10120012517E0206881680901490FCF
:10DD700000918068410F00BF0CA600BF09A7785C26
:10DD8000C000715CFFF784F905000098385CC000A2
:10DD90000099715CFFF77CF9210068314D800880A3
:10DDA000F1BD0000010101030701000008040204A5
:10DDB00008010101431C0178401C0942FBD1C01A33
:10DDC000704770B50D78002D11D00C0004E0491C8F
:10DDD0000E78964207D0401C290002F03DFB002837
:10DDE00005D0010023005B1C1A78002AEFD170BD1A
:10DDF00084460870000A4870000A8870000AC870DB
:10DE00006046704770B5060000240F4D2978002940
:10DE100016D0FA208000FFF74FF901000B48006888
:10DE2000FFF74AF9FFF71CFF002809D1042E07D29B
:10DE3000002231000020C043FFF7F7FEAE6000E093
:10DE40000124200070BD00BFE8050020F40500207B
:10DE5000704743007047FEE7002200BF094202D02E
:10DE6000491E4254FCD17047F8B588B0142103A86C
:10DE7000FFF7F2FF0126574801683143016001684E
:10DE8000314000910099022102680A430260026851
:10DE90001140009100994168314341604068304031
:10DEA00000900098002200210920FFF7BEFE092003
:10DEB000FFF7C0FE68460021002200230EC0464C3A
:10DEC00046482060300560600025A560E560802040
:10DED00000062061082767612583A676E6616562F2
:10DEE000A5622C2166542563072060633C2165549C
:10DEF000E564200002F0CDFA002801D0FFF706FD0E
:10DF00003748009001966946200002F02DFC002859
:10DF100001D0FFF7FBFC334800906946200002F077
:10DF200023FC002801D0FFF7F1FC2F480090694640
:10DF3000200002F019FC002801D0FFF7E7FC03974E
:10DF400004960595069503A92848FFF7E1FC2848A3
:10DF50000178AE220A4011211143017009B0F0BDD1
:10DF600080B5032223491C4802F0A4FB01BD70B513
:10DF70001F4CA568204E606880B202F0E7FD3100BA
:10DF800002F0F4FD02F04AFE2082A8B202F0DEFDAB
:10DF9000310002F0EBFD02F041FE608270BD80B501
:10DFA00013480178154A438A934202DB02230B434C
:10DFB00001E0FD230B4003700178038A934202DBEA
:10DFC00001220A4301E0FE220A400270FFF788FCAA
:10DFD00001BD0000341002409813002000240140CD
:10DFE000400000188000001C0001002000040050C8
:10DFF000BC150020C01500201283903FDC050000F6
:10E0000070B5050001D1012070BD28681449016078
:10E010001449016069684160A9688160FEF734FABB
:10E02000072406002868C16821400AD0FEF72CFAB0
:10E03000801B3228F6D32868C0682040F2D0032025
:10E0400070BDE96802698A4201D0016101E00649B8
:10E050000160002070BD0449006801600020704725
:10E06000CCCC000055550000AAAA000010B586B01F
:10E070001422002101A8FFF799F800F01CF80220F3
:10E0800055490A6802430A600968084000900098F0
:10E09000524C012220212000FFF778FD2020019022
:10E0A0000120029000200390049001A92000FFF7B6
:10E0B0002FFC06B010BD10B5494C4A4820604A48B4
:10E0C00060600020A0600121E16020616061A061CA
:10E0D000E0612062200002F0BFFD002801D0FFF7C0
:10E0E00015FC0021200003F069FC002801D0FFF797
:10E0F0000DFC0021200003F07EFC002801D0FFF77A
:10E1000005FC10BD12B583B0040000222021334865
:10E11000FFF73CFD022002F065F9FA208000029032
:10E120000120019003A8009002232200A0212C4886
:10E1300002F0F4FD002801D0FFF7E8FB052002F013
:10E1400051F900F042F81FBDF8B5002507000E0098
:10E15000140005E0715D781980B2FFF7D3FF6D1CE4
:10E16000A542F7DBF1BD1FB5040000206946087326
:10E1700000F02BF8FA20800002900120019003A803
:10E18000009002232200A021154802F0A9FE0028D9
:10E1900001D0FFF7BBFB6846007B04B010BD7FB524
:10E1A00004000D00160000F010F8FA208000029024
:10E1B0000196009502232200A021094802F090FE5A
:10E1C000002801D0FFF7A2FB7FBD80B501222021EE
:10E1D0000248FFF7DBFC01BD341002400004005090
:10E1E0001C15002000540040BC7D701010B5474C39
:10E1F0002000263002F07CF821002A31FFF7F8FDDC
:10E2000010BD010000D17047F0B5404CA18F091836
:10E21000A18722004732117853781B061B0C194343
:10E220002200473209181170090A5170A188081894
:10E23000A08037480225374EFA218900A28F8A42F2
:10E2400016DB230043331A785F783F063F0C3A43CE
:10E2500023004333521C1A70120A5A70A28F521AAA
:10E26000F37A2B43F37293B2834200DB0022A2873E
:10E27000230047331A785F783F063F0C3A438A42BF
:10E2800022DB4E22A25A521C4E23E2522300473375
:10E290001A785F783F063F0C3A4323004733521AFF
:10E2A0001A70120A5A70F27A2A43F2722300473324
:10E2B0001A785F783F063F0C3A43824204DB200025
:10E2C0004730002202704270A08888421CDB200088
:10E2D000263002F00DF821002631401CFFF788FDA2
:10E2E000A088FA218900401AA080F07A0543F572CF
:10E2F0002000263001F0FCFF0749884204D32100AA
:10E3000026310020FFF774FDF0BD0000301300201F
:10E31000102700000000002080969800F8B5664F96
:10E320006648386000247C60BC60FC600120387462
:10E330007874BC74082078611020B8610C20F861F2
:10E3400003203862012078620420B8620521F96256
:10E35000386301207863BC63FC63380003F074FB0E
:10E36000002801D0FFF7D2FA554800210170C1758D
:10E370000176417641830177032141773323C454E9
:10E380003423C4543723C454048701228277C477CA
:10E3900004842223C4542623C4542723C45428238A
:10E3A000C4542E23C4542F23C4543023C45444874C
:10E3B00084874223C452434A5485948506004836D4
:10E3C00034807471F480B460F46034823E4DEC7239
:10E3D000687A4006400E68722C73687B2C220240DB
:10E3E0006A73A87BFE220240AA7331758020C005A3
:10E3F0006863AC63E9630120286434486864344886
:10E40000A86429003431380003F01AFC002801D038
:10E41000FFF77CFA6C630120A863EC632864C020DA
:10E42000800468648220C000A86429003431380068
:10E4300003F006FC002801D0FFF768FA380003F06B
:10E440003FFC002801D0FFF761FA002201213800CB
:10E4500003F03CFD002801D0FFF758FA1D48286161
:10E460006C61AC610820E8612C626C62AC62EC62A9
:10E470002C637475B475F1BDC90700D4704780B5BD
:10E48000114B1A004C32402103F08AFC002801D0C5
:10E49000FFF73CFA00F020F801BD80B50A49086199
:10E4A0000A0074321031044803F020FC002801D027
:10E4B000FFF72CFA01BD0000FC13002000640040AF
:10E4C0002412002010160020B4120020A7FF111003
:10E4D000A7FF281009040000F0B585B0D84C60797A
:10E4E00000022179084369468880A378E078000219
:10E4F0001843488022786078000210430880E07852
:10E500000490607802900393607BCE4D29004831DF
:10E51000E66CC027FF00F61B30D0761E63D0CA4FD2
:10E52000F61B00D159E1C94FF61B00D15BE1C84F82
:10E53000F61B75D0F0273F03F61B00D190E0C027F3
:10E54000BF02F61B00D1A4E080277F02F61B00D19A
:10E55000B9E0F61B00D1C8E07F00F61B00D1CDE08A
:10E560007F08F61B00D1E8E0FF00F61B00D1F7E0C2
:10E57000C027BF02F61B00D14AE15EE1002088758A
:10E580002F202A54607830216854607AF7210140A6
:10E590001807C20FD0000843EF2101409806C20FB0
:10E5A000100108436072E178227ABF231340CA0841
:10E5B00092011A435206520E0B09DB0113432372D8
:10E5C000FB230340C80982001A43627204200242FE
:10E5D00001D14807400FA877A079D8302E21685480
:10E5E000207B0121B9E00020887510026178084382
:10E5F00028842800313021790902627911430170A1
:10E60000090A4170A0790002E1790843A885288CA5
:10E610002121FEF751FD26216854207B02219CE038
:10E620004E7502980102100008430A21FEF730FDE2
:10E63000E875000A2876E0780102A07808430A21EC
:10E64000FEF726FD80B2FA218900884202DA01260F
:10E65000081A00E0401A6E766883207B04217CE073
:10E6600000204875A079217AEF220A40C107C90E1F
:10E670001143F7220A408107CB0FD9001143DF2253
:10E680000A404007C10F480110432072207B082137
:10E6900063E00020487502980102100008430A2137
:10E6A000FEF7F6FC332168540498010203980843EE
:10E6B0000A21FEF7EDFC37216854684680882887D8
:10E6C000207B102149E068460088688768464088BA
:10E6D000A88768468088E887E0790002A179084326
:10E6E00042216852207B202137E0694609887D4A13
:10E6F000518569464988918504219CE00020487530
:10E70000D8324A706078D8300870D8334B71E078CE
:10E71000D8308871C87BF9220240487803003C3B1E
:10E72000052B01D2022002E0412802DB0420104325
:10E730000200CA73207B40210FE0CA716078087222
:10E740004B72E07888722079C87260790873A0797A
:10E750004873E0798873207B8021014321736CE04A
:10E760006049D306DB0E0B7052094A709A00039B76
:10E770001D02029B2B439F04BF0C8D1C1606F60D39
:10E78000AF53521C6D462A709A0B049B9D00154393
:10E79000227993022B439A04920C8D1C6E46367894
:10E7A0007600AA536A461278521C9B0B65792D019C
:10E7B0001D43A3791B032B439F04BF0C8D1C16061E
:10E7C000F60DAF53891C521C1206D20D9B0BE57936
:10E7D000AD011D438D5208212DE0EA706178297149
:10E7E0006B71012127E0CB7B257A002A08D1042216
:10E7F0002A432272FE221A408B7C5B1C8B7404E03D
:10E80000FB222A40227201221A43CA73102112E00D
:10E81000032A0FD10F21E2780A40AA71227912014E
:10E8200063790B401343EB71A2791201E37919402C
:10E830001143297202210143617305B0F0BD00004C
:10E84000B412002024120020A6F90210FEA7000036
:10E8500002580E00F0B589B0234E707BC10730D549
:10E8600080072ED5214CE7780025182F24DB2100C6
:10E87000093104A803F05EFC207A0390E07902904D
:10E88000A07901906079009023793A000EA12000D0
:10E89000093003F057FCA5750E222100093104A8A8
:10E8A00003F070FC000408D00E22210009318620FC
:10E8B0004000FFF749FC00E06572707BFC210140DD
:10E8C000717309B0F0BD000032302530326425305C
:10E8D000326425303264257825303278253032781C
:10E8E0000000000010160020B412002024120020A6
:10E8F00038B586B001248148016821430160016870
:10E90000214000910099022102680A4302600068D8
:10E91000014000910098A025ED0500220B21280060
:10E92000FFF734F90B20019002940024039404941F
:10E9300001A92800FEF7ECFF04200190C420800309
:10E940000290039401A99348FEF7E2FF924D934889
:10E9500028180480847092490A78F72313400B70BA
:10E96000C4768483847788789F2202408A70FDF77A
:10E97000ABFF0122A91DA448FCF743FC2C80A91C75
:10E980000020FFF735FA07B030BDF8B507000025C5
:10E990000024FA23DB00C8220021082000F04FF8F1
:10E9A00000281CD10A21BD4801F056FD002816D0D0
:10E9B000401C00900D2101F04FFD0600009800283A
:10E9C0000DD035700098FFF7F5F90F2807D10099A1
:10E9D000380003F0AFFB01240D20307000E03D70E3
:10E9E0002000F2BDF8B5070000250024FA23DB0063
:10E9F000C82200212A2000F022F800281CD13A2148
:10EA0000A64801F029FD002816D0801C00900D2199
:10EA100001F022FD0600009800280DD03570009806
:10EA2000FFF7C8F9142807D10099380003F082FBDA
:10EA300001240D20307000E03D702000F2BD10B5C3
:10EA4000BE4C8000205800F005F810BD80B500F0E5
:10EA500001F802BDFDB50F00002600204E490880D8
:10EA6000A949FFF7C5F90524674DC8220099280078
:10EA7000FDF75AFF0122B2492800FCF7C2FBB14D55
:10EA80000299019800F01CF8002810D12E70AE48B1
:10EA9000B900405800F034F8022803D0032801D010
:10EAA000042802D16978491C6970040006E03A48DC
:10EAB0000088002802D12878401C28702000FEBD64
:10EAC000F8B506000024344F0D00B81C01F010FC0E
:10EAD000854200D20124FEF703FF3888022801DABC
:10EAE0002000F2D0200006D1FEF7FAFEB81C01F09B
:10EAF000FFFBB042F8D32000F2BD0000341002400A
:10EB0000F8B50100244C9148261800272000083051
:10EB1000FFF757F9002801D000252DE08A4DE9695B
:10EB200020000830FFF74DF9002816D003253A21C0
:10EB30002000083001F090FC00281DD0841C0D211D
:10EB4000200001F089FC0770200003F0DEFB0104C7
:10EB5000090E317070702800F2BDE96F2000083096
:10EB6000FFF72FF900280AD004253A2120000830A9
:10EB700001F072FC0028E1D137707770EBE7A969EA
:10EB800020000830FFF71DF9002801D00225F3E727
:10EB90000125F1E700040050780600203C08000041
:10EBA0005016002070B5FC25A54C00F02FF8002869
:10EBB00005D12078054002202843207017E000F09E
:10EBC00041F8012600F022F8002801D1207808E061
:10EBD00000F066F800F036F800F018F80028207809
:10EBE00003D105402E43267001E005402570012029
:10EBF00000F06EF8A078C10702D501F0F6FA70BDFA
:10EC0000FE210140A17070BD9011002038B59625FD
:10EC10006D00FA24A40023002A0000210120FFF740
:10EC20000EFF01000DD023002A0000210120FFF774
:10EC300006FF010005D023002A0000210120FFF774
:10EC4000FEFE32BD38B5FEF74BFEA024E4050122DE
:10EC500001212000FEF79AFFA84801F0C3FBFEF750
:10EC60003FFE002201212000FEF790FFA44C00206F
:10EC70002080A44DA875E875FEF732FEFA208000CA
:10EC800001F0B0FB20883C2807DAA87DE97D090661
:10EC9000090C08439C498842EEDB31BD8006002008
:10ECA00010B5A024E405012202212000FEF76EFF2A
:10ECB000E620400001F096FB002202212000FEF732
:10ECC00065FFFEF70DFEFA20C00001F08BFB10BDC2
:10ECD00018B58DB003001948026B8C49684603F0E3
:10ECE00031FA574C884B9622520000216846FFF7B4
:10ECF000ADFE0028207802D1FB21014001E008216F
:10ED0000014321700EB010BD7A0600201FB5089C8B
:10ED10000294079C01946C46247E00940AE01FB57F
:10ED2000089C0294079C01946C46247E0094034C3A
:10ED30008000205800F00CF804B010BD4004002002
:10ED40007E060020B40E00203C0500203F08000095
:10ED5000FFB581B000256A4F00203880B91CFFF74D
:10ED600047F80524B24EC82201993000FDF7DCFDBA
:10ED70000122B91D3000FCF744FA0C9B0B9A0AA83B
:10ED800001786846007B00F05DF8060009D13888FC
:10ED9000002830D1A74800900078401C00990870E6
:10EDA00029E0FEF79DFDA4497D54012E03D0022EDB
:10EDB00001D0032E41D16846007AA04C8000215832
:10EDC00038000830FEF7FDFF00906846007C8000A8
:10EDD000215838000830FEF7F4FF964E00990029BC
:10EDE00005D0002801D0062404E0072402E0002812
:10EDF00004D008247570200005B0F0BD072138004C
:10EE00000830FEF7DEFF002803D0032475786D1C60
:10EE1000F0E71F2138000830FEF7D3FF002801D0AB
:10EE20000424F3E7062138000830FEF7CAFF002863
:10EE300001D00224EAE70124DCE70124DBE700003B
:10EE400050160020F7B582B0002402251E00BD48F0
:10EE500001F04EFAB04201D301240025FEF740FD37
:10EE600027480088022801DA2000F0D0009626000A
:10EE70003006234C1DD120886946097A6A46127BE8
:10EE8000891888420ADB01260325049FFEF728FD26
:10EE9000A01C01F02DFAB842F8D30497FEF720FD2C
:10EEA000A01C01F025FA009988420CD23006E2D06D
:10EEB00009E0A01C01F01CFA0099814203D22088CD
:10EEC000022800DB0225280005B0F0BD80B51048FF
:10EED0000078032103220240012A02D001400229C6
:10EEE0000BD100F017F800F05AF800F013FA0120E7
:10EEF00000F06CFA012000F08DFA01BD340800002A
:10EF00007806002014000020409C00006CF50008EA
:10EF1000501600201FB5FA24A4000294C8200190C6
:10EF20000620009000231C220D212D20FFF7F7FE64
:10EF30002300C82200211120FFF781FD2300C822F1
:10EF400000210220FFF77BFD2300C822002138208A
:10EF5000FFF775FD2300C82200210320FFF76FFD96
:10EF60002300C82200211920FFF769FD2300C822D1
:10EF700000210420FFF763FD2300C8220C21142088
:10EF8000FFF75DFD2300C82200211220FFF757FD87
:10EF90002300C82200211620FFF751FD1FBD70B5C8
:10EFA00000F02DF8BB480078800627D50F25FA24FD
:10EFB000A40000F045F80600200001F013FA6D1ED1
:10EFC000032E01D0002DF4D1934DA91C0020FEF793
:10EFD0000FFF00F079F8002808D1200001F002FAB4
:10EFE000A81C01F085F9C2498842F2D300F0E3F889
:10EFF00000F014F9002801D100F054F970BD1FB5DC
:10F00000A44CBC480290962040000190062000903D
:10F0100000230E2201210520FFF781FE062820781B
:10F0200002D12021014301E0DF21014021701FBDF9
:10F0300090110020B40E00203C0800003C05002088
:10F04000FEB500260024FA208000029096204000A1
:10F0500001900620009000230A2205210920FFF7D5
:10F060005EFE06282BD16C4D3A212800083001F0B5
:10F07000F3F9A1496F1800281DD0801C00902C21A5
:10F0800001F0EAF905001DD02E70009803F03DF95B
:10F09000C1B2632904D0062901DC022400E0032464
:10F0A00038702C2028707B484178CF220A402101FB
:10F0B0001143417006E063203870012402E0052806
:10F0C00000D105242000FEBD7CB5002500240120D0
:10F0D00000F03AF80600FA2080000090012E01D0DE
:10F0E00001F080F96D1CFEF7FBFB012E09D0E8B2A0
:10F0F0005A28ECDB67480178BF220A4002702000E2
:10F1000076BD644D287840210143297000260220F5
:10F1100000F01AF8012807D0009801F063F9761C76
:10F12000F0B23C28F3DB08E0287880210143297005
:10F130000124032000F008F8E1E728784006400E9B
:10F140002870DCE77A0600201FB5002496225200C2
:10F15000AF4B012807D102930192062000900023B3
:10F160000A22032114E0022808D10293019206200A
:10F17000009000230A220421072009E0032809D176
:10F18000029301920620009000230A220F212E20D4
:10F19000FFF7C5FD06280BD12C21CD4801F05CF905
:10F1A000002805D04078312801D0352800D101242D
:10F1B000200004B010BD1FB54E48029096204000BC
:10F1C0000190062000900023282219212B20FFF710
:10F1D000A6FD062816D19C4C206FFFF791FC002855
:10F1E00001D104240EE0E06EFFF78AFC002801D173
:10F1F000032407E0A06EFFF783FC002801D102245E
:10F2000000E0002423484178F1220A4061000E23E7
:10F210000B40134343701FBD7806002010B590B01B
:10F220000123AC48826AAC4903A802F08BFFAB48CB
:10F2300002909620400001900620009000231522A5
:10F24000202103A8FFF762FD062819D1A4480090E9
:10F250000123A448026800BF0FA103A802F072FFB7
:10F260002B219B4801F0F8F8040009D003A8FEF711
:10F27000A1FDC2B2210003A803F062F8810101E000
:10F28000002100209D4A5378BF241C402143517027
:10F2900010B010BD5016002025732025642C2225A7
:10F2A00073222C0010B590B08D480090012389483E
:10F2B000826A00BF11A103A802F044FF8F4C874867
:10F2C0000290962040000190062000900023152215
:10F2D000202103A8FFF71AFD0628607802D14021FB
:10F2E000014301E0BF210140617010B010BD00007A
:10F2F000204E000088130000560800002573256486
:10F300002C312C222573222C22222C22222C300D4F
:10F310000000000080B5FA239B00962252000021D5
:10F320002820FFF78CFB00F001F801BDFEB5002599
:10F330000027884C2D268848029096204000019096
:10F340000620009000231E2215212720FFF7E7FC4E
:10F35000062834D122215E4801F07EF800282ED004
:10F3600032212170302161704178A1708178E17083
:10F370002671017961714179A171E571E671C179F7
:10F380002172017A6172A5722021A172817AE172E3
:10F39000C17A217365733A216173427BA273827BC8
:10F3A000E27325742174017C6174407CA074E5745F
:10F3B0005248417880220A434270012704E02670B7
:10F3C00039206070A070E5703800FEBD30B58DB09A
:10F3D00005002B003F48C26A64A1684602F0B2FEF5
:10F3E000464C3E4B9622520000216846FFF72EFB0A
:10F3F0000028207803D104210143217005E0FB217E
:10F40000014021702800FFF763FC0DB030BD000003
:10F41000282300001FB5394C304802909620400048
:10F420000190062000900023192210211A20FFF7D6
:10F4300076FC0628207802D10421014301E0FB215B
:10F44000014021701FBD00003C05002070B52B4C11
:10F450002078032503210140012902D028400228F9
:10F4600006D100F0C2FE0120FFF732FCFFF718FCC6
:10F470000426FEF735FA394800F0B4FF761EF8D1BD
:10F48000FFF790FB207803210140012902D00540BD
:10F49000022D14D1FFF71AFD00F0D6F8FFF7AFFDEB
:10F4A000FFF7CEFD0120FFF74FFE0220FFF74CFED5
:10F4B0000120FFF70DFC0120FFF788FF02E0082183
:10F4C00001432170264800210180817070BD000039
:10F4D00080060020400400206CF50008F04902007E
:10F4E000F2030020BC05002001B50023DB4301220C
:10F4F00069461D48FBF718FE01BD000050160020AC
:10F5000038B5194D040008E0694608700023DB4354
:10F5100001222800FBF708FE641C20780028F3D1A4
:10F5200031BDF8B500250F4E00900C00170003E028
:10F53000200000F057FF2D19BD4208D2009930007D
:10F540000830FEF73EFC0028F2D00120F2BD00207A
:10F55000F2BD0000B90E0020B80B0000C409000085
:10F56000B40E002078060020901100202573256439
:10F570000D00000038B586B00124A248016821437F
:10F5800001600068204000900098A025ED05002251
:10F5900020212800FEF7FAFA20200190029400248E
:10F5A0000394049401A92800FEF7B2F99648047068
:10F5B00044800471447420228454252284542F22D0
:10F5C0008454372284544E300470847107B030BDA7
:10F5D000E0B5FA20800002909620400001900620BD
:10F5E000009000230C2224213420FFF798FB0628EA
:10F5F0000BD13A21854800F02FFF002805D08078F4
:10F60000312802D10120012101E0002100207E4AA1
:10F6100011700EBD10B57C4CFA239B00010001282F
:10F6200008D1C82200213520FFF709FA00280AD1A5
:10F63000012007E0002806D1C8223720FFF7FFF994
:10F64000002800D1207010BD80B5FFF7C1FF002851
:10F6500002D10120FFF7DEFF01BDFEB5002769469C
:10F660000F70694CFA239B00C82200213620FFF757
:10F67000E6F9002800D092E0644A01212C2002F033
:10F680004BFE002816D0461C320001212C2002F02F
:10F6900043FE05000ED02F703100201D02F04AFD00
:10F6A0002C262E70681C0190024601212C2002F0AD
:10F6B00033FE050073D02F7001992000113002F045
:10F6C00039FD2E70681C0190024601212C2002F0A9
:10F6D00023FE050063D02F70019920004E3002F008
:10F6E00029FD2E70681C0190024601212C2002F099
:10F6F00013FE050053D02F7001992000253002F031
:10F7000019FD2E70681C0190024601212C2002F088
:10F7100003FE050043D02F70019920005A3002F0FB
:10F7200009FD2E70681C0190024601212C2002F078
:10F73000F3FD050033D02F70019920002F3002F027
:10F74000F9FC2E70681C0190024601212C2002F069
:10F75000E3FD050023D02F7001992000373002F01F
:10F76000E9FC2E706A1C02212C2002F0D5FD002835
:10F7700015D0461C320001210D2002F0CDFD050000
:10F780000DD02F7031002000203002F0D3FC0D206E
:10F79000287001206A461070E077A77002E0A07818
:10F7A000401CA07068460078E07768460078FEBD8F
:10F7B00010B5FFF752FF144CA07815280ADBFFF7AD
:10F7C00007FF002802D00020FFF724FFFFF73CFFCF
:10F7D0000020A07010BD0C494878012800DC70475B
:10F7E00080B500204870A020C005C97F012903D141
:10F7F0002021FEF7D1F901BD00222021FEF7C6F934
:10F8000001BD000034100240C0140020800600201A
:10F81000F8B5C4B005000E00FEF762F8A14C210057
:10F82000203108784A781206120C10432121FDF786
:10F8300043FC2621605421002C3108784A781206B6
:10F84000120C104301F082F9B44902F08CFD02F071
:10F85000DDFD02000B0000BF93A13CA802F072FC8A
:10F86000AF48A900415839A802F064FCAD4DE87FCB
:10F87000012801D1462000E04E2035A90870607EA5
:10F880000128A27EE07E04D10006000C0243B4A150
:10F8900003E00006000C0243BDA13AA802F052FCAE
:10F8A00035A8401C0670BB4E3100433108784A78B9
:10F8B0001206120C104300BF7BA701F047F99749CD
:10F8C00002F051FD02F0A2FD02000B00390041A838
:10F8D00002F038FC31004E3108784A781206120CDA
:10F8E000104301F033F98D4902F03DFD02F08EFD29
:10F8F00002000B0039003EA802F024FCA648C08993
:10F9000038A90880A5488178C2781206120C1143E4
:10F91000230038331A785F783F063F0C3A4337AB01
:10F920009B1C1A80230038331A785F783F063F0CFF
:10F930003A4337AB1A80230020331A785F783F06AA
:10F940003F0C3A4336AB9B1C1A80E37D227E1206A5
:10F95000120C134336AA138032005C3216785378A7
:10F960001B061B0C1E4335AA921C1680220049322E
:10F970008B4B8C4E3491C17ACF07FF0F3397002108
:10F98000329131913091117C2F91D17B2E91F17870
:10F990002D913021615C2C912F21615C2B91917B09
:10F9A0002A91517B2991117B2891D17A2791917AC3
:10F9B0002691517A2591117A2491D17923913EA9EA
:10F9C000229141A921917849209138A909881F9154
:10F9D000764949780907490F1E9131784907CE0FBA
:10F9E0001D9691791C9137A9891C09881B9137A90B
:10F9F00009881A913AA919913721615C189136A9A1
:10FA0000891C098817913CA91691A17F159129009D
:10FA10003731149135A9491C0978139139A91291EC
:10FA20004921615C11913321615C109136A90988EB
:10FA30000F912621615C0E912E21615C0D915C4934
:10FA40000978C906CA0F0C9200780B9035A8801C63
:10FA500000880A905748185C0990280020300890C8
:10FA600028004E30079028002F30069028002530BF
:10FA70000590280011300490281D039035A80078C7
:10FA800002904D48181801902000093000904B4B0F
:10FA90004B4A4C494C4802F055FBFDF721FF45B05D
:10FAA000F0BD00002412002025302E316600000039
:10FAB00070B53A4D2878454E01280BD1287030009A
:10FAC0007330047841780906090C0C43012000F0DA
:10FAD0002BF81AE0002818D13000753004784178EE
:10FAE0000906090C0C43012000F01EF8304800788C
:10FAF000C1070AD4800708D500202870300077306D
:10FB0000047841780906090C0C433149A4B2FA2063
:10FB100080006043FEF76CF970BD000000002041DA
:10FB200034040020C014002038B5214C2178402531
:10FB300000280BD1294208D0002208212548FEF7D1
:10FB400025F82078BF210140217031BD4807F3D549
:10FB50002942FAD100F006F820780543257031BD1E
:10FB60002D25640038B50A241A4D002208212800EA
:10FB7000FEF70CF8012000F035FC012208212800D6
:10FB8000FEF704F8012000F02DFC641EEDD131BD1C
:10FB90002564000030130020C01500200000002064
:10FBA00078060020BC1200201E0400205016002001
:10FBB000BC1500205608000041080000154001084F
:10FBC000E0030020743B0108080F002028400108D2
:10FBD0002C00002000040050F0B58BB0052206A9CF
:10FBE0000020FEF7DCFA944C06A8017811290BD10D
:10FBF0004178222908D18178332905D1C178442957
:10FC000002D1007955280AD000F093F80020A070A6
:10FC1000E0700222A11C8E204000FEF795FA874D6D
:10FC2000122229000520FEF7BAFA142229002431F5
:10FC30003520FEF7B4FA0622290038314920FEF7B4
:10FC4000AEFA3420FEF78FFA5321685411222900AE
:10FC500012311720FEF7A3FA152229003E31532056
:10FC6000FEF79DFAFF270C373800FEF77CFA0028D4
:10FC700000D00120FE26E17A31400843E072704D49
:10FC80000E2128000930FEF7E7F80E22290009317D
:10FC9000781CFEF784FA687A642803DAFF2801D01A
:10FCA000002806D10020687266484179FC220A408B
:10FCB00042713800FEF757FA002800D00120E17A9F
:10FCC0000E403043E072604DC5208000FEF74BFAD5
:10FCD0002870C0208000FEF746FA68705B4E05224F
:10FCE00001A93000FEF75BFA594D042201A9280052
:10FCF000593002F047FA000405D005222900593195
:10FD00003000FEF721FA082252498A204000FEF70F
:10FD100046FA022269468E204000FEF740FA684605
:10FD20000178090240780143A170090AE1700BB023
:10FD3000F0BD38B586B0122101A8FEF78DF8444C0D
:10FD4000052221006C310020FEF7FEF93B4D280012
:10FD5000FEF71BFE002804D0122229000520FEF722
:10FD6000F3F901A8FEF73EFE002804D0152201A9F0
:10FD70005320FEF7E9F91122210071311720FEF717
:10FD8000E3F91422210083313520FEF7DDF9062244
:10FD9000210097314920FEF7D7F90522210059317A
:10FDA0002A48FEF7D1F92000DF30017842781206A8
:10FDB000120C11436D46090A297001784278120627
:10FDC000120C11436970022269464F20FEF7BCF9FC
:10FDD0002000E130017842781206120C1143090A22
:10FDE0002970017842781206120C114369700222C0
:10FDF00069465120FEF7A8F9114C0E222100093165
:10FE000086204000FEF7A0F9002060720D4841797D
:10FE1000FC220A4042710121FF200C30FEF772F9EA
:10FE2000054800218170C1700222811C8E20400093
:10FE3000FEF78AF907B030BD00000020E003002083
:10FE400024120020BC1200204C16002002030000E7
:10FE5000BC3F010862130020F8B5A8B00700A94D07
:10FE6000A878C00701D5012060E000BF30A102A83A
:10FE700002F068F9A44E3300FA225200002102A8D1
:10FE8000FEF7E8FD002847D1A04C23002B332200C9
:10FE9000173200BF2CA102A802F054F93300FA2255
:10FEA0005200002102A8FEF7D5FD002834D1984A5F
:10FEB000FA2149002AA0FFF734FB002836D02000A1
:10FEC00041300190200031300090A64B28A29621AD
:10FED00002A802F0B5FA3300B94A002102A8FEF7E1
:10FEE000B9FD002818D10097FA24640032002100DF
:10FEF00027A0FFF716FB0700FDF7F2FC009A00BFF2
:10FF000027A102A802F01EF933002200002102A856
:10FF1000FEF7A0FD002801D0002007E0FDF7E0FC7F
:10FF2000A878FE2101403943A970380029B0F0BDFE
:10FF300041542B514D544346473D2253534C222CA0
:10FF4000302C300D0A00000041542B514D544F50BD
:10FF5000454E3D302C222573222C25730D000000C8
:10FF60002B514D544F50454E3A20302C300000005C
:10FF700041542B514D54434F4E4E3D302C2225734E
:10FF8000222C222573222C222573220D0A00000028
:10FF90002B514D54434F4E4E3A20302C302C3000D4
:10FFA00041542B514D545355423D302C312C222578
:10FFB00073222C300D00000010B5A0B002000C0020
:10FFC000A0A1684602F0BEF84F4BC822092168463E
:10FFD000FEF740FD002801D000200AE02000FFF7D6
:10FFE0008FFA1A20FFF780FA494AC8219CA0FFF730
:10FFF00098FA20B010BD434881788A0700D4704732
:020000040801F1
:1000000038B5FD220A4082703124834D2800083023
:1000100000F004F8641EF9D131BD000070B5A0B045
:10002000040000BF92A1FDF7CCFE002826D07F225D
:100030002100684602F02AFA002469467F228C5487
:1000400076A63100684602F033FA052503E0310058
:10005000002002F02DFA002810D06D1EF7D1050007
:100060002878222800D16D1C2221280000F0F4F904
:10007000002800D00470280000F002F820B070BD05
:10008000F1B582B01F4CA678042030436946087051
:10009000634DEF7A79A1029802F030FA002802D17C
:1000A0000120384308E000BF76A1029802F026FA4A
:1000B000002805D1FE203840E872684600780FE03D
:1000C00072A1029802F01AFA002801D1102006E06D
:1000D00072A1029802F012FA002803D108203043DE
:1000E000A070F7BD0023DB43112200BF6EA14D4875
:1000F000FBF71AF8F7BD80B54B494C48FFF75CFF9A
:1001000002BD000050160020B80B00002840010876
:1001100088130000F8B50124454A9078FB2303407A
:100120003F48C67AFF250C350E480427917839429E
:1001300008D0F10706D5937060A1FFF73DFF0400DA
:1001400001210AE0917839420AD0F10708D493706E
:100150005EA1FFF731FF040000212800FDF7D2FF68
:100160002000F2BDE0030020314881780A0700D466
:10017000704700B5C5B0F7220A4082702D48C37D94
:10018000017E0906090C0B432549C97ACA07D20F1B
:1001900004924E21415C03912E21415C0291372152
:1001A000415C01913321405C0090234ACD3105A888
:1001B00002F046F905A92148FFF7FEFE45B000BD53
:1001C000581B000001201A498A78D30600D47047D2
:1001D00080B5EF201040887000201949087000BFDA
:1001E0003EA11648FFF7E8FE02BD38B5FA25AD007E
:1001F0006C0023002A0029213D20FEF720FC23006B
:100200002A002A213E20FEF71AFC09488178FE22A6
:100210000A40827031BD0000780600202C000000EA
:1002200000000020FC100020080F00207D40010885
:10023000501600202412002078420108E00300201C
:100240004C16002041542B514D545055423D302CFA
:10025000302C302C312C222573220D0A0000000096
:100260002B514D545055423A20302C302C30000048
:100270002B514D54524543563A000000537461725D
:100280007400000053746F700000000052657365C5
:10029000745F465743686B446174650044696167E5
:1002A0006E6F736500000000556E6B6E6F776E2089
:1002B000636F6D6D616E640D0A000000564548491C
:1002C000434C4520535441525445440056454849F7
:1002D000434C452053544F505045440046572063EB
:1002E0006865636B65642064617465203D2030003F
:1002F000C3788278417800781B021A4309021204FD
:10030000084310437047FEE710B5FFF70FF80028C9
:1003100048D026490020FDF76BFD254801780A01E9
:100320004178D0311143204CE1702278CBB2934216
:1003300038D0C3781B010079D0301843A070C0B208
:10034000801E022801D3002A2CD11A480078C0064A
:1003500028D5194840788006800F032822D11748F5
:10036000007800281ED12170012060700121C0207A
:100370008000FDF7C7FE2178C5208000FDF7C2FE92
:1003800012A10F48FFF718FEFFF72FFF642000F0BF
:1003900029F8BFF34F8F0B480B490860BFF34F8F0D
:1003A00000BFFDE710BD00004C1600202600002015
:1003B000C10E0020BC1500205016002000000020B7
:1003C000E00300200400FA050CED00E053746172B4
:1003D00074696E6720464F5441207570646174657E
:1003E0000000000038B50500FCF74EF804000020BE
:1003F000C043854202D0044800782D18FCF744F829
:10040000001BA842FAD331BDE805002010B50E4C00
:1004100021680E4A0A4002432260610D884210D1D1
:100420000B480068062148430A49FCF745FE401C7A
:1004300000E0401E6169490503D50028F9D1032079
:1004400010BD002010BD000000700040FFF9FFFF4C
:10045000F405002040420F00C9B202788A4203D05E
:10046000401C002AF9D100207047FEE710B5042394
:100470001940436907248C40A3438A401A434261D0
:1004800010BDC068C02109010140481E8041C00F55
:100490007047FEB50500002600200090002D01D118
:1004A0000120FEBD2C0054346068002805D12800CE
:1004B000FBF742FE0020A060207028688168C90018
:1004C00014D48168724A0A40802149051143816031
:1004D000704800687049FCF7EFFD401C400001E0E7
:1004E0000098401E009000980028F9D1296888687B
:1004F0001027C00007D4606838436060A0680122FC
:100500000243A2600126886862683A4000D0B9E0E0
:10051000400700D5B6E06068604A02400220104300
:1005200060608868C00772D4286B002801D03A0246
:1005300000E000222869002802D54000400800E0C1
:1005400078040190A87E6B461870AB68287E800303
:1005500018436B7EDB03034368460078400318436F
:100560000243E8681043019A02432C20285C4000B3
:1005700010432022AA5C012A0FD16A461278002A71
:1005800003D102003803104307E0626820231343BD
:100590006360A26801231343A3606A6A002A05D03E
:1005A000E0235B0013400343A86A1843CA683C4B2E
:1005B00013401843C8606868810F8907E86C0843D6
:1005C0003C21695C012907D1296C0143686C08430F
:1005D000A96C01430120084329680A69314B134083
:1005E000184308616868C021090688420FD0494253
:1005F00088420CD080210906884208D02A490B681D
:100600002A4A1A40F0239B03034013430B606A6B92
:1006100000212868FFF72AFFAA6B25492868FFF701
:1006200025FF29690F20C043002904D129688A6A5F
:10063000104388620CE07A04914209D129688A6AE1
:10064000EA69521E5207D20E9040E26802438A6263
:10065000286841690220C0434907490F6A6B9142EB
:1006600007D10021A1606168084001210143616058
:100670000CE061680840074367600126A0683043CA
:10068000A06003E060680743676001263000FEBD9C
:10069000E8FFFF7FF4050020400D0300FFFEFFFF91
:1006A0000102DEFF02FCFF1F08270140FFFFC3FF1E
:1006B00004FFFF07F3B581B00400160021688A68C3
:1006C000042702203A4043D15422A25C012A3FD0A1
:1006D000012254256255204DCB6813400AD18B6806
:1006E000134003D08B682B40184388602068C16892
:1006F0000A43C260200000F081F9010028D1009671
:10070000029A200054304168124B0B40B901194342
:10071000416000218160114B266DF362104B266D04
:100720003363104B266D73631C232668336001709E
:100730002068416810230B434360009B21684031CF
:10074000206DFBF707FF21688A6815402F438F60F3
:10075000FEBD0000FEF1FFFFE8FFFF7F930A0108E6
:10076000290B0108330B0108F1B585B000206A465A
:100770005070019005985422805C012801D102201C
:1007800021E105985430029001250570059806680E
:10079000B068400700D509E1019105980069039010
:1007A0000198406804908949894A8A4880231B0639
:1007B000049C022C039C00D1CEE09C4201D08442D8
:1007C00007D101980068B46A4003400B2043B0622F
:1007D00080E0019800680F24470302D14000C50E55
:1007E00047E0284244D1870743D40425284201D05A
:1007F00002253EE0070701D503253AE0C70638D4B5
:10080000850601D5052534E0450601D5062530E0ED
:10081000050601D507252CE0C50501D5082528E0EA
:10082000850501D5092524E0450501D50A2520E0E7
:10083000050501D50B251CE0C50401D50C2518E0E4
:10084000850401D50D2514E0450401D50E2510E0E1
:10085000050401D50F250CE0C50301D5102508E0DE
:10086000850301D5112504E0400301D5122500E0E0
:1008700000250498C006C00E6F4638700298C768FD
:10088000BC46684607780F20B840674687436846ED
:10089000007885403D430298C56001984068059DF9
:1008A000ED6987087F1CBD4214D3019D2D68C006E9
:1008B000C00E6F463870B76ABC46684607780F208E
:1008C000B84067468743A80E0440684600788440D5
:1008D0003C43B46201988068019C2568059C2468AB
:1008E0002D026669AE4328403B4D054035436561A6
:1008F00001980468234061D01368C8431840374BFF
:100900009C4217D180231B04184257D11468214000
:10091000084303431360324800683249FCF7CCFBBC
:10092000401C0C21484301900198002846D00198B2
:10093000401EF8E72C4B9C4202D180235B0404E06C
:100940002A4B9C423AD18023DB03184236D11468EB
:1009500021400843034327E09C4201D0844206D152
:1009600001980068B46A4003400B8443B462019864
:100970000468234022D01368C8431840174B9C4298
:1009800003D1136819401A4B0CE0174B9C4203D15A
:1009900013681940174B05E0144B9C420ED11368A5
:1009A0001940154B03400B43136007E00298406861
:1009B0002021014302984160684645700020029959
:1009C00008706846407806B0F0BD0000FFFF3FFEAB
:1009D000082701400400008000FFFF07001000B05E
:1009E000F4050020400D0300004000B8002000B4D2
:1009F000FFFF7FFFFFFFFFFEFFFFBFFFF8B5050012
:100A00000020009028688168012421403FD11027F0
:100A10008168414A0A4032D181683E4A0A402243F5
:100A200082603E48006800020CD53D4800683D49A0
:100A3000FCF742FB401C01E00098401E009000982B
:100A40000028F9D1687E012821D0FBF71DFD0600A2
:100A50002868006820401AD128688068204005D1A5
:100A6000286881682B4A0A4022438260FBF70CFD0C
:100A7000801B0328ECD3286800682040E8D1A86DCB
:100A80000743AF65E86D0443EC650120F2BD00202B
:100A9000F2BD10B5846AA16D50220A402CD1A06D20
:100AA000802189000143A1652068FFF7EAFC002846
:100AB0001ED0A07E00281BD120680068000717D533
:100AC00020688168012049070BD4216849680C22FD
