:020000040800F2
:10B00000901A0020A9460108053E0108093E0108E2
:10B010000000000000000000000000000000000030
:10B02000000000000000000000000000153E0108C4
:10B030000000000000000000173E0108193E010852
:10B0400033DD0008DBE800080FF0000863040108A6
:10B05000C7130108BB160108A93E0108B33E010849
:10B06000BF160108BD3E0108AB1E01088B34010864
:10B07000B33601084F3F010847410108BB430108AF
:10B08000C7430108E9490108EB490108ED490108F6
:10B09000EF490108C73E0108D13E0108DB3E010827
:10B0A000F1490108F3490108F5490108F73E010893
:10B0B000F7490108013F0108F949010838B586B090
:10B0C0000124814801682143016001682140009109
:10B0D0000099022102680A43026000680140009161
:10B0E0000098A025ED0500220B21280001F062F94F
:10B0F0000B200190029400240394049401A92800D9
:10B1000001F01AF804200190C420800302900394F7
:10B1100001A9934801F010F8924D93482818048033
:10B12000847092490A78F72313400B70C4768483A5
:10B130008477C878FC220240CA7001F07FF90122AE
:10B14000A91DA24801F0B7FA2C80A91C002002F02A
:10B1500035FA07B030BDF8B5070000250024FA2302
:10B16000DB00C8220021082000F04FF800281CD185
:10B170000A21BB4802F02CFA002816D0401C00908F
:10B180000D2102F025FA0600009800280DD0357038
:10B19000009802F02BFA0F2807D10099380002F02E
:10B1A0002DFA01240D20307000E03D702000F2BD2A
:10B1B000F8B5070000250024FA23DB00C82200218F
:10B1C0002A2000F022F800281CD13A21A44802F0DD
:10B1D000FFF9002816D0801C00900D2102F0F8F92C
:10B1E0000600009800280DD03570009802F0FEF996
:10B1F000142807D10099380002F000FA01240D202C
:10B20000307000E03D702000F2BD10B5BC4C8000F5
:10B21000205800F005F810BD80B500F001F802BD1F
:10B22000FDB50F00002600204E490880A74902F016
:10B23000C5F90524654DC8220099280001F02EF9B2
:10B240000122B049280001F036FAAF4D0299019869
:10B2500000F01CF8002810D12E70AC48B9004058FE
:10B2600000F034F8022803D0032801D0042802D1CA
:10B270006978491C6970040006E03A480088002893
:10B2800002D12878401C28702000FEBDF8B50600C9
:10B290000024344F0D00B81C02F0B8F9854200D2EA
:10B2A000012402F0FFFB3888022801DA2000F2D0E6
:10B2B000200006D102F0F6FBB81C02F0A7F9B0425C
:10B2C000F8D32000F2BD000034100240F8B50100B0
:10B2D000244C8F48261800272000083002F004FC78
:10B2E000002801D000252DE0884DE96920000830B4
:10B2F00002F0FAFB002816D003253A21200008307E
:10B3000002F066F900281DD0841C0D21200002F0F7
:10B310005FF90770200002F0AAFC0104090E3170E9
:10B3200070702800F2BDE96F2000083002F0DCFBED
:10B3300000280AD004253A212000083002F048F9FC
:10B340000028E1D137707770EBE7A9692000083059
:10B3500002F0CAFB002801D00225F3E70125F1E73E
:10B3600000040050580600203C080000841600200D
:10B3700070B5FC24C54D00F02BF8002805D12878C5
:10B38000044002202043287017E000F03DF8012619
:10B3900000F01EF8002801D1287808E000F062F8DB
:10B3A00000F032F800F014F80028287803D10440A7
:10B3B00026432E7001E004402C70012000F06AF852
:10B3C000A878002801D000F069FD70BD7011002040
:10B3D00038B596256D00FA24A40023002A00002128
:10B3E0000120FFF712FF01000DD023002A000021E9
:10B3F0000120FFF70AFF010005D023002A000021E9
:10B400000120FFF702FF32BD38B502F04BFBA0244C
:10B41000E40501220121200000F0CCFFA84802F041
:10B420002DFC02F03FFB00220121200000F0C2FFB2
:10B43000A44C00202080A44DA875E87502F032FBD2
:10B44000FA20800002F01AFC20883C2807DAA87D48
:10B45000E97D0906090C08439C498842EEDB31BDB1
:10B460006006002010B5A024E4050122022120007E
:10B4700000F0A0FFE620400002F000FC00220221C4
:10B48000200000F097FF02F00DFBFA20C00002F050
:10B49000F5FB10BD18B58DB003001948026B8C493F
:10B4A000684602F0FFFB794C884B9622520000213F
:10B4B0006846FFF7B1FE0028207802D1FB21014049
:10B4C00001E00821014321700EB010BD5A06002092
:10B4D0001FB5089C0294079C01946C46247E00943E
:10B4E0000AE01FB5089C0294079C01946C46247ED8
:10B4F0000094034C8000205800F00CF804B010BDFC
:10B50000EC0300205E060020940E0020E8040020DA
:10B510003F080000FFB581B000256A4F0020388049
:10B52000B91C02F04BF80524B24EC8220199300034
:10B5300000F0B4FF0122B91D300001F0BCF80C9BF3
:10B540000B9A0AA801786846007B00F05AF80600BA
:10B5500009D13888002830D1A74800900078401CD5
:10B560000099087029E002F09DFAA4497D54012E4B
:10B5700003D0022E01D0032E41D16846007AA04CA0
:10B58000800021583800083002F0AEFA009068467A
:10B59000007C800021583800083002F0A5FA964E51
:10B5A0000099002905D0002801D0062404E00724D2
:10B5B00002E0002804D008247570200005B0F0BD1A
:10B5C00007213800083002F08FFA002803D0032446
:10B5D00075786D1CF0E71F213800083002F084FAFE
:10B5E000002801D00424F3E706213800083002F0D7
:10B5F0007BFA002801D00224EAE70124DCE70124D9
:10B60000DBE7F7B582B0002402251E00BE4801F03A
:10B61000FDFFB04201D30124002502F043FA29487E
:10B620000088022801DA2000F0D0009626003006BB
:10B63000244C1DD120886946097A6A46127B8918F4
:10B6400088420ADB01260325049F02F02BFAA01C86
:10B6500001F0DCFFB842F8D3049702F023FAA01CF3
:10B6600001F0D4FF009988420CD23006E2D009E004
:10B67000A01C01F0CBFF0099814203D22088022850
:10B6800000DB0225280005B0F0BD00008416002074
:10B6900080B510480078032103220240012A02D01D
:10B6A000014002290BD100F017F800F05AF800F021
:10B6B00013FA012000F06EFA012000F08CFA01BDAF
:10B6C000340800005806002014000020409C0000B0
:10B6D00028C10008841600201FB5FA24A400029493
:10B6E000C82001900620009000231C220D212D204F
:10B6F000FFF7F7FE2300C82200211120FFF785FD88
:10B700002300C82200210220FFF77FFD2300C8226A
:10B7100000213820FFF779FD2300C82200210320F3
:10B72000FFF773FD2300C82200211920FFF76DFDEC
:10B730002300C82200210420FFF767FD2300C82250
:10B740000C211420FFF761FD2300C82200211220E4
:10B75000FFF75BFD2300C82200211620FFF755FDEF
:10B760001FBD70B500F02DF8BB480078800627D5C6
:10B770000F25FA24A40000F045F80600200002F08E
:10B780007DFA6D1E032E01D0002DF4D1934DA91C1E
:10B79000002001F013FF00F079F8002808D1200004
:10B7A00002F06CFAA81C01F031FFC2498842F2D3C2
:10B7B00000F0E3F800F014F9002801D100F054F98A
:10B7C00070BD1FB5A44CBC4802909620400001906B
:10B7D0000620009000230E2201210520FFF781FEA4
:10B7E0000628207802D12021014301E0DF21014019
:10B7F00021701FBD70110020940E00203C08000035
:10B80000E8040020FEB500260024FA208000029003
:10B810009620400001900620009000230A22052176
:10B820000920FFF75EFE06282BD16C4D3A21280037
:10B83000083001F0CDFEA1496F1800281DD0801CF2
:10B8400000902C2101F0C4FE05001DD02E70009840
:10B8500002F00DFAC1B2632904D0062901DC0224EA
:10B8600000E0032438702C2028707B484178CF22D8
:10B870000A4021011143417006E063203870012421
:10B8800002E0052800D105242000FEBD7CB500257E
:10B890000024012000F03AF80600FA208000009011
:10B8A000012E01D002F0EAF96D1C02F0FBF8012E26
:10B8B00009D0E8B25A28ECDB67480178BF220A4079
:10B8C0000270200076BD644D287840210143297024
:10B8D0000026022000F01AF8012807D0009802F094
:10B8E000CDF9761CF0B23C28F3DB08E02878802103
:10B8F000014329700124032000F008F8E1E72878CB
:10B900004006400E2870DCE75A0600201FB50024D0
:10B91000962252009E4B012807D1029301920620E5
:10B92000009000230A22032114E0022808D1029388
:10B9300001920620009000230A220421072009E03A
:10B94000032809D1029301920620009000230A22C5
:10B950000F212E20FFF7C5FD06280BD12C21CC4846
:10B9600001F036FE002805D04078312801D0352876
:10B9700000D10124200004B010BD1FB54E48029034
:10B9800096204000019006200090002328221921D3
:10B990002B20FFF7A6FD062816D19B4C206FFFF742
:10B9A00095FC002801D104240EE0E06EFFF78EFC28
:10B9B000002801D1032407E0A06EFFF787FC0028D0
:10B9C00001D1022400E0002423484178F1220A40FA
:10B9D00061000E230B40134343701FBD5806002027
:10B9E00010B590B00123AB48826AAB4903A802F0BE
:10B9F00059F9AA4802909620400001900620009034
:10BA000000231522202103A8FFF762FD062819D183
:10BA1000A34800900123A348026800BF0FA103A818
:10BA200002F040F92B219A4801F0D2FD040009D020
:10BA300003A801F0DBFDC2B2210003A802F066F901
:10BA4000810101E0002100209C4A5378BF241C4062
:10BA50002143517010B010BD84160020257320259D
:10BA6000642C222573222C0010B590B08C480090D5
:10BA700001238848826A00BF11A103A802F012F9CD
:10BA80008E4C86480290962040000190062000903F
:10BA900000231522202103A8FFF71AFD062860784D
:10BAA00002D14021014301E0BF210140617010B08B
:10BAB00010BD0000204E0000881300005608000052
:10BAC000257325642C312C222573222C22222C2232
:10BAD000222C300D0000000080B5FA239B00962236
:10BAE000520000212820FFF790FB00F001F801BD73
:10BAF000FEB500250027834C2D2683480290962012
:10BB0000400001900620009000231E2215212720CE
:10BB1000FFF7E7FC062834D122215D4801F058FDEB
:10BB200000282ED032212170302161704178A1701F
:10BB30008178E1702671017961714179A171E571B6
:10BB4000E671C1792172017A6172A5722021A17218
:10BB5000817AE172C17A217365733A216173427B04
:10BB6000A273827BE27325742174017C6174407C32
:10BB7000A074E5745148417880220A43427001273D
:10BB800004E0267039206070A070E5703800FEBDBA
:10BB90002823000030B58DB005002B003D48C26A57
:10BBA0003D49684602F07EF8444C3C4B96225200D8
:10BBB00000216846FFF730FB0028207803D10421DC
:10BBC0000143217005E0FB21014021702800FFF7AF
:10BBD00061FC0DB030BD1FB5384C30480290962046
:10BBE00040000190062000900023192210211A2005
:10BBF000FFF777FC0628207802D10421014301E0F9
:10BC0000FB21014021701FBDE804002070B52B4CC2
:10BC10002078032503210140012902D02840022871
:10BC200006D100F03BF90120FFF734FCFFF71AFCC6
:10BC3000042601F037FF8A4802F020F8761EF8D17A
:10BC4000FFF796FB207803210140012902D005402F
:10BC5000022D14D1FFF71CFD02F0D6F8FFF7B1FD5D
:10BC6000FFF7D0FD0120FFF751FE0220FFF74EFE47
:10BC70000120FFF70FFC0120FFF78CFF02E00821F5
:10BC8000014321708F4800210180817070BD000048
:10BC900060060020EC03002028C10008F0490200E3
:10BCA0000E1500206805002001B50023DB430122AA
:10BCB0006946BB4800F092FC01BD000084160020DC
:10BCC00010B5040002E0FFF7EFFF641C20780028A5
:10BCD000F9D110BDF8B500257B4E00900C0017007F
:10BCE00003E0200001F0CAFF2D19BD4208D20099DF
:10BCF0003000083001F0F8FE0028F2D00120F2BD3B
:10BD00000020F2BD990E0020B80B0000F8B5A8B0D5
:10BD1000A44DA878002801D0012047E024A102A862
:10BD200001F0C0FFFA277F009F4E33003A00002148
:10BD300002A8FFF775FA00282BD19C4C23002B3367
:10BD40002200173220A102A801F0ACFF33003A0014
:10BD5000002102A8FFF764FA00281AD1944A39009A
:10BD60001FA0FFF7B7FF002820D02000413001902E
:10BD7000200031300090BD4B1DA2962102A802F098
:10BD800027F93300C54A002102A8FFF749FA002825
:10BD900001D000200AE03200390000BF1CA0FFF7EC
:10BDA00099FF040001F07EFEAC70200029B0F0BDC8
:10BDB00041542B514D544346473D2253534C222C62
:10BDC000302C300D0A00000041542B514D544F507F
:10BDD000454E3D302C222573222C25730D0000008A
:10BDE0002B514D544F50454E3A20302C300000001E
:10BDF00041542B514D54434F4E4E3D302C22257310
:10BE0000222C222573222C222573220D0A000000E9
:10BE10002B514D54434F4E4E3A20302C302C300095
:10BE200010B5A0B002000C000EA1684601F03AFF68
:10BE30005D4BC82209216846FFF7F2F9002801D0BE
:10BE400000200AE02000FFF73BFF1A20FFF72CFF3D
:10BE5000574AC8210AA0FFF73DFF20B010BD0000DF
:10BE6000C409000041542B514D545055423D302CD3
:10BE7000302C302C312C222573220D0A00000000BA
:10BE80002B514D545055423A20302C302C3000006C
:10BE900080B59B499B48FFF7C3FF02BD38B5FA2523
:10BEA000AD006C0023002A0029213D20FFF7ADF9E9
:10BEB00023002A002A213E20FFF7A7F90020394954
:10BEC000887031BD940E002058060020E0B5FA209D
:10BED00080000290962040000190062000900023F0
:10BEE0001C220D211520FFF7FCFA062803D10120A2
:10BEF00000F01AF80EBD00200EBDE0B5FA2080005B
:10BF000002909620400001900620009000231C2201
:10BF10000D212D20FFF7E5FA062803D1022000F0BD
:10BF200003F80EBD00200EBDF1B582B03A2176486F
:10BF300001F04EFB0025002821D0801C00902C2110
:10BF400001F046FB07001AD03D70009801F08FFE0B
:10BF500004002C203870200611D00120694608709A
:10BF6000781C01902C2101F033FB070007D03D70B5
:10BF7000019801F07CFE06002C20387001E0684634
:10BF800005706846007A6149012802D18C70CE7034
:10BF900003E0022801D10C704E7068460078FEBDA7
:10BFA0007011002084160020B80B0000CC3F01085F
:10BFB00088130000F8B59CB003005548C26D00BF5F
:10BFC00059A103A801F06EFEFA208000029096208D
:10BFD000400001900620009000235A220E2103A861
:10BFE000FFF776FA062801D007283CD1494C2C21CE
:10BFF0002000083001F0ECFA002811D0801C0090DD
:10C00000222101F0E5FA07000AD000263E70222521
:10C01000009801F0EBFAC0B2801F122802D33D70E5
:10C02000032021E000993C48201801F0E7FA3D7018
:10C030000A21380001F0CCFA0028F1D0401C009011
:10C040000D2101F0C5FA0700EAD03E70009801F01A
:10C05000CDFA1B28E4D200993048201801F0CEFA1E
:10C060003D70012000E004201DB0F0BDFC14002054
:10C0700000B58DB003002648026E00BF2AA16846B5
:10C0800001F010FE264B9622520000216846FFF771
:10C09000C3F8401E8041C00F0DB000BD581B00000A
:10C0A000F8B5B0B003000D00002400271848C26C9A
:10C0B0001FA103A801F0F6FD96267600FA239B0047
:10C0C0003200092103A8FFF7A7F8002815D128009E
:10C0D00001F08CFAC0B21A21295428184470114872
:10C0E0000290019606200090162308220B212800BA
:10C0F000FFF7EEF9062800D10127380031B0F0BD76
:10C10000E80E00202140010860060020AF0E00204C
:10C11000EC030020580600205B08000074080000B3
:10C12000B80B0000F0490200257325640D000000E3
:10C130002573222573220D00FFB500220F230293E1
:10C140002DE0052603E0AC4EB042FAD10426AE4005
:10C150002643009C2660A94C2568DC4325404E6898
:10C16000F60200D51D43A54E3560756825404F6821
:10C17000BF0200D51D437560A14D6E6826404D6815
:10C18000AD0300D51E439E4D6E602E6834404E6850
:10C19000F60302D526001C0034432C60521C0B68A9
:10C1A0001C00D4407DD0012595402B40F6D0540092
:10C1B0000327A740FE4301964E68B707BF0F012F24
:10C1C00003D0B607B60F022E0ED18768019E3E40FF
:10C1D000CF68A740374387604668AE434D68EF0697
:10C1E000FF0F9740374347600D79AD07AD0F032D23
:10C1F00025D0C568019E2E408D68A5403543C56099
:10C200000D79AD07AD0F022D19D1D508AD00451937
:10C210002E6A039697001C263E406F463E70039E92
:10C22000B446029F6E463678B7406646BE43B44673
:10C230000F696E463678B740664637432F62076807
:10C240000326019D3D404F683740BC4627006446A9
:10C25000BC402C4304604C68350425409ED0694C9A
:10C260009508AD0064190094009C2468D700182537
:10C270003D40029FAF40BC43A027FF05B84201D11B
:10C28000002664E7604FB84201D101265FE75F4FA7
:10C29000B84201D102265AE75D4FB84200D052E7BA
:10C2A00055E7FFBDF0B585B00200554800900491F8
:10C2B000002348E0052703E04F4DAA42FAD10427A6
:10C2C000BC46DF0018253D406746AF40BE421AD14C
:10C2D000039EF543009E36682E40009F3E60009E00
:10C2E00076682E40009F7E60444E76682E40434F15
:10C2F0007E603E46366835403E463560019D2D687D
:10C30000A543019C256003245D00AC4001941468A2
:10C31000019D25431560DC08A4001419256A9F00BF
:10C320001C263E400F27B740BD432562019DEC43CC
:10C330009568254095605568029EB5435560D5685F
:10C340002C40D4605B1C049CDC402BD001249C401E
:10C350000294049C029D25400395039C002CF1D07F
:10C36000284C9D08AD0064190194019C26680F2497
:10C37000DD0018272F40BC402640A025ED05AA422D
:10C3800001D100279CE7204DAA4201D1012797E760
:10C390001E4DAA4201D1022792E71D4DAA428BD120
:10C3A00003278DE705B0F0BD0069084000D00120EB
:10C3B000C0B27047002A01D0816170478162704726
:10C3C00042690B0013401B0491431943816170477C
:10C3D00070B5040025000F4E3068284003D035604A
:10C3E000200001F0D1FA7068284003D07560200069
:10C3F00001F0D1FA70BD000000100050001802409A
:10C4000080180240601802400004005000080050EC
:10C41000000C00500C18024010B54E4C4E482060E5
:10C42000E120400260600020A060E06020610C21FB
:10C430006161A061E061206260620FE010B5474C6D
:10C4400047482060E120400260600020A060E0607A
:10C4500020610C216161A061E0612062A062200086
:10C4600000F086F8002801D001F034FB0021200004
:10C4700001F0F1FD002801D001F02CFB002120008B
:10C4800001F002FE002801D001F024FB200001F0A1
:10C49000C5FD002801D001F01DFB10BDF8B5050059
:10C4A0000F001600380001F0A1F804003300A2B21A
:10C4B0003900280000F092F8002801D001F00AFBB2
:10C4C00028484481F1BD00682549884200D0704762
:10C4D00010B5254C217860780006000C01432348F4
:10C4E00081421BDA207861780906090C0843A1799A
:10C4F000220008321154207861780906090C08439B
:10C50000401C2070000A6070207861780906090CD0
:10C510000843002122000832115402E02070082054
:10C520006070A11C002001F049F80122A11D0B48F8
:10C5300000F0C1F810BD10B5084CA04208D1012090
:10C5400021680862200001F082FF200001F00EFF48
:10C5500010BD0000DC1000200038014070110020E8
:10C5600000480040741600205806002033080000E0
:10C5700038B5040001D1012032BD2500843568683A
:10C58000002803D12870200001F0F0FE242068600C
:10C5900020680168012291430160A06A002802D04E
:10C5A000200000F095FB200000F04AFA012811D08D
:10C5B00020684168084A0A404260206881682A224F
:10C5C000914381602068016801220A4302602000D3
:10C5D00000F0E8FB32BD0000FFB7FFFFF1B584B00B
:10C5E0001F0006465436706B202861D10C000FD016
:10C5F00068460280002A0BD0049880688021490197
:10C60000884207D104980069002803D1E00701D5CA
:10C6100001204EE00025F5632120706301F04AFF00
:10C6200001006846008830806846008870803A00C3
:10C630000498806880235B01984209D104980069BE
:10C64000002805D12500049F0192029104001AE000
:10C650002000F8E721788162641C11E001980090C5
:10C66000029B00228021380000F006FC00281BD12C
:10C670003868002CEED12988C905C90D8162AD1C2E
:10C680007088401E708070880028E7D13800029BB7
:10C69000019900910022402100F0EEFB002803D117
:10C6A00020207063002004E020207063032000E05D
:10C6B000022005B0F0BD70B58C23C358202B2BD1C0
:10C6C00000290BD0130009D0836880246401A342A1
:10C6D00006D10369002B03D1CB0701D5012070BD22
:10C6E0000023C36603680D4CA34212D00C4CA34236
:10C6F0000FD05B681B020CD5EFF31083012484F389
:10C700001088046825688026F6042E43266083F38B
:10C71000108800F002FC70BD022070BD0080004057
:10C7200000840040FEB504002368D86919460968F2
:10C730009A6825005C3520260E400096202606408B
:10C7400001960026B74F07400ED1019F002F10D051
:10C75000009F002F02D1D70000D487E0A9690029EB
:10C7600001D020008847F7BDAF4F174002D1AF4F2F
:10C770000F407BD0C70706D5CF0504D501271F6220
:10C780006B6B1F436F63830708D5D30706D502235E
:10C7900027683B626B6B04271F436F6304231842B7
:10C7A00007D0D70705D527683B626B6B02271F436D
:10C7B0006F63082318420AD0009F002F02D19A4FBE
:10C7C000174004D027683B626F6B3B436B63802349
:10C7D0001B01184007D0480105D520680362686B2B
:10C7E000202101436963686B002835D00198002837
:10C7F00009D00098002801D1D00004D5A9690029EA
:10C8000001D020008847686B40272168896839403B
:10C8100002D12821014024D0200000F015FC20681E
:10C820008068074019D0EFF31080012181F3108850
:10C8300021688A6840239A438A6080F31088686A76
:10C8400000280AD07A498163686A01F01BFF00283A
:10C8500002D0686A816B8847F7BD2000FFF76BFE46
:10C86000F7BD2000FFF767FE6E63F7BD2F69012F4C
:10C8700000D094E01027384200D0394200D18EE039
:10C880001F621020C0432168896849064BD5696A38
:10C890000A68526892B2002AE7D05C23E35A9A42AF
:10C8A000E3DA6A8009680968890634D4EFF31081F5
:10C8B000012282F31088226813685E4F1F401760C0
:10C8C00081F31088EFF31081012282F3108822682F
:10C8D00093680127BB43936081F31088EFF31081C5
:10C8E000012282F31088226893684027BB4393603B
:10C8F00081F31088202129632E61EFF3108101223A
:10C9000082F31088226813681840106081F3108841
:10C91000686A01F07CFE022068615C20205A698808
:10C92000411A89B237E05C21615A6A88891A6A46DD
:10C9300011806988002973D06946098800296FD061
:10C94000EFF31081012282F31088226813683A4FB6
:10C950001F40176081F31088EFF31081012282F3EA
:10C96000108822689368354F1F40976081F31088C4
:10C97000202129632E61AE61EFF31081012282F341
:10C980001088226813681840106081F31088022014
:10C99000686168460188200001F09AFFF7BDC70270
:10C9A00008D5570206D5802040031862200001F008
:10C9B00090FFF7BD80231B048027384209D00F4029
:10C9C00001D11A4005D0E969002929D02000884703
:10C9D000F7BD4022104214D00A4012D0EFF310806D
:10C9E000012181F3108821680A6840239A430A6074
:10C9F00080F310882020E862EE61200001F06AFFD9
:10CA0000F7BD034005D04A0003D5200001F063FFC5
:10CA1000F7BDC00104D5002902D5200001F05CFF5C
:10CA2000F7BD00000F080000010000102001000405
:10CA3000C5D00008FFFEFFFFDFFEFFFFFEFFFFEF98
:10CA4000F8B5050000242B68186891490140A868D2
:10CA500008432969014368690843E969014319608A
:10CA600058688C490140E86808435860A8698A49B9
:10CA70008B4205D089498B4202D00100286A0843C5
:10CA80009968874A0A4010439860D86A0F21884302
:10CA9000696A0143D962834880210902824E1022CB
:10CAA000824FBB422ED13668B607B60F30D0022E69
:10CAB00036D044D3032E31D0774EB34202D0774ED6
:10CAC000B34242D1002A08D0022A0BD0042A00D156
:10CAD00092E0082A00D192E0CEE002F005FA0028A8
:10CAE00000D1CAE072496A6A5200895A02F036FAE5
:10CAF0006A6851008918884203D31103814200D328
:10CB00007FE0B9E06B4FBB420CD136680C27374051
:10CB100070D0042F13D0082F02D00C2F56D0CBE7A3
:10CB20000222C9E79C4FBB420BD136683027374001
:10CB300060D0102F03D0202FF2D0302FEEE7042248
:10CB4000BAE7964FBB4229D10022954F5AA6EB690E
:10CB50008B426AD1002A06D0022A08D0042A5FD06C
:10CB6000082A60D088E002F0BFF9002869D069681F
:10CB70000091696A4900715A02F0F0F94000009989
:10CB800049084018009902F0E9F901001039B9424A
:10CB900072D207400007400F384365E0AD4FBB42FB
:10CBA000D2D0AD4FBB42CFD03B4FBB4210D1376844
:10CBB000C02636013E401DD04F09BE42BFD00F09EE
:10CBC000BE42ADD0C0273F01BE4200D1082273E76C
:10CBD000324FBB42B9D13768C026B6003E4009D0BB
:10CBE000CF09BE42ABD08F09BE4299D0C027BF004B
:10CBF000BE4293E700225FE702F032F96FE70800D8
:10CC000070E7070E060250080021801979410023C1
:10CC100002F0BFF991494118914A91422CD223E088
:10CC200002F01EF9A1E70800A1E7002A06D0022AB7
:10CC300008D0042A1BD0082A1CD01DE002F054F9A9
:10CC400000281AD069680091696A4900715A02F097
:10CC500085F9009949084018009902F07FF9010010
:10CC60001039B94208D280B22968C86005E002F0E4
:10CC7000F7F8E5E70800E5E701242800683001211E
:10CC8000418001800021C16001612000F2BD0000EF
:10CC9000F369FFCFFFCFFFFF00800040008400401A
:10CCA000FFF4FF110024F40054100240003801404A
:10CCB000B8CC000800440040010002000400060057
:10CCC00008000A000C001000200040008000000155
:10CCD0002821415C090706D501684A68614B134069
:10CCE000826B1A434A602821415CC90706D5016856
:10CCF0004A685D4B1340C26A1A434A602821415C6E
:10CD0000890706D501684A68584B1340026B1A43DD
:10CD10004A602821415C490706D501684A68544B9E
:10CD20001340426B1A434A602821415CC90606D56C
:10CD300001688A684F4B1340C26B1A438A602821EE
:10CD4000415C890606D501688A68B94B1340026CBC
:10CD50001A438A602821415C490611D501684A6856
:10CD6000B44B1340426C1A434A60426C80235B030D
:10CD70009A4205D14A68B04B1340826C1A434A600C
:10CD80002821415C090606D501684A68AB4B13406F
:10CD9000C06C18434860704700480040004C004099
:10CDA000F0FF0000FEB50600370084370024FC6069
:10CDB00001F080FB0190202530680068000717D53E
:10CDC0009F480090019B00222904300000F054F895
:10CDD00000280DD0EFF31080012181F31088316815
:10CDE0000A6880239A430A6080F310887D6026E0F9
:10CDF00030680068400725D591480090019B0022CB
:10CE00006904300000F038F800281BD0EFF31080E0
:10CE1000012181F3108831680A688A4B13400B6046
:10CE200080F31088EFF31080012181F310883168BE
:10CE30008A6801239A438A6080F31088BD603C7041
:10CE40000320FEBD7D60BD60F46634673C70002049
:10CE5000FEBD000000500040003C014000FDFFFF0F
:10CE600000FD0F00FF7FFFFFFFFFFDFFFFFFFEFF45
:10CE7000FFFFFBFFFFEFFFFFFEB580273F01082408
:10CE80000025060001916846027002933068C0696F
:10CE9000019901400198814201D1012000E0002068
:10CEA00069460978884236D108980021C9438842EA
:10CEB000ECD001F0FFFA0299401A0899814201D39F
:10CEC000002901D10320FEBD306800684007DDD590
:10CED00001988028DAD04028D8D03068C069204036
:10CEE000306803D1C0693840D0D009E00462300016
:10CEF00000F0AAF830008430C46005700120FEBD47
:10CF000030680762300000F09FF830008430202144
:10CF1000C1600570D6E70020FEBDF4B58165010053
:10CF20005C316A4612880A806A4612884A80002468
:10CF30008C61876880225205FF25130C9F4204D123
:10CF40000669002E10D1584D0EE07F26002F03D128
:10CF50000769002F05D107E0974207D10569002D29
:10CF600001D18E8003E03F258D8000E08C804C63F2
:10CF700022240C63EFF31084012585F310880568E3
:10CF8000AE6801273743AF6084F310888C68550082
:10CF9000AC4228D16C4624888D89AC4223D3846866
:10CFA0009C4205D10369002B02D1404B8B6110E0FC
:10CFB0003F4B8B61016900290BD0EFF310810123F6
:10CFC00083F3108803681C68150D25431D6081F3E9
:10CFD0001088EFF31081012383F3108800688368C1
:10CFE0001A43826011E082689A4212D10269002AD3
:10CFF0000FD1304A8A61EFF31081012282F3108849
:10D000000068026820231343036081F31088002026
:10D01000F2BD294A8A6101690029ECD0EFF3108141
:10D02000012282F310880068026890235B00EAE71F
:10D03000FFDFFFFFFFFFEFFFFFFF9FFFFFFFF7FF98
:10D04000FFFFFF01DFFEFFFF10B5EFF310810122AC
:10D0500082F3108802681368184C1C40146081F336
:10D060001088EFF31081012282F310880268936820
:10D07000134C1C40946081F31088C16E01290BD1C0
:10D08000EFF31081012282F31088026813681024E4
:10D09000A343136081F3108820218C22815000214A
:10D0A000C166416710BD0000FF010000F5D3000814
:10D0B0005BD2000881D10008D9D00008DFFEFFFF55
:10D0C000FEFFFFEF80B5806A0100563100220A8121
:10D0D0000A80FFF730FA01BD70B501005C310268CB
:10D0E0000B6B222B47D1526A8B881340826D1370D1
:10D0F000826D521C82654A88521E4A804A88002AE4
:10D100003DD1EFF31082012383F3108803681C687C
:10D11000B44D25401D6082F31088EFF31082012387
:10D1200083F3108803689C680125AC439C6082F3FC
:10D13000108820220A6300228A614A610368AA4C8F
:10D14000A34211D0A94CA3420ED05B681B020BD5A1
:10D15000EFF31083012484F3108804682568A44E3B
:10D160002E40266083F310880B69012B00D15CE010
:10D17000FFF7A9F970BD906908210143916170BD65
:10D1800070B501005C3102680B6B222B47D1526AEB
:10D190008B881340826D1380826D921C82654A8851
:10D1A000521E4A804A88002A3DD1EFF310820123A3
:10D1B00083F3108803681C688A4D25401D6082F344
:10D1C0001088EFF31082012383F3108803689C68B2
:10D1D0000125AC439C6082F3108820220A63002260
:10D1E0008A614A610368804CA34211D07F4CA342FC
:10D1F0000ED05B681B020BD5EFF31083012484F380
:10D200001088046825687A4E2E40266083F31088C3
:10D210000B69012B00D108E0FFF755F970BD90694B
:10D2200008210143916170BD00000A61EFF3108194
:10D23000012282F31088026813681024A34313604C
:10D2400081F3108801681022CB69134000D00A6274
:10D250005C21415A01F03CFB70BDFEB505005C3518
:10D26000AB880468E76921460968A2682D6B222D06
:10D2700000D0B1E005005C35AC89002C06D004007C
:10D2800002930191009200261BE0200001005C3116
:10D290004A88002A00D1A3E08B899A4200DB9FE0F4
:10D2A000EFF31082012383F3108803689C68B44D68
:10D2B00025409D6082F31088B24A71E12000FFF79B
:10D2C00002F9B806E1D52068406A02990140A06DD4
:10D2D0000170A06D401CA0656888401E68802068B1
:10D2E000C769790727D0F90707D50199C90504D57A
:10D2F00001210162686B014369630420B90708D505
:10D300000099C90705D5022122681162696B0143A2
:10D310006963074208D00099C90705D521680862EA
:10D32000686B022101436963686B002803D0200009
:10D33000FFF701F96E6368880028C2D1EFF310800F
:10D34000012181F3108821680A688F4B13400B601C
:10D3500080F31088EFF31080012181F31088216899
:10D360008A688A4B13408B6080F3108820202863E2
:10D37000AE616E6120681C49884211D01B49884209
:10D380000ED0406800020BD5EFF31080012181F32D
:10D39000108821680A68164B13400B6080F31088D0
:10D3A000286901288AD12E61EFF31080012181F3D1
:10D3B000108821680A6810239A430A6080F3108855
:10D3C0002068C169C90601D5102101625C20215A7B
:10D3D000200001F07DFA74E7A06908210143A161F2
:10D3E000F7BD0000DFFEFFFF00800040008400402A
:10D3F000FFFFFFFBFEB505005C35AB880468E769FD
:10D4000021460968A2682D6B222D00D0B2E00500EC
:10D410005C35AC89002C07D004006846038002917B
:10D42000019200261BE0200001005C314A88002A9E
:10D4300000D1A3E08B899A4200DB9FE0EFF31082DA
:10D44000012383F3108803689C684D4D25409D603F
:10D4500082F310884E4AA3E02000FFF734F8B806A4
:10D46000E1D52068406A694609880140A06D0180C5
:10D47000A06D801CA0656888401E68802068C76910
:10D48000790726D0F90707D50299C90504D50121E6
:10D490000162686B01436963042002210F4207D0D7
:10D4A000019AD20704D5226811626A6B02436A634B
:10D4B000074207D0019AD20704D522681062686B30
:10D4C00001436963686B002803D02000FFF733F83D
:10D4D0006E6368880028C2D1EFF31080012181F3C8
:10D4E000108821680A68284B13400B6080F310886D
:10D4F000EFF31080012181F3108821688A68234BA3
:10D5000013408B6080F3108820202863AE616E6129
:10D5100020682049884211D01F4988420ED04068B7
:10D5200000020BD5EFF31080012181F310882168F0
:10D530000A681A4B13400B6080F310882869012891
:10D540008AD12E61EFF31080012181F310882168C8
:10D550000A6810239A430A6080F310882068C16922
:10D56000C90601D5102101625C20215A200001F07A
:10D57000AFF974E7A06908210143A161F7BD00007C
:10D58000FFFFFFEFD9D00008FFFEFFFFFEFFFFEF18
:10D5900081D100080080004000840040FFFFFFFBB5
:10D5A0008A61EFF31081012282F31088006802681B
:10D5B00020231343036081F31088F7BD844608706D
:10D5C000000A4870000A8870000AC87060467047F8
:10D5D000C9B202788A4203D0401C002AF9D1002047
:10D5E00070470268531C036011707047431C017838
:10D5F000401C0942FBD1C01A70473E000023DB43A8
:10D600005B1CCA5C002AC254FAD17047C378827886
:10D61000417800781B021A430902120408431043A0
:10D6200070472E00F8B586B001F0F2FC00F0FEF96C
:10D63000142101A801F00CFD0124B4480168214324
:10D6400001600168214000910099022102680A43AB
:10D6500002600068014000910098A027FF050022A9
:10D66000E1033800FEF7A6FEE003019002940026D5
:10D670000396049601A93800FEF75EFD1020019084
:10D68000C42080030290039601A9A148FEF754FD2F
:10D6900000220021062001F000FD062001F002FD1D
:10D6A00000220021072001F0F8FC072001F0FAFC1D
:10D6B0000122D1033800FEF77DFEBA4CA68201F0AC
:10D6C00025FDB048E06404202065B748A06560658A
:10D6D00020004C3001F0E6FD00F0E4F9FEF79CFE7E
:10D6E00001F016FE01F0D4FE01F06AFFFDF7E6FC42
:10D6F00000F020FB00F0D6F902F0F6FBFDF738FE53
:10D7000000F082FB02F02AFC01F07CFD00F0CAF977
:10D71000FDF7BEFF01F095FD012002F0C7FBA34D10
:10D72000002028706870A91CFFF748FF00F06AF914
:10D7300002F080FB6670E06A206321001A3100204D
:10D74000FFF73CFF210016310020FFF737FF2100D3
:10D750001E310020FFF732FFA94828180090AF4D76
:10D7600000F0A0F902F00AF802F0C6F900F04AF958
:10D7700000F07AF820002230FFF748FFFF216831DF
:10D7800088420CD3210022310020FFF717FFA44864
:10D79000007801F088FE00F035F901F052FD20001C
:10D7A0001A30FFF733FF9F49884207D321001A310F
:10D7B0000020FFF703FF012002F078FB2000163065
:10D7C000FFF724FF984988421BD32100163100201F
:10D7D000FFF7F4FE287881060DD5009989780B298A
:10D7E00009DA009909780B2905DA410603D5010603
:10D7F00001D5000705D5FEF709FA2878F721014081
:10D80000297020001E30FFF701FFA94988420AD382
:10D8100021001E310020FFF7D1FE00F07BF802F05E
:10D82000E9FC02F0F3FC20002630FFF7EFFEA149EF
:10D8300088420DD3210026310020FFF7BFFE02F001
:10D8400069FDFA235B000D22A3A19B48FEF7C6FEEB
:10D85000A08AC92805DB802109023800FEF7B0FD47
:10D86000A68200F098FB7BE710B56C480078032196
:10D8700003220240012A02D00140022942D1494C30
:10D88000206BE16A884234D300F00CF9FDF7BAFF4F
:10D8900000F06EFBFEF72CF9FEF76FF800F0B2F81F
:10D8A000E121890020005C3001F0D2FB207C21784E
:10D8B00081420FD0012803D1002908D1022104E0C0
:10D8C000002804D1012902D1012002F063F9207857
:10D8D000207403E00021002002F05CF900F068F8F9
:10D8E000012802D16088401C60800020206302F083
:10D8F000A1FA20786178884201D002F09BFA02F008
:10D9000099FA10BDFDF734FD10BD0000341002403F
:10D910000004005070B500208025ED000324674905
:10D92000204AD37ADB071AD41278012A16D1644B25
:10D930001A785E783606360C32430FD1087048707C
:10D940008870C870087148718871C871280001F02A
:10D95000F6FE642000F092F9641EF7D170BD10222B
:10D960000A7048708870C870087148718871C871F1
:10D97000280001F0E4FE642000F080F9641EF7D175
:10D9800070BD000000300040102800D0704780B506
:10D9900000F038F801BD102802D100204949087074
:10D9A0007047000000000020FF0F00005806002014
:10D9B000F8B500270025434CFEF7A8F90600012E14
:10D9C00002D1FEF765FA06006D1C002E01D1FEF7AC
:10D9D00065FA20004C3001F090FC002E03D1E8B233
:10D9E0000228E9DD0AE0012E08D1374807704770A8
:10D9F00087706088401C608002F01CFA3000F2BD25
:10DA00003C08000080B510213048FEF7CDFC00280E
:10DA100000D001202B49087001BD000084160020B1
:10DA20002A120020514600003175000030B593B035
:10DA30003C2104A801F00CFB6846002100220023D1
:10DA400000241EC08020800002F0C8FC0A20049040
:10DA5000F630079008944020099001200A90022592
:10DA60000C950D950E9408200F90C020C0021090C8
:10DA7000280611900001129004A800F02FFF072043
:10DA800000900195029403940221684601F03AF94E
:10DA900001F027FAFA21890001F060FA01F018FB81
:10DAA00013B030BD80B50A4801F027FC01BD00006D
:10DAB000983A0000B80B0000DC100020081300208A
:10DAC0002412002000000020940E002000040050CA
:10DAD0004C000020704700004F5441206E6F7420AE
:10DAE000646F6E650A00000070B50D78002D11D0CE
:10DAF0000C0004E0491C0E78964207D0401C290017
:10DB0000FFF766FD002805D0010023005B1C1A7892
:10DB1000002AEFD170BD4300FCB587B00C001500A2
:10DB2000002B01D0002119600390064600E0761C0E
:10DB3000307802F079FC0028F9D1300001782D29E5
:10DB400001D02B2903D16A461170401C02E02B2121
:10DB50006A4611700194002D03D4012D01D0252DAA
:10DB600004DB002C54D00398206051E0002D0ADD26
:10DB7000102D16D10178302913D1417820220A4383
:10DB8000782A0ED10AE00178302901D00A2508E070
:10DB9000417820220A43782A02D11025801C00E017
:10DBA0000825069000E0401C01783029FBD00024B5
:10DBB00005902B4A7A44A83228326B465A70029557
:10DBC000049F05000494264E7E44943608E0049495
:10DBD00069464978471AFFB202984443E4196D1C1C
:10DBE000287802F02AFC029A01003000283002F066
:10DBF0002DFC0028EBD1029938002F00049D069AD5
:10DC0000BA4207D10198002802D003980199086010
:10DC1000002022E0059ABA1A735CD21A002A11D4A5
:10DC200005DC201A03D301F099F9A8420AD000BFFD
:10DC300000BF0898002802D001200899086000243D
:10DC4000E44305E0684600782D2801D160420400D5
:10DC50000198002800D00760200009B0F0BD00BF87
:10DC6000E864000080B50023FFF756FF02BD80B5D1
:10DC7000FFE70A220021FFF7F5FF02BD38B50500D6
:10DC800000F018FC04000020C043854202D0044884
:10DC900000782D1800F00EFC001BA842FAD331BD0D
:10DCA000C80500200CB418B583B004000A0006A80B
:10DCB000029001940020009002AB01A9084878442A
:10DCC0001E3002F0D3FB0021019A1170002801D40C
:10DCD0000198001B04B0019910BC03B0084700BFB5
:10DCE00003F9FFFFF8B50025002307000E0014001C
:10DCF0003900DBB2E018FFF76BFC002805D06D1C83
:10DD0000031B5B1CE9B2B142F2D1F2BDD0B50124D4
:10DD1000002607E0012404E0845D8F5DBC42F9D059
:10DD20000024761C964201DA2700F5D12000D0BDF0
:10DD30000000FEE738B586B00124A24801682143FF
:10DD400001600068204000900098A025ED050022A9
:10DD500020212800FEF72EFB2020019002940024B1
:10DD60000394049401A92800FEF7E6F9964804708C
:10DD700044800471447420228454252284542F2228
:10DD80008454372284544E300470847107B030BDFF
:10DD9000E0B5FA2080000290962040000190062015
:10DDA000009000230C2224213420FDF79AFB062842
:10DDB0000BD13A218548FFF70BFC002805D080786D
:10DDC000312802D10120012101E0002100207E4AFA
:10DDD00011700EBD10B57C4CFA239B000100012888
:10DDE00008D1C82200213520FDF70FFA00280AD1FA
:10DDF000012007E0002806D1C8223720FDF705FAE8
:10DE0000002800D1207010BD80B5FFF7C1FF0028A9
:10DE100002D10120FFF7DEFF01BDFEB500276946F4
:10DE20000F70694CFA239B00C82200213620FDF7B1
:10DE3000ECF9002800D092E0644A01212C20FFF781
:10DE400051FF002816D0461C320001212C20FFF77C
:10DE500049FF05000ED02F703100201DFFF7CEFBCB
:10DE60002C262E70681C0190024601212C20FFF701
:10DE700039FF050073D02F70019920001130FFF792
:10DE8000BDFB2E70681C0190024601212C20FFF77B
:10DE900029FF050063D02F70019920004E30FFF755
:10DEA000ADFB2E70681C0190024601212C20FFF76B
:10DEB00019FF050053D02F70019920002530FFF77E
:10DEC0009DFB2E70681C0190024601212C20FFF75B
:10DED00009FF050043D02F70019920005A30FFF749
:10DEE0008DFB2E70681C0190024601212C20FFF74B
:10DEF000F9FE050033D02F70019920002F30FFF775
:10DF00007DFB2E70681C0190024601212C20FFF73A
:10DF1000E9FE050023D02F70019920003730FFF76C
:10DF20006DFB2E706A1C02212C20FFF7DBFE0028FF
:10DF300015D0461C320001210D20FFF7D3FE05004D
:10DF40000DD02F70310020002030FFF757FB0D203F
:10DF5000287001206A461070E077A77002E0A07870
:10DF6000401CA07068460078E07768460078FEBDE7
:10DF700010B5FFF752FF144CA07815280ADBFFF705
:10DF800007FF002802D00020FFF724FFFFF73CFF27
:10DF90000020A07010BD0C494878012800DC7047B3
:10DFA00080B500204870A020C005C97F012903D199
:10DFB0002021FEF705FA01BD00222021FEF7FAF923
:10DFC00001BD000034100240A014002060060020B3
:10DFD00008B410B585B007AB04930024039400295E
:10DFE00002D10194029402E00190491E0291009432
:10DFF00004AB01A9084878441E3002F037FA0199B1
:10E00000002900D00C70002800D4039805B00199B5
:10E0100010BC02B0084700BF2164000030B5010009
:10E0200084310A78012A01D1022030BD01220A7010
:10E0300024224A600268136814680125AC43146006
:10E0400000224266224C1C40006804602020486088
:10E050000A70002030BD70B5040025008435287892
:10E06000012801D1022070BD0120287024206860A1
:10E0700020680668026801239A430260206882686B
:10E08000D200D208114317E070B504002500843592
:10E090002878012801D1022070BD01202870242099
:10E0A000686020680668026801239A43026020685D
:10E0B0008268084B134019438160200000F00CF87F
:10E0C00020680660202068600020287070BD000075
:10E0D000FFFFFFDFFFFFFFF1F8B50400606E0028CF
:10E0E00002D10120012517E0206881680901490F4C
:10E0F00000918068410F00BF0CA600BF09A7785CA3
:10E10000C000715C00F016FF05000098385CC0008C
:10E110000099715C00F00EFF210068314D8008808D
:10E12000F1BD000001010103070100000804020421
:10E130000801010180B58748012142680A43426015
:10E1400042681140009100998021490502680A4304
:10E15000026000680140009100988020800000F07B
:10E1600069FF01BDF0B599B007001422002101A894
:10E1700003F01FF94C22002106A803F01AF93868B1
:10E18000734988424FD18020C00106900024129428
:10E1900006A803F019F9002801D0FFF79BFC6E4890
:10E1A00080214903C2680A43C260C26811400091DD
:10E1B0000099012501682943016001682940009107
:10E1C0000099022102680A43026000680140009140
:10E1D0000098C020019003260296039401A9A02074
:10E1E000C005FDF7A9FF01950296039401A95B48BC
:10E1F000FDF7A2FF5A4D5B48286005206860AC60BF
:10E20000EC6080202861800068618000A861202087
:10E21000E8612C62280000F053F9002801D0FFF7D4
:10E2200059FC3D65AF6219B0F0BD18B599B0040056
:10E230001422002101A803F0BCF84C22002106A8FA
:10E2400003F0B7F82068484988423AD1802080041A
:10E2500006900024189406A803F0B6F8002801D010
:10E26000FFF738FC3C48810C82680A438260826870
:10E27000114000910099012102680A430260006880
:10E28000014000910098C0204001019002200290BE
:10E29000039404940320059001A9A020C005FDF774
:10E2A0004BFF00220021152000F0F7FE152000F0A2
:10E2B000F9FE00220021162000F0EFFE162000F0EB
:10E2C000F1FE1AB010BD30B599B00400142200213F
:10E2D00001A803F06EF84C22002106A803F069F8AB
:10E2E00020686C49884230D12020069000250C958A
:10E2F00006A803F069F8002801D0FFF7EBFB022025
:10E30000154C216801432160216808400090009865
:10E31000C0200190122002900395049506200590DC
:10E3200001A90E48FDF708FF80208003A168014382
:10E33000A160A168084000900098002200211720E9
:10E3400000F0ABFE172000F0ADFE19B030BD0000AC
:10E35000002401403C1002403410024000040050F0
:10E36000401400200800024000640040F0B599B05D
:10E37000040014220021684603F01BF84C220021FF
:10E3800006A803F016F820680224444D00264449EC
:10E3900088422BD101270697079606A803F014F8A8
:10E3A000002801D0FFF796FB6003E9680143E960AC
:10E3B000E96808400590059828683843286028686F
:10E3C000384005900598C020C00000900194029646
:10E3D000039604976946A020C005FDF7ADFE002214
:10E3E00000211B2000F059FE1B202CE02D49884203
:10E3F0002BD104270697099606A802F0E5FF00280E
:10E4000001D0FFF767FB6004A9680143A960A96810
:10E410000840059005982868204328602868204017
:10E4200005900598C0208000009001940296039406
:10E43000049769461C48FDF77FFE002200211D203D
:10E4400000F02BFE1D2000F02DFE19B0F0BD80B5B0
:10E4500000681149124A90420BD14868134A0240A1
:10E460004A60C021C900A020C005FDF71BFF1B208A
:10E470000CE00C4A90420BD108680D4A02400A6039
:10E48000C02189000848FDF70DFF1D2000F013FE94
:10E4900001BD0000005400403C1002403410024016
:10E4A000003801400048004000040050FFBFFFFF5B
:10E4B000FFFFFBFF01484068704700BFC805002010
:10E4C00038B5040001D1012032BD206814216C4A06
:10E4D000904207D2884A801800F040FD80006064B6
:10E4E000864806E0864A801800F038FD80006064A7
:10E4F00084482064022025216054206800688249F5
:10E5000001402068016020680168A2680A43E16850
:10E51000114322690A4361691143A2690A43E1690F
:10E520001143226A0A430260200000F08BF90025A3
:10E53000A0688021C901884200D165602079400629
:10E54000400EA16C0860206DE16C48606068002896
:10E550000AD0052808D2200000F097F9606D056008
:10E56000E06DA16D486002E06565A565E565E56360
:10E57000012025216054FFE724202554002032BDCE
:10E58000F2B50400002000262421615C012901D19C
:10E590000220F2BD2100243101250D702527E75D01
:10E5A000012F2ED102212527E155E0632068016863
:10E5B000A94301600099200000F027F92068216B31
:10E5C0000029016801D00E2205E004229143016078
:10E5D000206801680A220A430260A16C28020A68C6
:10E5E000D20302D50A6802430A60616D002903D094
:10E5F00009680843616D0860206801680D43056083
:10E6000003E08022E263087001263000F2BD70B59D
:10E61000002809D00100243100222523C35C022BED
:10E6200004D00423C3630A70012070BD03681C6812
:10E630000E25AC431C60846C714B25681D40256021
:10E64000046825680126B543256001244425455DFD
:10E650001C262E400125B540066C7560056DC66C04
:10E660007560456D002D06D02D682B40456D2B60E3
:10E67000C36D856D6B602523C4540A70002070BD86
:10E680000804024070B50021002401222523C35C48
:10E69000022B03D00421C16301242AE003681D6812
:10E6A0000E26B5431D6003681D6895431D60856C8B
:10E6B000534B2E681E402E604425455D1C262E407F
:10E6C0000125B540066C7560056DC66C7560456DBD
:10E6D000002D06D02D682B40456D2B60C36D856DD8
:10E6E0006B602523C25424228154816B002900D001
:10E6F0008847200070BD0000F8FFFDBF0000024009
:10E70000F8FBFDBF000402400F80FFFFFEB5016C67
:10E710000968029101680A6801924422825C1C2304
:10E7200013406A46137004232022029C6D462D7804
:10E730000426AE40264014D0019C1C4011D00C6829
:10E74000224002D10A689A430A604421415C1C229B
:10E750000A409340016C4B60016B00294DD0884703
:10E76000F7BD012302240025029EB4466E4636788A
:10E770000227B740664637401FD0019E26401CD076
:10E780000E68324005D10A680A26B2430A60252184
:10E7900043544421415C1C220A4094400168434A8E
:10E7A000914201D3424900E042490C602421455482
:10E7B000C16A002921D08847F7BD082264466E4609
:10E7C00036780827B740274017D0019C224014D044
:10E7D0000A680E24A2430A604421415C1C220A40BC
:10E7E00001219140026C5160C363252143542421CF
:10E7F0004554416B002900D08847F7BD0000000058
:10E80000FFFEFFFF2521405C704770B5046DC56CAD
:10E810006C60446D002C02D0C46D856D6C60012469
:10E820004425455D1C262E40B440056C6C60046890
:10E8300063608068102802D1A260E16070BDA160B1
:10E84000E26070BD10B50400606C80088000216833
:10E85000194A914208D2194A1018A064C8B208385F
:10E86000142100F07BFB08E0154A1018A064C8B220
:10E870000838142100F072FBC01D1249E164012127
:10E88000C006C00E8140216510BD01794906490EC0
:10E890008A000D4BD21842650C4A82650122491E3E
:10E8A0008907890F8A40C2657047000081000240D5
:10E8B0000404024004000240080402400008024030
:10E8C0001C08024080080240FC0802404009024047
:10E8D00070477047704770477047FEE7FEB5050008
:10E8E0001BD0B64C2878C00719D5A168382008403D
:10E8F000E1688027BF02102808D18807800F03280D
:10E9000006D069687808814233D13AE00828F8D106
:10E910002068074003D06868002800D1E3E1287828
:10E9200080077AD5A06838210140E268A448A54F45
:10E9300010294DD19207920F022A4BD0E968002985
:10E9400000D194E0216808402969014321602068D2
:10E95000A10D01432160FFF7ADFD060020684005D1
:10E9600000D57DE0FFF7A6FD801B0328F6D303202A
:10E97000FEBDA022D202914207D1216882000A4343
:10E98000226021680843206007E02068B649014002
:10E9900021602068B54901402160686800280BD0DB
:10E9A000FFF788FD060020683840B8D1FFF782FDE8
:10E9B000801B6528F7D3DAE7FFF77CFD06002068A7
:10E9C0003840ACD0FFF776FD801B6528F7D3CEE743
:10E9D0000029B3D12268520502D5EA68002A3ED048
:10E9E000626817406A6912023A43626000290ED1D8
:10E9F000216808402969014321609D48012122685E
:10EA00009204520F914000F0A9FAB8490860B84842
:10EA1000006802F02BFE002821D102272878000789
:10EA20000AD5A06838210140182930D1206E38401D
:10EA300002D0A869002812D02878400700D4A5E0A9
:10EA400000200190A06838210140202941D1E06DCB
:10EA5000074000D19AE0A868002800D096E042E183
:10EA6000606807406869000238436060D5E7206845
:10EA7000A04901402160FFF71DFD06002068400508
:10EA8000CBD5FFF717FD801B0328F7D36FE7A869E5
:10EA90000028206E0ED0012101432166FFF70AFDF8
:10EAA0000600206E3840C7D1FFF704FD801B032805
:10EAB000F7D35CE7012188432066FFF7FBFC0600E3
:10EAC000206E3840B8D0FFF7F5FC801B0328F7D341
:10EAD0004DE7F806E16B014008D1E16B0143E163CA
:10EAE000E16B08400090009801200190824F386847
:10EAF000C00512D4A00D0090386800990143396018
:10EB0000FFF7D8FC060038680099014005D1FFF7EF
:10EB1000D1FC801B0328F6D329E7A868012101282E
:10EB200005D00528E06D06D104220243E265E06DC0
:10EB30000143E16505E08843E065E06D0421884319
:10EB4000E0650227A86800280CD0FFF7B3FC060098
:10EB5000E06D384013D1FFF7ADFC801B6749884258
:10EB6000F6D304E7FFF7A6FC0600E06D384006D0B8
:10EB7000FFF7A0FC801B61498842F6D3F7E60198B5
:10EB8000002803D0E06B5E490140E16328788006ED
:10EB900029D580273F04E8690028206814D0790827
:10EBA00001432160FFF786FC0600206838401AD137
:10EBB000FFF780FC801B0328F7D3D8E60010024043
:10EBC000FFC7FFFFFF80FFFFA24901402160FFF761
:10EBD00071FC06002068384005D0FFF76BFC801BF5
:10EBE0000328F7D3C3E6286A002855D0A168382245
:10EBF0000A40102A52D08027BF0497490228206873
:10EC000038D101402160FFF755FC060020683840EC
:10EC100005D0FFF74FFC801B0328F7D3A7E6E06879
:10EC20008E490140686A0843A96A0143E86A000204
:10EC30000843296B0143686B0843A96B0143E160FA
:10EC40002068790801432160E068F9000143E16030
:10EC5000FFF730FC0500206838401DD1FFF72AFC83
:10EC6000401B0328F7D382E6FFFFFEFFFFFFFBFFF9
:10EC70000024F40001402160FFF71CFC050020681F
:10EC8000384005D0FFF716FC401B0328F7D36EE68B
:10EC9000E0689C490140E1600020FEBD012822D0CF
:10ECA000E0688107890F6A6A91421CD17021014096
:10ECB000AA6A914217D1FE21C9010140EA6A1202F3
:10ECC000914210D1F821890301402A6B91420AD167
:10ECD000E021090501406A6B914204D1400F4007D1
:10ECE000A96B8842D8D00120FEBD00BFD40500200A
:10ECF000D0050020FFFEFFFF0070004089130000D8
:10ED0000FFFFFFEFF8B5070066D000917E4800686E
:10ED10004007400F884218D27B4C20680721884367
:10ED2000009901432160FFF7C5FB009D06002068A4
:10ED30004007400FA84207D0FFF7BCFB801B734978
:10ED40008842F4D30320F2BD00953968714C02204B
:10ED500001420CD0490704D5A168E022D2010A4340
:10ED6000A260A1686A4A0A40B9681143A1600725F8
:10ED7000ED433978C90732D57968012918D120685F
:10ED8000800329D5A06828400143A160FFF792FBCA
:10ED90003E000700A068382101407068C000814231
:10EDA0001CD0FFF787FBC01B58498842F2D3C9E744
:10EDB000022902D12068800103E0002903D12068E4
:10EDC0004005DFD408E0032903D1226E1040D9D1D9
:10EDD00002E0E26D1040D5D10120F2BD370000986D
:10EDE000494909684907490F884217D246480068CF
:10EDF00005400098284344490860FFF75BFB009DED
:10EE00000600414800684007400FA84206D0FFF7BF
:10EE100051FB801B3D498842F3D393E73878400784
:10EE200005D5A0683C490140F8680843A06000F09F
:10EE300017F83A49A2681205120F9200895CC906B8
:10EE4000C90EC840364908603648006802F00EFC1A
:10EE5000F2BD0000FFFFBFFFFFFFFFFE8C80C1116E
:10EE600030B5072131482B4C3823A2681A4006D10F
:10EE700023680122DB0A19408A4011001EE0420883
:10EE8000A5681D40082D01D1100030BDA5681D40AA
:10EE9000102D16D1E368E5682D092940491C7F250E
:10EEA0009B079B0F032B00D1100000F057F8E1687F
:10EEB000090A0D406843E168490F491C00F04EF80B
:10EEC00030BDA0681840202802D18020000230BD4B
:10EED000A0680340182B02D1FA20C00130BD0020E9
:10EEE00030BD0F48006870470F4801680C48006843
:10EEF0000F4A4904490F8900515CC906C90EC84030
:10EF000070470000FCFFFEEE002002408913000065
:10EF1000FFF0FFFF00100240FF8FFFFFDC41010800
:10EF2000D4050020D0050020081002400024F40081
:10EF300070430108CA0F00D0494203105A400DD057
:10EF400004B500D3404200F009F8009AD20701D37B
:10EF50004942124200D5404204BD0000094214D08B
:10EF600088420FD30122030C01D1000412040023B4
:10EF700000185B418B4200D35B1A5241F8D3190051
:10EF80001000704701000020704708B502F094FBA4
:10EF900008BD12422DD0994231D970B500251B42CF
:10EFA00009D00C00002112E01100FFF7D7FF0A0082
:10EFB0000021002370BD0942F6D000240126491823
:10EFC0006441944200D3A41A7641F8D3310001265B
:10EFD00001E0764109D2001864416D41A41A9D41B7
:10EFE000F7D2A4185D41B619F5D3300022002B00EA
:10EFF00070BD1B42CFD108B502F060FB08BD01D146
:10F000009042CAD202000B00002100207047FEE7A8
:10F0100010B500240B480168820D0A4302600320EA
:10F0200002F024FB002801D0012401E0FFF782F860
:10F03000200010BD04490A68044B134018430860BF
:10F04000704700000020024000000140FFF9FFFF70
:10F05000002200BF094202D0491E4254FCD1704731
:10F0600010B5C20018231340FF249C40E2438907D7
:10F07000090E9940030004D41F489B089B00C01848
:10F0800006E01E4B0007000F0838800880001818A3
:10F0900003681A401143016010BD80B5FFF7E0FF1F
:10F0A00001BD0000010005D40121C006C00E814051
:10F0B000134801607047010009D40121C006C00E49
:10F0C000814010480160BFF34F8FBFF36F8F7047CF
:10F0D00010B5401E80214904884201D3012010BD93
:10F0E000094C606003210020C043FFF7B9FF0020F6
:10F0F000A0600721216010BD00E400E01CED00E0ED
:10F1000000E100E080E100E010E000E0F8B588B048
:10F11000142103A8FFF79CFF0126574801683143DB
:10F1200001600168314000910099022102680A43A0
:10F1300002600268114000910099416831434160CA
:10F140004068304000900098002200210920FFF71D
:10F15000A4FF0920FFF7A6FF684600210022002334
:10F160000EC0464C46482060300560600025A56012
:10F17000E560802000062061082767612583A67668
:10F18000E6616562A5622C216654256307206063F1
:10F190003C216554E564200002F0A5FA002801D066
:10F1A000FEF798FC3748009001966946200002F06F
:10F1B00005FC002801D0FEF78DFC3348009069461D
:10F1C000200002F0FBFB002801D0FEF783FC2F4853
:10F1D00000906946200002F0F1FB002801D0FEF704
:10F1E00079FC039704960595069503A92848FCF732
:10F1F000A3FF28480178AE220A4011211143017073
:10F2000009B0F0BD80B5032223491C4802F07CFB05
:10F2100001BD70B51F4CA568204E606880B202F039
:10F22000BFFD310002F0CCFD02F022FE2082A8B228
:10F2300002F0B6FD310002F0C3FD02F019FE60825B
:10F2400070BD80B513480178154A438A934202DBAA
:10F2500002230B4301E0FD230B4003700178038A76
:10F26000934202DB01220A4301E0FE220A400270BF
:10F27000FEF718FC01BD0000341002407813002096
:10F2800000240140400000188000001C0001002004
:10F290000004005060160020641600201283903F86
:10F2A0004C04000070B5050001D1012070BD286834
:10F2B000144901601449016069684160A96881606E
:10F2C000FFF7F8F8072406002868C16821400AD033
:10F2D000FFF7F0F8801B3228F6D32868C06820407A
:10F2E000F2D0032070BDE96802698A4201D0016151
:10F2F00001E006490160002070BD0449006801601A
:10F3000000207047CCCC000055550000AAAA000090
:10F3100010B586B01422002101A802F04AF800F0CE
:10F320001CF8022055490A6802430A60096808402F
:10F3300000900098524C012220212000FDF73AF85D
:10F34000202001900120029000200390049001A948
:10F350002000FCF7F1FE06B010BD10B5494C4A483C
:10F3600020604A4860600020A0600121E1602061C7
:10F370006061A061E0612062200002F097FD00283A
:10F3800001D0FEF7A7FB0021200003F041FC00287C
:10F3900001D0FEF79FFB0021200003F056FC00285F
:10F3A00001D0FEF797FB10BD12B583B00400002218
:10F3B00020213348FCF7FEFF0220FEF75FFCFA2015
:10F3C000800002900120019003A8009002232200F7
:10F3D000A0212C4802F0CCFD002801D0FEF77AFBDA
:10F3E0000520FEF74BFC00F042F81FBDF8B50025E4
:10F3F00007000E00140005E0715D781980B2FFF778
:10F40000D3FF6D1CA542F7DBF1BD1FB50400002042
:10F410006946087300F02BF8FA2080000290012062
:10F42000019003A8009002232200A021154802F0B9
:10F4300081FE002801D0FEF74DFB6846007B04B03A
:10F4400010BD7FB504000D00160000F010F8FA2082
:10F45000800002900196009502232200A021094815
:10F4600002F068FE002801D0FEF734FB7FBD80B5B6
:10F47000012220210248FCF79DFF01BD341002400B
:10F48000000400505015002000540040BC7D701056
:10F4900010B5474C20002630FEF7B8F821002A317D
:10F4A000FEF78CF810BD010000D17047F0B5404C5C
:10F4B000A18F0918A18722004732117853781B06C3
:10F4C0001B0C19432200473209181170090A5170A8
:10F4D000A1880818A08037480225374EFA218900F4
:10F4E000A28F8A4216DB230043331A785F783F06E7
:10F4F0003F0C3A4323004333521C1A70120A5A70CD
:10F50000A28F521AF37A2B43F37293B2834200DB39
:10F510000022A287230047331A785F783F063F0C0A
:10F520003A438A4222DB4E22A25A521C4E23E25216
:10F53000230047331A785F783F063F0C3A43230095
:10F540004733521A1A70120A5A70F27A2A43F27228
:10F55000230047331A785F783F063F0C3A438242D4
:10F5600004DB20004730002202704270A0888842ED
:10F570001CDB20002630FEF749F821002631401C14
:10F58000FEF71CF8A088FA218900401AA080F07AC2
:10F590000543F57220002630FEF738F80749884207
:10F5A00004D3210026310020FEF708F8F0BD00004A
:10F5B0001013002010270000000000208096980003
:10F5C000F8B5664F6648386000247C60BC60FC601B
:10F5D000012038747874BC74082078611020B861F8
:10F5E0000C20F86103203862012078620420B862A0
:10F5F0000521F962386301207863BC63FC6338003D
:10F6000003F04CFB002801D0FEF764FA55480021B6
:10F610000170C175017641764183017703214177FD
:10F620003323C4543423C4543723C45404870122DD
:10F630008277C47704842223C4542623C454272306
:10F64000C4542823C4542E23C4542F23C454302319
:10F65000C454448784874223C452434A54859485C2
:10F660000600483634807471F480B460F4603482EB
:10F670003E4DEC72687A4006400E68722C73687BCF
:10F680002C2202406A73A87BFE220240AA733175C5
:10F690008020C0056863AC63E963012028643448B6
:10F6A00068643448A86429003431380003F0F2FB60
:10F6B000002801D0FEF70EFA6C630120A863EC630A
:10F6C0002864C020800468648220C000A8642900E7
:10F6D0003431380003F0DEFB002801D0FEF7FAF9E0
:10F6E000380003F017FC002801D0FEF7F3F90022E0
:10F6F0000121380003F014FD002801D0FEF7EAF9DB
:10F700001D4828616C61AC610820E8612C626C6264
:10F71000AC62EC622C637475B475F1BDC90700D49A
:10F72000704780B5114B1A004C32402103F062FC47
:10F73000002801D0FEF7CEF900F020F801BD80B519
:10F740000A4908610A0074321031044803F0F8FBDA
:10F75000002801D0FEF7BEF901BD0000DC13002037
:10F760000064004004120020301600209412002093
:10F77000A7FF1110A7FF281009040000F0B585B0FD
:10F78000D84C607900022179084369468880A378C3
:10F79000E078000218434880227860780002104325
:10F7A0000880E0780490607802900393607BCE4DEF
:10F7B00029004831E66CC027FF00F61B30D0761ECA
:10F7C00063D0CA4FF61B00D159E1C94FF61B00D1D7
:10F7D0005BE1C84FF61B75D0F0273F03F61B00D145
:10F7E00090E0C027BF02F61B00D1A4E080277F0273
:10F7F000F61B00D1B9E0F61B00D1C8E07F00F61B74
:10F8000000D1CDE07F08F61B00D1E8E0FF00F61B39
:10F8100000D1F7E0C027BF02F61B00D14AE15EE14C
:10F82000002088752F202A54607830216854607A2F
:10F83000F72101401807C20FD0000843EF21014013
:10F840009806C20F100108436072E178227ABF2344
:10F850001340CA0892011A435206520E0B09DB01EB
:10F8600013432372FB230340C80982001A436272C8
:10F870000420024201D14807400FA877A079D83070
:10F880002E216854207B0121B9E0002088751002E8
:10F89000617808432884280031302179090262798F
:10F8A00011430170090A4170A0790002E17908430F
:10F8B000A885288C2121FFF751FB26216854207B45
:10F8C00002219CE04E7502980102100008430A21B3
:10F8D000FFF730FBE875000A2876E0780102A0788F
:10F8E00008430A21FFF726FB80B2FA2189008842EB
:10F8F00002DA0126081A00E0401A6E766883207B3F
:10F9000004217CE000204875A079217AEF220A408A
:10F91000C107C90E1143F7220A408107CB0FD90056
:10F920001143DF220A404007C10F480110432072F3
:10F93000207B082163E00020487502980102100036
:10F9400008430A21FFF7F6FA3321685404980102AC
:10F95000039808430A21FFF7EDFA372168546846F7
:10F9600080882887207B102149E0684600886887C6
:10F9700068464088A88768468088E887E079000262
:10F98000A179084342216852207B202137E0694653
:10F9900009887D4A518569464988918504219CE002
:10F9A00000204875D8324A706078D8300870D83353
:10F9B0004B71E078D8308871C87BF92202404878D2
:10F9C00003003C3B052B01D2022002E0412802DB70
:10F9D000042010430200CA73207B40210FE0CA714B
:10F9E000607808724B72E07888722079C87260790A
:10F9F0000873A0794873E0798873207B80210143E4
:10FA000021736CE06049D306DB0E0B7052094A701B
:10FA10009A00039B1D02029B2B439F04BF0C8D1C6D
:10FA20001606F60DAF53521C6D462A709A0B049BB6
:10FA30009D001543227993022B439A04920C8D1C4E
:10FA40006E4636787600AA536A461278521C9B0B93
:10FA500065792D011D43A3791B032B439F04BF0C24
:10FA60008D1C1606F60DAF53891C521C1206D20DC2
:10FA70009B0BE579AD011D438D5208212DE0EA7005
:10FA8000617829716B71012127E0CB7B257A002AEF
:10FA900008D104222A432272FE221A408B7C5B1C6E
:10FAA0008B7404E0FB222A40227201221A43CA739B
:10FAB000102112E0032A0FD10F21E2780A40AA7127
:10FAC0002279120163790B401343EB71A279120181
:10FAD000E37919401143297202210143617305B092
:10FAE000F0BD00009412002004120020A6F90210BC
:10FAF000FEA7000002580E00F0B589B0234E707BBF
:10FB0000C10730D580072ED5214CE7780025182F66
:10FB100024DB2100093104A8FDF770FD207A039051
:10FB2000E0790290A07901906079009023793A0001
:10FB30000EA120000930FEF7B5F8A5750E222100B0
:10FB4000093104A803F01FFC000408D00E22210094
:10FB5000093186204000FFF749FC00E06572707BA8
:10FB6000FC210140717309B0F0BD00003230253036
:10FB7000326425303264253032642578253032787D
:10FB8000253032780000000030160020941200204A
:10FB900004120020F8B5C4B005000E00FDF782FF86
:10FBA000A14C2100203108784A781206120C10432B
:10FBB0002121FFF7D3F92621605421002C31087848
:10FBC0004A781206120C104302F0EAF8B44903F026
:10FBD000F1FB03F041FC02000B0000BF93A13CA825
:10FBE000FEF760F8AF48A900415839A8FDF706FDB7
:10FBF000AD4DE87F012801D1462000E04E2035A917
:10FC00000870607E0128A27EE07E04D10006000C10
:10FC10000243B4A103E00006000C0243BDA13AA8D0
:10FC2000FEF740F835A8401C0670BB4E310043314A
:10FC300008784A781206120C104300BF7BA702F026
:10FC4000AFF8974903F0B6FB03F006FC02000B0087
:10FC5000390041A8FEF726F831004E3108784A787D
:10FC60001206120C104302F09BF88D4903F0A2FB20
:10FC700003F0F2FB02000B0039003EA8FEF712F879
:10FC8000A648C08938A90880A5488178C27812069C
:10FC9000120C1143230038331A785F783F063F0C6B
:10FCA0003A4337AB9B1C1A80230038331A785F78AD
:10FCB0003F063F0C3A4337AB1A80230020331A78B3
:10FCC0005F783F063F0C3A4336AB9B1C1A80E37DBE
:10FCD000227E1206120C134336AA138032005C32C5
:10FCE000167853781B061B0C1E4335AA921C1680EF
:10FCF000220049328B4B8C4E3491C17ACF07FF0FD3
:10FD000033970021329131913091117C2F91D17B29
:10FD10002E91F1782D913021615C2C912F21615C25
:10FD20002B91917B2A91517B2991117B2891D17A3A
:10FD30002791917A2691517A2591117A2491D1793E
:10FD400023913EA9229141A921917849209138A976
:10FD500009881F91764949780907490F1E91317822
:10FD60004907CE0F1D9691791C9137A9891C0988E6
:10FD70001B9137A909881A913AA919913721615C19
:10FD8000189136A9891C098817913CA91691A17F61
:10FD9000159129003731149135A9491C097813911F
:10FDA00039A912914921615C11913321615C109153
:10FDB00036A909880F912621615C0E912E21615C84
:10FDC0000D915C490978C906CA0F0C9200780B9016
:10FDD00035A8801C00880A905748185C09902800B4
:10FDE0002030089028004E30079028002F300690D1
:10FDF000280025300590280011300490281D03901C
:10FE000035A8007802904D4818180190200009305C
:10FE100000904B4B4B4A4C494C48FDF743FFFDF7D4
:10FE200041FE45B0F0BD00000412002025302E3107
:10FE30006600000070B53A4D2878454E01280BD178
:10FE4000287030007330047841780906090C0C439F
:10FE5000012000F02BF81AE0002818D1300075308E
:10FE6000047841780906090C0C43012000F01EF8C3
:10FE700030480078C1070AD4800708D500202870D0
:10FE800030007730047841780906090C0C43314979
:10FE9000A4B2FA2080006043FDF790FB70BD000023
:10FEA00000002041E0030020A014002038B5214CC0
:10FEB0002178402500280BD1294208D000220821B2
:10FEC0002548FCF777FA2078BF210140217031BD29
:10FED0004807F3D52942FAD100F006F82078054307
:10FEE000257031BD2D25640038B50A241A4D002235
:10FEF00008212800FCF75EFA0120FDF7BFFE012271
:10FF000008212800FCF756FA0120FDF7B7FE641E11
:10FF1000EDD131BD256400001013002064160020CF
:10FF200000000020580600209C1200203A150020F6
:10FF300084160020601600205608000041080000CA
:10FF4000B93F0108FC140020183B0108E80E00200E
:10FF5000CC3F01082C00002000040050F0B58BB00D
:10FF6000052206A90020FFF76CFA9A4C06A8017832
:10FF700011290BD14178222908D18178332905D163
:10FF8000C178442902D1007955280AD000F09EF8A2
:10FF90000020A070E0700222A11C8E204000FFF71C
:10FFA00025FA8D4D122229000520FFF74AFA142266
:10FFB000290024313520FFF744FA06222900383180
:10FFC0004920FFF73EFA3420FFF71FFA5321685407
:10FFD0001122290012311720FFF733FA15222900C8
:10FFE0003E315320FFF72DFAFF200C30FFF70DFABA
:10FFF000002800D00120FE27E17A39400843E07252
:020000040801F1
:10000000764D0E2128000930FFF722F80E22290034
:10001000093186204000FFF714FA687A0026642828
:1000200003DAFF2801D0002805D16E726C484179AF
:10003000FC220A404271FF200C30FFF7E6F900284D
:1000400000D00120E17A0F403843E0726846067024
:10005000C525AD00012269462800FFF7C7F9614EAA
:100060002800FFF7D2F93070C0208000FFF7CDF9EB
:1000700070705D4E052201A93000FFF7E2F95B4D7B
:10008000042201A92800593003F07DF9000405D0AD
:100090000522290059313000FFF7A8F908225449F8
:1000A0008A204000FFF7CDF9022200A9891C8E208A
:1000B0004000FFF7C6F900A8801C017809024078CB
:1000C0000143A170090AE1700BB0F0BD38B586B0EC
:1000D000122101A8FEF7BCFF444C052221006C311F
:1000E0000020FFF783F93C4D2800FBF734F8002887
:1000F00004D0122229000520FFF778F901A8FBF7A8
:1001000057F8002804D0152201A95320FFF76EF9F3
:100110001122210071311720FFF768F91422210004
:1001200083313520FFF762F90622210097314920FB
:10013000FFF75CF90522210059312B48FFF756F9EA
:100140002000DF30017842781206120C11436D4610
:10015000090A2970017842781206120C114369705D
:10016000022269464F20FFF741F92000E130017873
:1001700042781206120C1143090A2970017842785C
:100180001206120C11436970022269465120FFF7D2
:100190002DF9124C0E222100093186204000FFF774
:1001A00025F9002060720E484179FC220A40427114
:1001B0000121FF200C30FFF7F7F80648002181707D
:1001C000C1700222811C8E204000FFF70FF907B09A
:1001D00030BD000000000020FC14002004120020AC
:1001E0009C1200208016002002030000603F0108DE
:1001F0004213002010B5FBF769FE012805D13C4CE5
:100200002178607800F00EF8207010BD10B5FBF773
:1002100074FE012805D1374C2178607800F002F88F
:10022000207010BDF3B581B00024334F334E0DE084
:10023000316A3348FDF7E2F9010032483818FBF71C
:100240002FFF02E0E8B200F030F8641C694609793B
:10025000E0B2884226D26846007A002822D0E0B276
:10026000FBF7A8FE0128E3D1E0B2FBF701FF01286C
:1002700004D16846007A401E6946087200251E4F68
:100280001E4E2806800D3018816A1F483818FDF769
:100290002BFC6D1C002803D1E8B20328F1DBD1E769
:1002A0006D1ECFE76846007AFEBD70B50100174AA3
:1002B000D37A174E124C114DFF200C30002902D07A
:1002C000012905D070BD01211943D172012103E03C
:1002D000FE211940D1720021FFF766F8296820003D
:1002E000FDF78CF901003000FBF7DAFE70BD00006D
:1002F000B10E0020AF0E002058060020940500200B
:10030000E80E00205B0800007408000000000020D8
:10031000B30E002010B5FBF7EBFB002849D02649AF
:100320000020FDF74BF9254801780A014178D031CA
:100330001143204CE1702378CAB29A4239D0C27876
:1003400012010079D0301043A070C0B212380228D8
:100350002FD21B480078C0062BD51A48407880065B
:10036000800F032825D118480078002821D121705A
:10037000012060700121C0208000FFF715F821786E
:10038000C5208000FFF710F8FBF788FD6420FDF71B
:1003900075FCFA235B0022220C490D48FCF71EF97C
:1003A000BFF34F8F0B480C490860BFF34F8F00BF5E
:1003B000FDE710BD8016002026000020A10E0020C1
:1003C00060160020841600200000002080420108F2
:1003D000DC1000200400FA050CED00E010B50E4C16
:1003E00021680E4A0A4002432260610D884210D102
:1003F0000B480068062148430A49FEF7AFFD401C40
:1004000000E0401E6169490503D50028F9D10320A9
:1004100010BD002010BD000000700040FFF9FFFF7C
:10042000D405002040420F0010B5040003F044F84A
:1004300001002000096A884710BD10B5040003F0D0
:100440003BF801002000896A884710BDC9B2521EDE
:1004500005D30378401C8B42F9D1401E7047002021
:100460007047FEE70100202008437047FDB5B2B099
:100470003A98049102A93B22885400200D9024A8A8
:10048000401C2F900DE00498329A90470490002869
:1004900001D100F0B7FE0D98401C0D903398401C20
:1004A000339033980178002910D02529EBD1002012
:1004B0000790089009900A900B900C90002102245C
:1004C0000120149008201290339D05E00D9800F053
:1004D0009BFE0800149901436D1C28782028F8D051
:1004E00023280BD02B2804D02D2804D0302808D066
:1004F0000AE02143F0E708000421ECE708000821A6
:10050000E9E708001021E6E72A280FD134980268AD
:100510001068121D349B1A600F90002804D54242C7
:100520000F920800042101436D1C12E000200F907F
:10053000644A09E00F9B934205DA9E00F3185B00C2
:10054000181830380F906D1C28780300303B0A2BA8
:10055000F0D328782E2803D00020C0430E9027E047
:100560006D1C28782A2808D1349800680268001D7C
:10057000349B18600E926D1C1AE02D2802D12D229A
:100580006D1C00E0002200200E900CE0002A09D132
:100590000E9B4C4EB34205DA9E00F3185B00181810
:1005A00030380E906D1C28780300303B0A2BEDD3B9
:1005B00002A801872E78310040487844FF30401E61
:1005C000FDF706F8002801D06D1C00E0002602A807
:1005D0003A214654405C682804D1287868280BD119
:1005E000622005E06C2807D128786C2804D171209E
:1005F00002A93A2288546D1C15A8069028786946ED
:100600000870681C3390684602781000253833D093
:100610001C3800D1CCE1001F022800D8C8E11338F3
:1006200001D100F019FD093800D1C1E1801E01D1CE
:1006300000F0AFFD401E01D100F05CFD401E02281D
:1006400000D8B5E1001F01D100F054FD401F00D1DA
:1006500008E1401E01D100F0FFFC401E00D1F0E097
:10066000C01E0ED0801E01D100F0F6FCC01E01D1CC
:1006700000F0F2FC00F098FD14980790252015A9D1
:100680007CE1349800680468001D34990860059482
:10069000002C00D0C1E002A83B21405C002800D122
:1006A000B5E00024E44306487844143002F00EFF1D
:1006B000201A01D000F0A6FD00F083FD203A0000D2
:1006C000543A0000CBCCCC0C01236A4602A9280086
:1006D00000F054FE002801D000F094FD641EF3D118
:1006E0003295079D15AC002D0FD0329E21780498CD
:1006F000B0470490002801D100F084FD0D98401C03
:100700000D90641C6D1EF1D1329630206946087040
:100710000A9C002C0DDD329D01236A4602A92800A7
:1007200000F02CFE002801D000F06CFD641EF3D117
:100730003295059C089D002D0FD0329E217804989B
:10074000B0470490002801D100F05CFD0D98401CDA
:100750000D90641C6D1EF1D13296302769460F70E2
:100760000B9C002C0DDD329D01236A4602A9280056
:1007700000F004FE002801D000F044FD641EF3D117
:100780003295059808994418099D002D0FD0329E86
:1007900021780498B0470490002801D100F032FD80
:1007A0000D98401C0D90641C6D1EF1D13296684668
:1007B00007700C9C002C0DDD329D01236A4602A9B6
:1007C000280000F0DBFD002801D000F01BFD641EB6
:1007D000F3D1329502A83821405C400700D460E68E
:1007E0002020694608700198002800DC59E6019C29
:1007F000329D01236A4602A9280000F0BFFD0028AF
:1008000001D000F0FFFC641EF3D1329549E61B488D
:1008100078446830059000F0D4FC0E9D002D03D57F
:100820002000FCF7E3FE09E02A0000212000FFF78A
:100830000DFE002801D0001B00E02800089000F009
:10084000C0FC349800680268001D349908600020DC
:10085000C0430021104002AA03C215A805907821C8
:1008600000F093FC02A83B21415C002908D0002441
:10087000E4434B487844FF30293017E7B438000090
:100880003A21405C62286AD0682819D06A2845D08D
:100890006C2806D071284FD0742831D07A2821D006
:1008A0006FE0349800680168001D349A10600029D8
:1008B0007AD10024E4433B487844FF301738F5E60A
:1008C000349800680168001D349A1060002905D131
:1008D0000024E44333487844CA30E7E60D980880A2
:1008E00000F06FFC349800680168001D349A1060B5
:1008F000002959D10024E4432A487844A630D5E69B
:10090000349800680168001D349A106000294BD1AA
:100910000024E443234878448A30C7E634980068CA
:100920000268001D34990860002A13D10024E443B2
:100930001C4878446E30B9E6349800680268001D9F
:1009400034990860002A05D10024E443154878440E
:100950005230ABE60D98C11703C200F032FC349858
:1009600000680168001D349A1060002905D1002438
:10097000E4430C4878442C3098E60D98087000F059
:1009800020FC349800680168001D349A106000292A
:100990000AD10024E44303487844083086E600BFC7
:1009A00044370000583700000D98086000F009FC3B
:1009B00034980068C31D072083433498036003CB39
:1009C000349D2B6002AB03C32023C80F04D00798CB
:1009D0002D2115AB19540DE002A8008F204204D040
:1009E00007982B2115AB195404E0C00704D50798CC
:1009F00015A90B54401C079015A80799401813908F
:100A00001398059024AD02A8C0C86846007820213C
:100A1000014368468170807861280BD00E980028C9
:100A200001D5062005E005D168468078672801D108
:100A300014980E9002A803C808004B005B15002410
:100A4000E443A3420ED109030CD003200890613A7D
:100A50001A2A03D21949794462310FE018497944BE
:100A60005E310BE0A3420ED100030CD103200890AD
:100A7000613A1A2A1DD31349794448310322139845
:100A800002F062FD9DE301AA02A803C802F069FD1D
:100A900002AA03C26846807861281CD105983021DB
:100AA0000170811C05916946097861290ED1782170
:100AB0000DE0054979441031E0E700BF78360000C9
:100AC000783600007C3600007436000058214170F2
