:020000040800F2
:10B00000901A0020314801088D3F0108913F010846
:10B010000000000000000000000000000000000030
:10B020000000000000000000000000009D3F01083B
:10B0300000000000000000009F3F0108A13F010840
:10B04000A7E10008CBE100080BEC00083FF3000883
:10B05000EB0501084F150108314001083B4001088C
:10B06000332601084540010837260108232E010830
:10B07000133601083B380108D7400108CF420108C8
:10B08000434501084F450108714B0108734B010806
:10B09000754B01084F400108594001086340010801
:10B0A000774B0108794B01087B4B01087F40010871
:10B0B0007D4B0108894001087F4B010838B586B0F7
:10B0C0000124814801682143016001682140009109
:10B0D0000099022102680A43026000680140009161
:10B0E0000098A025ED0500220B21280001F014FA9C
:10B0F0000B200190029400240394049401A92800D9
:10B1000001F0CCF804200190C42080030290039445
:10B1100001A9934801F0C2F8924D93482818048081
:10B12000847092490A78F72313400B70C4768483A5
:10B1300084778878F32202408A7001F031FA012284
:10B14000A91DA44801F07BFB2C80A91C002002F063
:10B15000F9FA07B030BDF8B5070000250024FA233E
:10B16000DB00C8220021082000F04FF800281CD185
:10B170000A21BD4802F0F0FA002816D0401C0090C9
:10B180000D2102F0E9FA0600009800280DD0357074
:10B19000009802F0EFFA0F2807D10099380002F06A
:10B1A000F1FA01240D20307000E03D702000F2BD66
:10B1B000F8B5070000250024FA23DB00C82200218F
:10B1C0002A2000F022F800281CD13A21A64802F0DB
:10B1D000C3FA002816D0801C00900D2102F0BCFAA2
:10B1E0000600009800280DD03570009802F0C2FAD1
:10B1F000142807D10099380002F0C4FA01240D2068
:10B20000307000E03D702000F2BD10B5BE4C8000F3
:10B21000205800F005F810BD80B500F001F802BD1F
:10B22000FDB50F00002600204E490880A94902F014
:10B2300089FA0524674DC8220099280001F0E0F939
:10B240000122B249280001F0FAFAB14D02990198A1
:10B2500000F01CF8002810D12E70AE48B9004058FC
:10B2600000F034F8022803D0032801D0042802D1CA
:10B270006978491C6970040006E03A480088002893
:10B2800002D12878401C28702000FEBDF8B50600C9
:10B290000024344F0D00B81C02F07CFA854200D225
:10B2A000012402F0BBFC3888022801DA2000F2D029
:10B2B000200006D102F0B2FCB81C02F06BFAB042DA
:10B2C000F8D32000F2BD000034100240F8B50100B0
:10B2D000244C9148261800272000083002F0B5FCC5
:10B2E000002801D000252DE08A4DE96920000830B2
:10B2F00002F0ABFC002816D003253A2120000830CC
:10B3000002F02AFA00281DD0841C0D21200002F032
:10B3100023FA0770200002F05AFD0104090E317073
:10B3200070702800F2BDE96F2000083002F08DFC3B
:10B3300000280AD004253A212000083002F00CFA37
:10B340000028E1D137707770EBE7A9692000083059
:10B3500002F07BFC002801D00225F3E70125F1E78C
:10B3600000040050580600203C080000841600200D
:10B3700070B5FC25A54C00F02FF8002805D12078E9
:10B38000054002202843207017E000F041F8012614
:10B3900000F022F8002801D1207808E000F066F8DB
:10B3A00000F036F800F018F80028207803D10540A6
:10B3B0002E43267001E005402570012000F06EF854
:10B3C000A078C10702D500F01DFE70BDFE2101402E
:10B3D000A17070BD7011002038B596256D00FA245B
:10B3E000A40023002A0000210120FFF70EFF010026
:10B3F0000DD023002A0000210120FFF706FF0100E5
:10B4000005D023002A0000210120FFF7FEFE32BDF7
:10B4100038B502F003FCA024E4050122012120003C
:10B4200001F07AF8A84802F0D9FC02F0F7FB0022FC
:10B430000121200001F070F8A44C00202080A44DD0
:10B44000A875E87502F0EAFBFA20800002F0C6FC5D
:10B4500020883C2807DAA87DE97D0906090C084305
:10B460009C498842EEDB31BD6006002010B5A02467
:10B47000E40501220221200001F04EF8E620400000
:10B4800002F0ACFC00220221200001F045F802F09D
:10B49000C5FBFA20C00002F0A1FC10BD18B58DB0AC
:10B4A00003001948026B8C49684602F0ABFC574C0C
:10B4B000884B9622520000216846FFF7ADFE002817
:10B4C000207802D1FB21014001E0082101432170D5
:10B4D0000EB010BD5A0600201FB5089C0294079CB0
:10B4E00001946C46247E00940AE01FB5089C0294E7
:10B4F000079C01946C46247E0094034C80002058E5
:10B5000000F00CF804B010BDEC0300205E06002033
:10B51000940E0020E80400203F080000FFB581B031
:10B5200000256A4F00203880B91C02F00BF9052471
:10B53000B24EC8220199300001F062F80122B91D13
:10B54000300001F07CF90C9B0B9A0AA80178684640
:10B55000007B00F05DF8060009D13888002830D162
:10B56000A74800900078401C0099087029E002F07C
:10B5700055FBA4497D54012E03D0022E01D0032E89
:10B5800041D16846007AA04C80002158380008302C
:10B5900002F05BFB00906846007C80002158380078
:10B5A000083002F052FB964E0099002905D0002881
:10B5B00001D0062404E0072402E0002804D0082477
:10B5C0007570200005B0F0BD07213800083002F08A
:10B5D0003CFB002803D0032475786D1CF0E71F2185
:10B5E0003800083002F031FB002801D00424F3E7D2
:10B5F00006213800083002F028FB002801D0022480
:10B60000EAE70124DCE70124DBE7000084160020E0
:10B61000F7B582B0002402251E00BD4802F0BAF83A
:10B62000B04201D30124002502F0F8FA274800882F
:10B63000022801DA2000F0D0009626003006234CC4
:10B640001DD120886946097A6A46127B891888428A
:10B650000ADB01260325049F02F0E0FAA01C02F099
:10B6600099F8B842F8D3049702F0D8FAA01C02F077
:10B6700091F8009988420CD23006E2D009E0A01C73
:10B6800002F088F80099814203D22088022800DB6A
:10B690000225280005B0F0BD80B5104800780321D0
:10B6A00003220240012A02D0014002290BD100F0FE
:10B6B00017F800F05AF800F013FA012000F06EFAC3
:10B6C000012000F08CFA01BD34080000580600206B
:10B6D00014000020409C00008CC20008841600204A
:10B6E0001FB5FA24A4000294C820019006200090FF
:10B6F00000231C220D212D20FFF7F7FE2300C82276
:10B7000000211120FFF781FD2300C8220021022023
:10B71000FFF77BFD2300C82200213820FFF775FDCD
:10B720002300C82200210320FFF76FFD2300C82259
:10B7300000211920FFF769FD2300C8220021042001
:10B74000FFF763FD2300C8220C211420FFF75DFDE5
:10B750002300C82200211220FFF757FD2300C82232
:10B7600000211620FFF751FD1FBD70B500F02DF828
:10B77000BB480078800627D50F25FA24A40000F0E6
:10B7800045F80600200002F029FB6D1E032E01D0B3
:10B79000002DF4D1934DA91C002001F0D3FF00F03F
:10B7A00079F8002808D1200002F018FBA81C01F04D
:10B7B000F1FFC2498842F2D300F0E3F800F014F937
:10B7C000002801D100F054F970BD1FB5A44CBC484D
:10B7D00002909620400001900620009000230E2247
:10B7E00001210520FFF781FE0628207802D12021C3
:10B7F000014301E0DF21014021701FBD70110020D5
:10B80000940E00203C080000E8040020FEB500264D
:10B810000024FA208000029096204000019006202B
:10B82000009000230A2205210920FFF75EFE06286A
:10B830002BD16C4D3A212800083001F08DFFA14931
:10B840006F1800281DD0801C00902C2101F084FF6F
:10B8500005001DD02E70009802F0B9FAC1B263291C
:10B8600004D0062901DC022400E0032438702C20D7
:10B8700028707B484178CF220A4021011143417052
:10B8800006E063203870012402E0052800D1052479
:10B890002000FEBD7CB500250024012000F03AF810
:10B8A0000600FA2080000090012E01D002F096FAE6
:10B8B0006D1C02F0B3F9012E09D0E8B25A28ECDB76
:10B8C00067480178BF220A400270200076BD644DAF
:10B8D00028784021014329700026022000F01AF840
:10B8E000012807D0009802F079FA761CF0B23C28C3
:10B8F000F3DB08E02878802101432970012403202C
:10B9000000F008F8E1E728784006400E2870DCE7F0
:10B910005A0600201FB50024962252009E4B012893
:10B9200007D1029301920620009000230A220321EE
:10B9300014E0022808D1029301920620009000230F
:10B940000A220421072009E0032809D10293019269
:10B950000620009000230A220F212E20FFF7C5FDAC
:10B9600006280BD12C21CC4801F0F6FE002805D08A
:10B970004078312801D0352800D10124200004B0BE
:10B9800010BD1FB54E480290962040000190062041
:10B9900000900023282219212B20FFF7A6FD06285E
:10B9A00016D19B4C206FFFF791FC002801D1042495
:10B9B0000EE0E06EFFF78AFC002801D1032407E0C7
:10B9C000A06EFFF783FC002801D1022400E00024D0
:10B9D00023484178F1220A4061000E230B401343B3
:10B9E00043701FBD5806002010B590B00123AB482E
:10B9F000826AAB4903A802F005FAAA480290962091
:10BA0000400001900620009000231522202103A869
:10BA1000FFF762FD062819D1A34800900123A3482F
:10BA2000026800BF0FA103A802F0ECF92B219A488D
:10BA300001F092FE040009D003A801F09BFEC2B2FF
:10BA4000210003A802F012FA810101E00021002088
:10BA50009C4A5378BF241C402143517010B010BD44
:10BA60008416002025732025642C222573222C00A7
:10BA700010B590B08C48009001238848826A00BFBE
:10BA800011A103A802F0BEF98E4C864802909620C0
:10BA9000400001900620009000231522202103A8D9
:10BAA000FFF71AFD0628607802D14021014301E02A
:10BAB000BF210140617010B010BD0000204E000099
:10BAC0008813000056080000257325642C312C22B1
:10BAD0002573222C22222C22222C300D0000000063
:10BAE00080B5FA239B009622520000212820FFF700
:10BAF0008CFB00F001F801BDFEB500250027834C4A
:10BB00002D26834802909620400001900620009048
:10BB100000231E2215212720FFF7E7FC062834D139
:10BB200022215D4801F018FE00282ED0322121701C
:10BB3000302161704178A1708178E17026710179BE
:10BB400061714179A171E571E671C1792172017A62
:10BB50006172A5722021A172817AE172C17A21738A
:10BB600065733A216173427BA273827BE273257411
:10BB70002174017C6174407CA074E5745148417863
:10BB800080220A434270012704E026703920607049
:10BB9000A070E5703800FEBD2823000030B58DB0E0
:10BBA00005002B003D48C26A3D49684602F02AF96B
:10BBB000444C3C4B9622520000216846FFF72CFB78
:10BBC0000028207803D104210143217005E0FB21E6
:10BBD000014021702800FFF761FC0DB030BD1FB59A
:10BBE000384C30480290962040000190062000908A
:10BBF0000023192210211A20FFF777FC062820784D
:10BC000002D10421014301E0FB21014021701FBD4D
:10BC1000E804002070B52B4C207803250321014057
:10BC2000012902D02840022806D100F0EBF90120BA
:10BC3000FFF734FCFFF71AFC042601F0EFFF8E48F3
:10BC400002F0CCF8761EF8D1FFF792FB20780321A2
:10BC50000140012902D00540022D14D1FFF71CFD3F
:10BC600002F082F9FFF7B1FDFFF7D0FD0120FFF7E9
:10BC700051FE0220FFF74EFE0120FFF70FFC0120CE
:10BC8000FFF78CFF02E00821014321707B4800216F
:10BC90000180817070BD000060060020EC03002070
:10BCA0008CC20008F04902000E1500206805002033
:10BCB00001B50023DB4301226946B84800F052FD7C
:10BCC00001BD00008416002010B5040002E0FFF75B
:10BCD000EFFF641C20780028F9D110BDF8B50025CD
:10BCE000924E00900C00170003E0200002F076F85E
:10BCF0002D19BD4208D200993000083001F0A5FF8F
:10BD00000028F2D00120F2BD0020F2BD990E0020E3
:10BD1000B80B0000F8B5A8B0B34DA878C00701D59E
:10BD200001204EE028A102A802F06CF8FA277F005B
:10BD3000BF4E33003A00002102A8FFF771FA002835
:10BD40002BD1BC4C23002B332200173224A102A894
:10BD500002F058F833003A00002102A8FFF760FA19
:10BD600000281AD1B44A390023A0FFF7B7FF0028F2
:10BD700027D0200041300190200031300090AF4B9F
:10BD800021A2962102A802F0D3F93300AC4A002187
:10BD900002A8FFF745FA002801D0002011E0320088
:10BDA000390000BF20A0FFF799FF040001F036FF23
:10BDB000A24800F005F9A878FE2101402143A970AE
:10BDC000200029B0F0BD000041542B514D54434692
:10BDD000473D2253534C222C302C300D0A000000DA
:10BDE00041542B514D544F50454E3D302C2225731C
:10BDF000222C25730D0000002B514D544F50454E01
:10BE00003A20302C3000000041542B514D54434F08
:10BE10004E4E3D302C222573222C222573222C22BB
:10BE20002573220D0A0000002B514D54434F4E4EF6
:10BE30003A20302C302C300010B5A0B002000C009D
:10BE40000FA1684601F0DEFF794BC8220921684640
:10BE5000FFF7E6F9002801D000200AE02000FFF7F4
:10BE600033FF1A20FFF724FF734AC8210BA0FFF706
:10BE700035FF20B010BD0000C4090000940E002062
:10BE800041542B514D545055423D302C302C302CC8
:10BE9000312C222573220D0A000000002B514D5435
:10BEA0005055423A20302C302C300000F8B5A0B06C
:10BEB0002C2101F051FC002836D02C21401C01F02F
:10BEC0004BFC002830D0851C8021684602F056F9D2
:10BED0002221280002F05AF9002825D0441B7F2C8B
:10BEE00000D97F2422002900684602F05DF9002075
:10BEF000694608553C4CA07802270743BF4DEE7AAF
:10BF00000BA1684601F0A1FE002802D001203043B9
:10BF100008E000BF08A1684601F097FE002803D0A2
:10BF2000FE203040E872A77021B0F0BD5806002016
:10BF3000737461727400000073746F70000000000D
:10BF400080B5AF49AF48FFF777FF02BDF8B50124D0
:10BF500025498B78FD221A4002200340A748C67A63
:10BF6000FF250C3535481F0008D0F70706D58A7025
:10BF70000BA1FFF761FF040001210AE0002B0BD0A9
:10BF8000F30709D48A7000BF09A1FFF755FF040029
:10BF90000021280002F066F92000F2BD7011002097
:10BFA00056454849434C452053544152544544005A
:10BFB00056454849434C452053544F505045440042
:10BFC00080B5A0B0020000BF08A1684601F01AFFCA
:10BFD000174BFA22520000216846FFF721F9401E54
:10BFE0008041C00F21B000BD8416002041542B5168
:10BFF0004D545355423D302C312C222573222C3088
:10C000000D00000038B5FA25AD006C0023002A00B1
:10C0100029213D20FFF7F9F823002A002A213E209C
:10C02000FFF7F3F890488178FE220A40827031BD14
:10C03000B80B00005441010888130000FC140020D4
:10C04000581B0000E0B5FA208000029096204000C6
:10C0500001900620009000231C220D211520FFF7DF
:10C0600044FA062803D1012000F01AF80EBD002082
:10C070000EBDE0B5FA2080000290962040000190AD
:10C080000620009000231C220D212D20FFF72DFA01
:10C09000062803D1022000F003F80EBD00200EBDDB
:10C0A000F1B582B03A21714801F056FB0025002815
:10C0B00021D0801C00902C2101F04EFB07001AD0EB
:10C0C0003D70009801F083FE04002C20387020069B
:10C0D00011D0012069460870781C01902C2101F0D4
:10C0E0003BFB070007D03D70019801F070FE060091
:10C0F0002C20387001E0684605706846007A5C497B
:10C10000012802D18C70CE7003E0022801D10C709E
:10C110004E7068460078FEBDF8B59CB003005548E7
:10C12000C26D00BF59A103A801F06CFEFA20800087
:10C1300002909620400001900620009000235A2291
:10C140000E2103A8FFF7C8F9062801D007283CD123
:10C15000494C2C212000083001F0FEFA002811D0B3
:10C16000801C0090222101F0F7FA07000AD0002677
:10C170003E702225009801F0FDFAC0B2801F1228FF
:10C1800002D33D70032021E000993C48201801F0C3
:10C19000F9FA3D700A21380001F0DEFA0028F1D0EA
:10C1A000401C00900D2101F0D7FA0700EAD03E7044
:10C1B000009801F0DFFA1B28E4D2009930482018DB
:10C1C00001F0E0FA3D70012000E004201DB0F0BD58
:10C1D00000B58DB003002748026E00BF2BA1684652
:10C1E00001F010FE274B9622520000216846FFF70F
:10C1F00013F8401E8041C00F0DB000BD00000020AC
:10C20000E80E0020A9410108F8B5B0B003000D0008
:10C21000002400271748C26C1EA103A801F0F2FDFC
:10C2200096267600FA239B003200092103A8FEF728
:10C23000F3FF002815D1280001F09CFAC0B21A21A2
:10C240002954281844701048029001960620009046
:10C25000162308220B212800FFF73EF9062800D1FB
:10C260000127380031B0F0BD8416002060060020A0
:10C27000AF0E0020EC030020580600205B080000F1
:10C2800074080000B80B0000F04902002573256413
:10C290000D0000002573222573220D00FFB500223A
:10C2A0000F2302932DE0052603E0AC4EB042FAD1F5
:10C2B0000426AE402643009C2660A94C2568DC433A
:10C2C00025404E68F60200D51D43A54E35607568C1
:10C2D00025404F68BF0200D51D437560A14D6E68B3
:10C2E00026404D68AD0300D51E439E4D6E602E68FE
:10C2F00034404E68F60302D526001C0034432C60FF
:10C30000521C0B681C00D4407DD0012595402B4069
:10C31000F6D054000327A740FE4301964E68B707A6
:10C32000BF0F012F03D0B607B60F022E0ED18768BC
:10C33000019E3E40CF68A740374387604668AE43C2
:10C340004D68EF06FF0F9740374347600D79AD0703
:10C35000AD0F032D25D0C568019E2E408D68A540E8
:10C360003543C5600D79AD07AD0F022D19D1D50844
:10C37000AD0045192E6A039697001C263E406F4675
:10C380003E70039EB446029F6E463678B7406646BE
:10C39000BE43B4460F696E463678B74066463743AB
:10C3A0002F6207680326019D3D404F683740BC4619
:10C3B00027006446BC402C4304604C68350425408B
:10C3C0009ED0694C9508AD0064190094009C2468C7
:10C3D000D70018253D40029FAF40BC43A027FF0572
:10C3E000B84201D1002664E7604FB84201D101266E
:10C3F0005FE75F4FB84201D102265AE75D4FB8426E
:10C4000000D052E755E7FFBDF0B585B002005548B2
:10C4100000900491002348E0052703E04F4DAA4215
:10C42000FAD10427BC46DF0018253D406746AF40DF
:10C43000BE421AD1039EF543009E36682E40009FEF
:10C440003E60009E76682E40009F7E60444E766877
:10C450002E40434F7E603E46366835403E4635604E
:10C46000019D2D68A543019C256003245D00AC401F
:10C4700001941468019D25431560DC08A40014197B
:10C48000256A9F001C263E400F27B740BD4325620A
:10C49000019DEC439568254095605568029EB54323
:10C4A0005560D5682C40D4605B1C049CDC402BD0CC
:10C4B00001249C400294049C029D25400395039C0A
:10C4C000002CF1D0284C9D08AD0064190194019C0A
:10C4D00026680F24DD0018272F40BC402640A025E9
:10C4E000ED05AA4201D100279CE7204DAA4201D1C7
:10C4F000012797E71E4DAA4201D1022792E71D4D61
:10C50000AA428BD103278DE705B0F0BD0069084032
:10C5100000D00120C0B27047002A01D0816170476D
:10C520008162704742690B0013401B049143194319
:10C530008161704770B5040025000F4E30682840B7
:10C5400003D03560200001F0DAFA7068284003D08B
:10C550007560200001F0DAFA70BD00000010005094
:10C560000018024080180240601802400004005089
:10C5700000080050000C00500C18024010B5544C3C
:10C5800054482060E120400260600020A060E0602C
:10C5900020610C216161A061E061206260620FE0B6
:10C5A00010B54D4C4D482060E120400260600020F5
:10C5B000A060E06020610C216161A061E061206207
:10C5C000A062200000F098F8002801D001F03CFBA8
:10C5D0000021200001F0D7FE002801D001F034FB3B
:10C5E0000021200001F0E8FE002801D001F02CFB22
:10C5F000200001F0ABFE002801D001F025FB10BDAA
:10C60000F8B505000F001600380001F0B3F804007B
:10C610003300A2B23900280000F0A4F8002801D0AD
:10C6200001F012FB2E484481F1BD000000682B4947
:10C63000884200D0704710B52A4C217860780006F7
:10C64000000C01432848814226DA207861780906E7
:10C65000090C0843A179220008321154207861782E
:10C660000906090C0843401C2070000A60702078FD
:10C6700061780906090C0843002122000832115490
:10C680001AA12000083001F0E0FA002807D02000AD
:10C690000830FFF70BFC02E0207008206070A11C3E
:10C6A000002001F04FF80122A11D0B4800F0C7F84F
:10C6B00010BD10B5084CA04208D1012021680862C5
:10C6C000200002F05CF8200001F0E8FF10BD00003F
:10C6D000DC100020003801407011002000480040AC
:10C6E0007416002058060020330800002B514D54CA
:10C6F000524543563A00000038B5040001D10120EC
:10C7000032BD250084356868002803D128702000D8
:10C7100001F0C4FF24206860206801680122914371
:10C720000160A06A002802D0200000F095FB2000E4
:10C7300000F04AFA012811D020684168084A0A40EE
:10C740004260206881682A229143816020680168E4
:10C7500001220A430260200000F0E8FB32BD000025
:10C76000FFB7FFFFF1B584B01F0006465436706B6B
:10C77000202861D10C000FD068460280002A0BD01F
:10C780000498806880214901884207D10498006993
:10C79000002803D1E00701D501204EE00025F56314
:10C7A0002120706302F01EF8010068460088308086
:10C7B0006846008870803A000498806880235B0196
:10C7C000984209D104980069002805D12500049FEA
:10C7D0000192029104001AE02000F8E721788162BA
:10C7E000641C11E001980090029B00228021380017
:10C7F00000F006FC00281BD13868002CEED12988F7
:10C80000C905C90D8162AD1C7088401E708070889A
:10C810000028E7D13800029B0199009100224021B5
:10C8200000F0EEFB002803D120207063002004E01C
:10C8300020207063032000E0022005B0F0BD70B539
:10C840008C23C358202B2BD100290BD0130009D0E7
:10C85000836880246401A34206D10369002B03D1BD
:10C86000CB0701D5012070BD0023C36603680D4CC2
:10C87000A34212D00C4CA3420FD05B681B020CD514
:10C88000EFF31083012484F3108804682568802660
:10C89000F6042E43266083F3108800F002FC70BD7E
:10C8A000022070BD0080004000840040FEB50400FE
:10C8B0002368D869194609689A6825005C352026DE
:10C8C0000E4000962026064001960026B74F0740EE
:10C8D0000ED1019F002F10D0009F002F02D1D70052
:10C8E00000D487E0A969002901D020008847F7BD5E
:10C8F000AF4F174002D1AF4F0F407BD0C70706D5CF
:10C90000CF0504D501271F626B6B1F436F6383073D
:10C9100008D5D30706D5022327683B626B6B042733
:10C920001F436F630423184207D0D70705D5276834
:10C930003B626B6B02271F436F63082318420AD0C8
:10C94000009F002F02D19A4F174004D027683B6206
:10C950006F6B3B436B6380231B01184007D048017A
:10C9600005D520680362686B202101436963686B09
:10C97000002835D00198002809D00098002801D15E
:10C98000D00004D5A969002901D020008847686B30
:10C99000402721688968394002D12821014024D0EC
:10C9A000200000F015FC20688068074019D0EFF3E4
:10C9B0001080012181F3108821688A6840239A43FE
:10C9C0008A6080F31088686A00280AD07A498163F7
:10C9D000686A01F0EFFF002802D0686A816B88471F
:10C9E000F7BD2000FFF765FEF7BD2000FFF761FEF1
:10C9F0006E63F7BD2F69012F00D094E010273842F5
:10CA000000D0394200D18EE01F621020C04321685F
:10CA1000896849064BD5696A0A68526892B2002A49
:10CA2000E7D05C23E35A9A42E3DA6A80096809682E
:10CA3000890634D4EFF31081012282F31088226832
:10CA400013685E4F1F40176081F31088EFF3108169
:10CA5000012282F31088226893680127BB43936008
:10CA600081F31088EFF31081012282F3108822688D
:10CA700093684027BB43936081F31088202129638A
:10CA80002E61EFF31081012282F31088226813686F
:10CA90001840106081F31088686A01F050FF02208E
:10CAA00068615C20205A6988411A89B237E05C21AC
:10CAB000615A6A88891A6A4611806988002973D088
:10CAC0006946098800296FD0EFF31081012282F3B3
:10CAD0001088226813683A4F1F40176081F310884E
:10CAE000EFF31081012282F3108822689368354F9A
:10CAF0001F40976081F31088202129632E61AE6169
:10CB0000EFF31081012282F3108822681368184025
:10CB1000106081F310880220686168460188200057
:10CB200002F06EF8F7BDC70208D5570206D580207F
:10CB300040031862200002F064F8F7BD80231B0454
:10CB40008027384209D00F4001D11A4005D0E96949
:10CB5000002929D020008847F7BD4022104214D078
:10CB60000A4012D0EFF31080012181F31088216870
:10CB70000A6840239A430A6080F310882020E86204
:10CB8000EE61200002F03EF8F7BD034005D04A00F8
:10CB900003D5200002F037F8F7BDC00104D5002905
:10CBA00002D5200002F030F8F7BD00000F080000A9
:10CBB00001000010200100044DD20008FFFEFFFF1D
:10CBC000DFFEFFFFFEFFFFEFF8B5050000242B6836
:10CBD000186891490140A8680843296901436869B8
:10CBE0000843E9690143196058688C490140E868C5
:10CBF00008435860A8698A498B4205D089498B420D
:10CC000002D00100286A08439968874A0A40104305
:10CC10009860D86A0F218843696A0143D9628348C2
:10CC200080210902824E1022824FBB422ED13668EB
:10CC3000B607B60F30D0022E36D044D3032E31D0F3
:10CC4000774EB34202D0774EB34242D1002A08D089
:10CC5000022A0BD0042A00D192E0082A00D192E0E7
:10CC6000CEE002F0D9FA002800D1CAE072496A6A1F
:10CC70005200895A02F00AFB6A68510089188842FA
:10CC800003D31103814200D37FE0B9E06B4FBB4275
:10CC90000CD136680C27374070D0042F13D0082FE2
:10CCA00002D00C2F56D0CBE70222C9E79C4FBB42E3
:10CCB0000BD136683027374060D0102F03D0202F9B
:10CCC000F2D0302FEEE70422BAE7964FBB4229D1CB
:10CCD0000022954F5AA6EB698B426AD1002A06D0F2
:10CCE000022A08D0042A5FD0082A60D088E002F027
:10CCF00093FA002869D069680091696A4900715AFD
:10CD000002F0C4FA4000009949084018009902F066
:10CD1000BDFA01001039B94272D207400007400F36
:10CD2000384365E0AD4FBB42D2D0AD4FBB42CFD010
:10CD30003B4FBB4210D13768C02636013E401DD064
:10CD40004F09BE42BFD00F09BE42ADD0C0273F0140
:10CD5000BE4200D1082273E7324FBB42B9D13768D7
:10CD6000C026B6003E4009D0CF09BE42ABD08F09E5
:10CD7000BE4299D0C027BF00BE4293E700225FE7C2
:10CD800002F006FA6FE7080070E7070E0602500887
:10CD9000002180197941002302F093FA914941184A
:10CDA000914A91422CD223E002F0F2F9A1E7080067
:10CDB000A1E7002A06D0022A08D0042A1BD0082A9C
:10CDC0001CD01DE002F028FA00281AD069680091F2
:10CDD000696A4900715A02F059FA009949084018E5
:10CDE000009902F053FA01001039B94208D280B21A
:10CDF0002968C86005E002F0CBF9E5E70800E5E73F
:10CE00000124280068300121418001800021C16097
:10CE100001612000F2BD0000F369FFCFFFCFFFFFEB
:10CE20000080004000840040FFF4FF110024F40063
:10CE3000541002400038014040CE00080044004039
:10CE4000010002000400060008000A000C001000A7
:10CE500020004000800000012821415C090706D520
:10CE600001684A68614B1340826B1A434A6028216B
:10CE7000415CC90706D501684A685D4B1340C26A28
:10CE80001A434A602821415C890706D501684A682F
:10CE9000584B1340026B1A434A602821415C4907F2
:10CEA00006D501684A68544B1340426B1A434A60E6
:10CEB0002821415CC90606D501688A684F4B13409A
:10CEC000C26B1A438A602821415C890606D5016835
:10CED0008A68B94B1340026C1A438A602821415C6E
:10CEE000490611D501684A68B44B1340426C1A4395
:10CEF0004A60426C80235B039A4205D14A68B04B7A
:10CF00001340826C1A434A602821415C090606D509
:10CF100001684A68AB4B1340C06C184348607047C7
:10CF200000480040004C0040F0FF0000FEB5060045
:10CF3000370084370024FC6001F054FC0190202568
:10CF400030680068000717D59F480090019B0022B9
:10CF50002904300000F054F800280DD0EFF31080C1
:10CF6000012181F3108831680A6880239A430A609E
:10CF700080F310887D6026E030680068400725D582
:10CF800091480090019B00226904300000F038F8BD
:10CF900000281BD0EFF31080012181F31088316845
:10CFA0000A688A4B13400B6080F31088EFF31080FF
:10CFB000012181F3108831688A6801239A438A60CD
:10CFC00080F31088BD603C700320FEBD7D60BD60B5
:10CFD000F46634673C700020FEBD00000050004045
:10CFE000003C014000FDFFFF00FD0F00FF7FFFFF41
:10CFF000FFFFFDFFFFFFFEFFFFFFFBFFFFEFFFFF58
:10D00000FEB580273F0108240025060001916846EF
:10D01000027002933068C069019901400198814211
:10D0200001D1012000E0002069460978884236D10C
:10D0300008980021C9438842ECD001F0D3FB029943
:10D04000401A0899814201D3002901D10320FEBD75
:10D05000306800684007DDD501988028DAD0402884
:10D06000D8D03068C0692040306803D1C0693840EA
:10D07000D0D009E00462300000F0AAF8300084301B
:10D08000C46005700120FEBD30680762300000F00A
:10D090009FF8300084302021C1600570D6E7002061
:10D0A000FEBDF4B5816501005C316A4612880A80D4
:10D0B0006A4612884A8000248C6187688022520563
:10D0C000FF25130C9F4204D10669002E10D1584D44
:10D0D0000EE07F26002F03D10769002F05D107E05E
:10D0E000974207D10569002D01D18E8003E03F25CD
:10D0F0008D8000E08C804C6322240C63EFF310845D
:10D10000012585F310880568AE6801273743AF60B5
:10D1100084F310888C685500AC4228D16C46248872
:10D120008D89AC4223D384689C4205D10369002BCE
:10D1300002D1404B8B6110E03F4B8B6101690029AC
:10D140000BD0EFF31081012383F3108803681C6870
:10D15000150D25431D6081F31088EFF31081012325
:10D1600083F31088006883681A43826011E0826844
:10D170009A4212D10269002A0FD1304A8A61EFF334
:10D180001081012282F31088006802682023134373
:10D19000036081F310880020F2BD294A8A61016989
:10D1A0000029ECD0EFF31081012282F3108800688F
:10D1B000026890235B00EAE7FFDFFFFFFFFFEFFF5E
:10D1C000FFFF9FFFFFFFF7FFFFFFFF01DFFEFFFFF6
:10D1D00010B5EFF31081012282F310880268136802
:10D1E000184C1C40146081F31088EFF31081012269
:10D1F00082F3108802689368134C1C40946081F39A
:10D200001088C16E01290BD1EFF31081012282F346
:10D210001088026813681024A343136081F31088F8
:10D2200020218C2281500021C166416710BD000081
:10D23000FF0100007DD50008E3D3000809D30008F2
:10D2400061D20008DFFEFFFFFEFFFFEF80B5806ABE
:10D250000100563100220A810A80FFF72AFA01BD37
:10D2600070B501005C3102680B6B222B47D1526A0A
:10D270008B881340826D1370826D521C82654A88C0
:10D28000521E4A804A88002A3DD1EFF310820123C2
:10D2900083F3108803681C68B44D25401D6082F339
:10D2A0001088EFF31082012383F3108803689C68D1
:10D2B0000125AC439C6082F3108820220A6300227F
:10D2C0008A614A610368AA4CA34211D0A94CA342C7
:10D2D0000ED05B681B020BD5EFF31083012484F39F
:10D2E000108804682568A44E2E40266083F31088B9
:10D2F0000B69012B00D15CE0FFF798F970BD9069D4
:10D3000008210143916170BD70B501005C31026874
:10D310000B6B222B47D1526A8B881340826D13808E
:10D32000826D921C82654A88521E4A804A88002A71
:10D330003DD1EFF31082012383F3108803681C684A
:10D340008A4D25401D6082F31088EFF3108201237F
:10D3500083F3108803689C680125AC439C6082F3CA
:10D36000108820220A6300228A614A610368804C87
:10D37000A34211D07F4CA3420ED05B681B020BD599
:10D38000EFF31083012484F31088046825687A4E33
:10D390002E40266083F310880B69012B00D108E032
:10D3A000FFF744F970BD906908210143916170BD98
:10D3B00000000A61EFF31081012282F310880268F5
:10D3C00013681024A343136081F3108801681022AE
:10D3D000CB69134000D00A625C21415A01F010FC75
:10D3E00070BDFEB505005C35AB880468E769214671
:10D3F0000968A2682D6B222D00D0B1E005005C35D4
:10D40000AC89002C06D00400029301910092002602
:10D410001BE0200001005C314A88002A00D1A3E013
:10D420008B899A4200DB9FE0EFF31082012383F3A4
:10D43000108803689C68B44D25409D6082F3108875
:10D44000B24A71E12000FFF7F1F8B806E1D5206893
:10D45000406A02990140A06D0170A06D401CA0655A
:10D460006888401E68802068C769790727D0F90757
:10D4700007D50199C90504D501210162686B0143F3
:10D4800069630420B90708D50099C90705D50221A9
:10D4900022681162696B01436963074208D00099F1
:10D4A000C90705D521680862686B022101436963D9
:10D4B000686B002803D02000FFF7FBF86E636888D4
:10D4C0000028C2D1EFF31080012181F31088216878
:10D4D0000A688F4B13400B6080F31088EFF31080C5
:10D4E000012181F3108821688A688A4B13408B6080
:10D4F00080F3108820202863AE616E6120681C498B
:10D50000884211D01B4988420ED0406800020BD5DA
:10D51000EFF31080012181F3108821680A68164B0F
:10D5200013400B6080F31088286901288AD12E618E
:10D53000EFF31080012181F3108821680A6810231D
:10D540009A430A6080F310882068C169C90601D532
:10D55000102101625C20215A200001F051FB74E788
:10D56000A06908210143A161F7BD0000DFFEFFFFB4
:10D570000080004000840040FFFFFFFBFEB5050077
:10D580005C35AB880468E76921460968A2682D6BA1
:10D59000222D00D0B2E005005C35AC89002C07D00C
:10D5A0000400684603800291019200261BE02000DF
:10D5B00001005C314A88002A00D1A3E08B899A429D
:10D5C00000DB9FE0EFF31082012383F310880368F0
:10D5D0009C684D4D25409D6082F310884E4AA3E023
:10D5E0002000FFF723F8B806E1D52068406A6946B5
:10D5F00009880140A06D0180A06D801CA06568882D
:10D60000401E68802068C769790726D0F90707D5CA
:10D610000299C90504D501210162686B0143696360
:10D62000042002210F4207D0019AD20704D52268B4
:10D6300011626A6B02436A63074207D0019AD207FC
:10D6400004D522681062686B01436963686B002827
:10D6500003D02000FFF72DF86E6368880028C2D140
:10D66000EFF31080012181F3108821680A68284BAC
:10D6700013400B6080F31088EFF31080012181F3D9
:10D68000108821688A68234B13408B6080F31088D0
:10D6900020202863AE616E6120682049884211D045
:10D6A0001F4988420ED0406800020BD5EFF310806E
:10D6B000012181F3108821680A681A4B13400B601E
:10D6C00080F31088286901288AD12E61EFF3108039
:10D6D000012181F3108821680A6810239A430A60A7
:10D6E00080F310882068C169C90601D51021016244
:10D6F0005C20215A200001F083FA74E7A069082118
:10D700000143A161F7BD0000FFFFFFEF61D20008F8
:10D71000FFFEFFFFFEFFFFEF09D30008008000407F
:10D7200000840040FFFFFFFB8A61EFF310810122BC
:10D7300082F310880068026820231343036081F39A
:10D740001088F7BD84460870000A4870000A887087
:10D75000000AC87060467047C9B202788A4203D096
:10D76000401C002AF9D1002070470268531C036056
:10D7700011707047431C0178401C0942FBD1C01A4C
:10D7800070473E000023DB435B1CCA5C002AC25486
:10D79000FAD17047C3788278417800781B021A4327
:10D7A000090212040843104370472E00F8B586B0F2
:10D7B00001F0C6FD00F0F6F9142101A800F0DEFC2E
:10D7C0000124B148016821430160016821400091B2
:10D7D0000099022102680A4302600068014000913A
:10D7E0000098A027FF050022E1033800FEF794FE11
:10D7F000E0030190029400260396049601A93800E4
:10D80000FEF74CFD10200190C42080030290039687
:10D8100001A99E48FEF742FD00220021062001F0EA
:10D82000CCFD062001F0CEFD00220021072001F0F2
:10D83000C4FD072001F0C6FD0122D1033800FEF728
:10D840006BFEB54CA68201F0F1FDB448E064042003
:10D850002065B348A065606520004C3001F0B2FE41
:10D8600000F0DCF9FEF78AFE00F0B0FC01F0E0FE0B
:10D8700001F076FFFDF722FC00F00CFB00F0CEF982
:10D8800002F002FCFDF774FD00F06EFB02F036FCC6
:10D8900001F048FE00F0C2F9FDF7FEFE01F061FE66
:10D8A000012002F0D3FBB34D002028706870A91C42
:10D8B000FFF748FF00F062F902F08CFB6670E06A47
:10D8C000206321001A310020FFF73CFF21001631B0
:10D8D0000020FFF737FF21001E310020FFF732FF45
:10D8E000A54828180090AB4D00F098F902F016F802
:10D8F00002F0D2F900F042F900F075F82000223071
:10D90000FFF748FFFF21683188420CD32100223104
:10D910000020FFF717FFA048007801F094FE00F008
:10D920002DF901F01EFE20001A30FFF733FF9B494E
:10D93000884207D321001A310020FFF703FF01209E
:10D9400002F084FB20001630FFF724FF9449884240
:10D950001BD3210016310020FFF7F4FE2878810642
:10D960000DD5009989780B2909DA009909780B29D6
:10D9700005DA410603D5010601D5000705D5FEF7F6
:10D9800049F92878F7210140297020001E30FFF75F
:10D9900001FFA54988420CD321001E310020FFF76A
:10D9A000D1FEFEF7D3FA00F073F802F0E7FC02F0C4
:10D9B000F1FC20002630FFF7EDFE9C49884206D39B
:10D9C000210026310020FFF7BDFE02F067FDA08A8E
:10D9D000C92805DB802109023800FEF7A3FDA682D5
:10D9E00000F089FB80E710B56A4800780321032224
:10D9F0000240012A02D00140022942D1464C206B4C
:10DA0000E16A884234D300F009F9FDF7FFFE00F027
:10DA10005FFBFEF771F8FDF7B4FF00F0AFF8E1210E
:10DA2000890020005C3000F0A9FB207C2178814235
:10DA30000FD0012803D1002908D1022104E00028D9
:10DA400004D1012902D1012002F074F92078207458
:10DA500003E00021002002F06DF900F063F80128D6
:10DA600002D16088401C60800020206302F0B2FA7E
:10DA700020786178884201D002F0ACFA02F0AAFA6C
:10DA800010BDFDF775FC10BD3410024000040050BD
:10DA900070B500208025ED00032465491E4AD37A25
:10DAA000DB071AD41278012A16D1624B1A785E78F5
:10DAB0003606360C32430FD1087048708870C87033
:10DAC000087148718871C871280001F008FF64204E
:10DAD00000F084F9641EF7D170BD10220A704870FE
:10DAE0008870C870087148718871C871280001F089
:10DAF000F6FE642000F072F9641EF7D170BD1028A4
:10DB000000D0704780B500F039F801BD102802D16F
:10DB10000020494908707047000000200030004094
:10DB2000FF0F0000F8B500270025434CFEF7F2F880
:10DB30000600012E02D1FEF703FA06006D1C002E2E
:10DB400001D1FEF75FFA20004C3001F066FD002E97
:10DB500003D1E8B20228E9DD0AE0012E08D13748F6
:10DB60000770477087706088401C608002F032FA4E
:10DB70003000F2BD580600203C08000080B510219E
:10DB80002F48FEF7C3FC002800D001202A49087066
:10DB900001BD0000841600202A120020514600001A
:10DBA0003175000030B593B03C2104A800F0E6FACE
:10DBB000684600210022002300241EC0802080002F
:10DBC00002F0D0FC0A200490F63007900894402020
:10DBD000099001200A9002250C950D950E940820BD
:10DBE0000F90C020C00210902806119000011290E2
:10DBF00004A801F00BF8072000900195029403940B
:10DC00000221684601F016FA01F003FBFA218900AF
:10DC100001F03CFB01F0ECFB13B030BD80B50948CE
:10DC200001F0FBFC01BD0000983A0000B80B0000B9
:10DC3000081300202412002000000020940E002071
:10DC4000000400504C000020704770B50D78002D86
:10DC500011D00C0004E0491C0E78964207D0401CFD
:10DC60002900FFF779FD002805D0010023005B1C87
:10DC70001A78002AEFD170BDFCB587B00C001500F2
:10DC8000002B01D0002119600390064600E0761CAD
:10DC9000307802F08DFC0028F9D1300001782D2970
:10DCA00001D02B2903D16A461170401C02E02B21C0
:10DCB0006A4611700194002D03D4012D01D0252D49
:10DCC00004DB002C54D00398206051E0002D0ADDC5
:10DCD000102D16D10178302913D1417820220A4322
:10DCE000782A0ED10AE00178302901D00A2508E00F
:10DCF000417820220A43782A02D11025801C00E0B6
:10DD00000825069000E0401C01783029FBD0002453
:10DD100005902B4A7A44A83228326B465A700295F5
:10DD2000049F05000494264E7E44943608E0049433
:10DD300069464978471AFFB202984443E4196D1CBA
:10DD4000287802F03EFC029A01003000283002F0F0
:10DD500041FC0028EBD1029938002F00049D069A5F
:10DD6000BA4207D10198002802D0039801990860AF
:10DD7000002022E0059ABA1A735CD21A002A11D444
:10DD800005DC201A03D301F081FAA8420AD000BFB3
:10DD900000BF0898002802D00120089908600024DC
:10DDA000E44305E0684600782D2801D16042040074
:10DDB0000198002800D00760200009B0F0BD00BF26
:10DDC0001065000080B50023FFF756FF02BD80B547
:10DDD000FFE70A220021FFF7F5FF02BD38B5050075
:10DDE00000F000FD04000020C043854202D004483A
:10DDF00000782D1800F0F6FC001BA842FAD331BDC4
:10DE0000C80500200CB418B583B004000A0006A8A9
:10DE1000029001940020009002AB01A908487844C8
:10DE20001E3002F0E7FB0021019A1170002801D496
:10DE30000198001B04B0019910BC03B0084700BF53
:10DE40002BF9FFFFF8B50025002307000E00140092
:10DE50003900DBB2E018FFF77FFC002805D06D1C0D
:10DE6000031B5B1CE9B2B142F2D1F2BDD0B5012473
:10DE7000002607E0012404E0845D8F5DBC42F9D0F8
:10DE80000024761C964201DA2700F5D12000D0BD8F
:10DE90000000430038B586B00124A2480168214340
:10DEA00001600068204000900098A025ED05002248
:10DEB00020212800FEF730FB20200190029400244E
:10DEC0000394049401A92800FEF7E8F99648047029
:10DED00044800471447420228454252284542F22C7
:10DEE0008454372284544E300470847107B030BD9E
:10DEF000E0B5FA20800002909620400001900620B4
:10DF0000009000230C2224213420FDF7EEFA06288D
:10DF10000BD13A218548FFF71FFC002805D08078F7
:10DF2000312802D10120012101E0002100207E4A98
:10DF300011700EBD10B57C4CFA239B000100012826
:10DF400008D1C82200213520FDF75FF900280AD149
:10DF5000012007E0002806D1C8223720FDF755F937
:10DF6000002800D1207010BD80B5FFF7C1FF002848
:10DF700002D10120FFF7DEFF01BDFEB50027694693
:10DF80000F70694CFA239B00C82200213620FDF750
:10DF90003CF9002800D092E0644A01212C20FFF7D0
:10DFA00051FF002816D0461C320001212C20FFF71B
:10DFB00049FF05000ED02F703100201DFFF7E2FB56
:10DFC0002C262E70681C0190024601212C20FFF7A0
:10DFD00039FF050073D02F70019920001130FFF731
:10DFE000D1FB2E70681C0190024601212C20FFF706
:10DFF00029FF050063D02F70019920004E30FFF7F4
:10E00000C1FB2E70681C0190024601212C20FFF7F5
:10E0100019FF050053D02F70019920002530FFF71C
:10E02000B1FB2E70681C0190024601212C20FFF7E5
:10E0300009FF050043D02F70019920005A30FFF7E7
:10E04000A1FB2E70681C0190024601212C20FFF7D5
:10E05000F9FE050033D02F70019920002F30FFF713
:10E0600091FB2E70681C0190024601212C20FFF7C5
:10E07000E9FE050023D02F70019920003730FFF70B
:10E0800081FB2E706A1C02212C20FFF7DBFE00288A
:10E0900015D0461C320001210D20FFF7D3FE0500EC
:10E0A0000DD02F70310020002030FFF76BFB0D20CA
:10E0B000287001206A461070E077A77002E0A0780F
:10E0C000401CA07068460078E07768460078FEBD86
:10E0D00010B5FFF752FF144CA07815280ADBFFF7A4
:10E0E00007FF002802D00020FFF724FFFFF73CFFC6
:10E0F0000020A07010BD0C494878012800DC704752
:10E1000080B500204870A020C005C97F012903D137
:10E110002021FEF707FA01BD00222021FEF7FCF9BD
:10E1200001BD000034100240A01400206006002051
:10E1300008B410B585B007AB0493002403940029FC
:10E1400002D10194029402E00190491E02910094D0
:10E1500004AB01A9084878441E3002F04BFA01993B
:10E16000002900D00C70002800D4039805B0019954
:10E1700010BC02B0084700BF49640000002200BF85
:10E18000094202D0491E4254FCD1704700BF020030
:10E19000C9B2002000E0521C13788B4200D110005D
:10E1A000002BF8D17047FEE7A4460024521E0AD384
:10E1B0000B5D0355641C1B42F8D1521E03D303555B
:10E1C000641C521EFBD264467047FEE710B586B051
:10E1D0001422002101A803F0B0F900F01CF802207D
:10E1E00055490A6802430A6009680840009000988F
:10E1F000524C012220212000FEF78EF920200190B0
:10E200000120029000200390049001A92000FEF755
:10E2100045F806B010BD10B5494C4A4820604A4840
:10E2200060600020A0600121E16020616061A06168
:10E23000E0612062200003F08BF9002801D0FFF795
:10E2400003FD0021200004F035F8002801D0FFF77D
:10E25000FBFC0021200004F04AF8002801D0FFF761
:10E26000F3FC10BD12B583B0040000222021334816
:10E27000FEF752F90220FFF7B1FDFA20800002906C
:10E280000120019003A8009002232200A0212C4825
:10E2900003F0C0F9002801D0FFF7D6FC0520FFF7F6
:10E2A0009DFD00F042F81FBDF8B5002507000E00E7
:10E2B000140005E0715D781980B2FFF7D3FF6D1C83
:10E2C000A542F7DBF1BD1FB50400002069460873C5
:10E2D00000F02BF8FA20800002900120019003A8A2
:10E2E000009002232200A021154803F075FA0028AF
:10E2F00001D0FFF7A9FC6846007B04B010BD7FB5D4
:10E3000004000D00160000F010F8FA2080000290C2
:10E310000196009502232200A021094803F05CFA2F
:10E32000002801D0FFF790FC7FBD80B5012220219D
:10E330000248FEF7F1F801BD34100240000400501D
:10E340005015002000540040BC7D701030B5010015
:10E3500084310A78012A01D1022030BD01220A70DD
:10E3600024224A600268136814680125AC431460D3
:10E3700000224266224C1C40006804602020486055
:10E380000A70002030BD70B504002500843528785F
:10E39000012801D1022070BD01202870242068606E
:10E3A00020680668026801239A4302602068826838
:10E3B000D200D208114317E070B50400250084355F
:10E3C0002878012801D1022070BD01202870242066
:10E3D000686020680668026801239A43026020682A
:10E3E0008268084B134019438160200000F00CF84C
:10E3F00020680660202068600020287070BD000042
:10E40000FFFFFFDFFFFFFFF1F8B50400606E00289B
:10E4100002D10120012517E0206881680901490F18
:10E4200000918068410F00BF0CA600BF09A7785C6F
:10E43000C000715C00F016FF05000098385CC00059
:10E440000099715C00F00EFF210068314D8008805A
:10E45000F1BD0000010101030701000008040204EE
:10E460000801010180B58748012142680A434260E2
:10E4700042681140009100998021490502680A43D1
:10E48000026000680140009100988020800000F048
:10E4900069FF01BDF0B599B007001422002101A861
:10E4A00003F04BF84C22002106A803F046F8386828
:10E4B000734988424FD18020C001069000241294F5
:10E4C00006A803F03DFF002801D0FFF7BDFB6E4812
:10E4D00080214903C2680A43C260C26811400091AA
:10E4E00000990125016829430160016829400091D4
:10E4F0000099022102680A4302600068014000910D
:10E500000098C020019003260296039401A9A02040
:10E51000C005FDF7C3FE01950296039401A95B486F
:10E52000FDF7BCFE5A4D5B48286005206860AC6072
:10E53000EC6080202861800068618000A861202054
:10E54000E8612C62280000F053F9002801D0FFF7A1
:10E550007BFB3D65AF6219B0F0BD18B599B0040002
:10E560001422002101A802F0E8FF4C22002106A895
:10E5700002F0E3FF2068484988423AD180208004B5
:10E5800006900024189406A803F0DAFE002801D0B3
:10E59000FFF75AFB3C48810C82680A43826082681C
:10E5A000114000910099012102680A43026000684D
:10E5B000014000910098C02040010190022002908B
:10E5C000039404940320059001A9A020C005FDF741
:10E5D00065FE00220021152000F0EFFE152000F05E
:10E5E000F1FE00220021162000F0E7FE162000F0C8
:10E5F000E9FE1AB010BD30B599B004001422002114
:10E6000001A802F09AFF4C22002106A802F095FF13
:10E6100020686C49884230D12020069000250C9556
:10E6200006A803F08DFE002801D0FFF70DFB0220A5
:10E63000154C216801432160216808400090009832
:10E64000C0200190122002900395049506200590A9
:10E6500001A90E48FDF722FE80208003A168014336
:10E66000A160A168084000900098002200211720B6
:10E6700000F0A3FE172000F0A5FE19B030BD000089
:10E68000002401403C1002403410024000040050BD
:10E69000401400200800024000640040F0B599B02A
:10E6A000040014220021684602F047FF4C2200219A
:10E6B00006A802F042FF20680224444D0026444987
:10E6C00088422BD101270697079606A803F038FE4B
:10E6D000002801D0FFF7B8FA6003E9680143E96058
:10E6E000E96808400590059828683843286028683C
:10E6F000384005900598C020C00000900194029613
:10E70000039604976946A020C005FDF7C7FD0022C7
:10E7100000211B2000F051FE1B202CE02D498842D7
:10E720002BD104270697099606A803F009FE0028B6
:10E7300001D0FFF789FA6004A9680143A960A968BC
:10E7400008400590059828682043286028682040E4
:10E7500005900598C02080000090019402960394D3
:10E76000049769461C48FDF799FD002200211D20F1
:10E7700000F023FE1D2000F025FE19B0F0BD80B58D
:10E7800000681149124A90420BD14868134A02406E
:10E790004A60C021C900A020C005FDF735FE1B203E
:10E7A0000CE00C4A90420BD108680D4A02400A6006
:10E7B000C02189000848FDF727FE1D2000F00BFE50
:10E7C00001BD0000005400403C10024034100240E3
:10E7D000003801400048004000040050FFBFFFFF28
:10E7E000FFFFFBFF01484068704700BFC8050020DD
:10E7F00038B5040001D1012032BD206814216C4AD3
:10E80000904207D2884A801800F040FD8000606482
:10E81000864806E0864A801800F038FD8000606473
:10E8200084482064022025216054206800688249C1
:10E8300001402068016020680168A2680A43E1681D
:10E84000114322690A4361691143A2690A43E169DC
:10E850001143226A0A430260200000F08BF9002570
:10E86000A0688021C901884200D1656020794006F6
:10E87000400EA16C0860206DE16C48606068002863
:10E880000AD0052808D2200000F097F9606D0560D5
:10E89000E06DA16D486002E06565A565E565E5632D
:10E8A000012025216054FFE724202554002032BD9B
:10E8B000F2B50400002000262421615C012901D169
:10E8C0000220F2BD2100243101250D702527E75DCE
:10E8D000012F2ED102212527E155E0632068016830
:10E8E000A94301600099200000F027F92068216BFE
:10E8F0000029016801D00E2205E004229143016045
:10E90000206801680A220A430260A16C28020A6892
:10E91000D20302D50A6802430A60616D002903D060
:10E9200009680843616D0860206801680D4305604F
:10E9300003E08022E263087001263000F2BD70B56A
:10E94000002809D00100243100222523C35C022BBA
:10E9500004D00423C3630A70012070BD03681C68DF
:10E960000E25AC431C60846C714B25681D402560EE
:10E97000046825680126B543256001244425455DCA
:10E980001C262E400125B540066C7560056DC66CD1
:10E990007560456D002D06D02D682B40456D2B60B0
:10E9A000C36D856D6B602523C4540A70002070BD53
:10E9B0000804024070B50021002401222523C35C15
:10E9C000022B03D00421C16301242AE003681D68DF
:10E9D0000E26B5431D6003681D6895431D60856C58
:10E9E000534B2E681E402E604425455D1C262E404C
:10E9F0000125B540066C7560056DC66C7560456D8A
:10EA0000002D06D02D682B40456D2B60C36D856DA4
:10EA10006B602523C25424228154816B002900D0CD
:10EA20008847200070BD0000F8FFFDBF00000240D5
:10EA3000F8FBFDBF000402400F80FFFFFEB5016C34
:10EA40000968029101680A6801924422825C1C23D1
:10EA500013406A46137004232022029C6D462D78D1
:10EA60000426AE40264014D0019C1C4011D00C68F6
:10EA7000224002D10A689A430A604421415C1C2268
:10EA80000A409340016C4B60016B00294DD08847D0
:10EA9000F7BD012302240025029EB4466E46367857
:10EAA0000227B740664637401FD0019E26401CD043
:10EAB0000E68324005D10A680A26B2430A60252151
:10EAC00043544421415C1C220A4094400168434A5B
:10EAD000914201D3424900E042490C60242145544F
:10EAE000C16A002921D08847F7BD082264466E46D6
:10EAF00036780827B740274017D0019C224014D011
:10EB00000A680E24A2430A604421415C1C220A4088
:10EB100001219140026C5160C3632521435424219B
:10EB20004554416B002900D08847F7BD0000000024
:10EB3000FFFEFFFF2521405C704770B5046DC56C7A
:10EB40006C60446D002C02D0C46D856D6C60012436
:10EB50004425455D1C262E40B440056C6C6004685D
:10EB600063608068102802D1A260E16070BDA1607E
:10EB7000E26070BD10B50400606C80088000216800
:10EB8000194A914208D2194A1018A064C8B208382C
:10EB9000142100F07BFB08E0154A1018A064C8B2ED
:10EBA0000838142100F072FBC01D1249E1640121F4
:10EBB000C006C00E8140216510BD01794906490E8D
:10EBC0008A000D4BD21842650C4A82650122491E0B
:10EBD0008907890F8A40C2657047000081000240A2
:10EBE00004040240040002400804024000080240FD
:10EBF0001C08024080080240FC0802404009024014
:10EC000070477047704770477047FEE7FEB50500D4
:10EC10001BD0B64C2878C00719D5A1683820084009
:10EC2000E1688027BF02102808D18807800F0328D9
:10EC300006D069687808814233D13AE00828F8D1D3
:10EC40002068074003D06868002800D1E3E12878F5
:10EC500080077AD5A06838210140E268A448A54F12
:10EC600010294DD19207920F022A4BD0E968002952
:10EC700000D194E02168084029690143216020689F
:10EC8000A10D01432160FFF7ADFD0600206840059E
:10EC900000D57DE0FFF7A6FD801B0328F6D30320F7
:10ECA000FEBDA022D202914207D1216882000A4310
:10ECB000226021680843206007E02068B6490140CF
:10ECC00021602068B54901402160686800280BD0A8
:10ECD000FFF788FD060020683840B8D1FFF782FDB5
:10ECE000801B6528F7D3DAE7FFF77CFD0600206874
:10ECF0003840ACD0FFF776FD801B6528F7D3CEE710
:10ED00000029B3D12268520502D5EA68002A3ED014
:10ED1000626817406A6912023A43626000290ED1A4
:10ED2000216808402969014321609D48012122682A
:10ED30009204520F914000F0A9FAB8490860B8480F
:10ED4000006803F04FFC002821D102272878000733
:10ED50000AD5A06838210140182930D1206E3840EA
:10ED600002D0A869002812D02878400700D4A5E076
:10ED700000200190A06838210140202941D1E06D98
:10ED8000074000D19AE0A868002800D096E042E150
:10ED9000606807406869000238436060D5E7206812
:10EDA000A04901402160FFF71DFD060020684005D5
:10EDB000CBD5FFF717FD801B0328F7D36FE7A869B2
:10EDC0000028206E0ED0012101432166FFF70AFDC5
:10EDD0000600206E3840C7D1FFF704FD801B0328D2
:10EDE000F7D35CE7012188432066FFF7FBFC0600B0
:10EDF000206E3840B8D0FFF7F5FC801B0328F7D30E
:10EE00004DE7F806E16B014008D1E16B0143E16396
:10EE1000E16B08400090009801200190824F386813
:10EE2000C00512D4A00D00903868009901433960E4
:10EE3000FFF7D8FC060038680099014005D1FFF7BC
:10EE4000D1FC801B0328F6D329E7A86801210128FB
:10EE500005D00528E06D06D104220243E265E06D8D
:10EE60000143E16505E08843E065E06D04218843E6
:10EE7000E0650227A86800280CD0FFF7B3FC060065
:10EE8000E06D384013D1FFF7ADFC801B6749884225
:10EE9000F6D304E7FFF7A6FC0600E06D384006D085
:10EEA000FFF7A0FC801B61498842F6D3F7E6019882
:10EEB000002803D0E06B5E490140E16328788006BA
:10EEC00029D580273F04E8690028206814D07908F4
:10EED00001432160FFF786FC0600206838401AD104
:10EEE000FFF780FC801B0328F7D3D8E60010024010
:10EEF000FFC7FFFFFF80FFFFA24901402160FFF72E
:10EF000071FC06002068384005D0FFF76BFC801BC1
:10EF10000328F7D3C3E6286A002855D0A168382211
:10EF20000A40102A52D08027BF049749022820683F
:10EF300038D101402160FFF755FC060020683840B9
:10EF400005D0FFF74FFC801B0328F7D3A7E6E06846
:10EF50008E490140686A0843A96A0143E86A0002D1
:10EF60000843296B0143686B0843A96B0143E160C7
:10EF70002068790801432160E068F9000143E160FD
:10EF8000FFF730FC0500206838401DD1FFF72AFC50
:10EF9000401B0328F7D382E6FFFFFEFFFFFFFBFFC6
:10EFA0000024F40001402160FFF71CFC05002068EC
:10EFB000384005D0FFF716FC401B0328F7D36EE658
:10EFC000E0689C490140E1600020FEBD012822D09C
:10EFD000E0688107890F6A6A91421CD17021014063
:10EFE000AA6A914217D1FE21C9010140EA6A1202C0
:10EFF000914210D1F821890301402A6B91420AD134
:10F00000E021090501406A6B914204D1400F40079D
:10F01000A96B8842D8D00120FEBD00BFD4050020D6
:10F02000D0050020FFFEFFFF0070004089130000A4
:10F03000FFFFFFEFF8B5070066D000917E4800683B
:10F040004007400F884218D27B4C20680721884334
:10F05000009901432160FFF7C5FB009D0600206871
:10F060004007400FA84207D0FFF7BCFB801B734945
:10F070008842F4D30320F2BD00953968714C022018
:10F0800001420CD0490704D5A168E022D2010A430D
:10F09000A260A1686A4A0A40B9681143A1600725C5
:10F0A000ED433978C90732D57968012918D120682C
:10F0B000800329D5A06828400143A160FFF792FB97
:10F0C0003E000700A068382101407068C0008142FE
:10F0D0001CD0FFF787FBC01B58498842F2D3C9E711
:10F0E000022902D12068800103E0002903D12068B1
:10F0F0004005DFD408E0032903D1226E1040D9D1A6
:10F1000002E0E26D1040D5D10120F2BD3700009839
:10F11000494909684907490F884217D2464800689B
:10F1200005400098284344490860FFF75BFB009DB9
:10F130000600414800684007400FA84206D0FFF78C
:10F1400051FB801B3D498842F3D393E73878400751
:10F1500005D5A0683C490140F8680843A06000F06C
:10F1600017F83A49A2681205120F9200895CC90685
:10F17000C90EC840364908603648006803F032FAC4
:10F18000F2BD0000FFFFBFFFFFFFFFFE8C80C1113B
:10F1900030B5072131482B4C3823A2681A4006D1DC
:10F1A00023680122DB0A19408A4011001EE0420850
:10F1B000A5681D40082D01D1100030BDA5681D4077
:10F1C000102D16D1E368E5682D092940491C7F25DB
:10F1D0009B079B0F032B00D1100000F057F8E1684C
:10F1E000090A0D406843E168490F491C00F04EF8D8
:10F1F00030BDA0681840202802D18020000230BD18
:10F20000A0680340182B02D1FA20C00130BD0020B5
:10F2100030BD0F48006870470F4801680C4800680F
:10F220000F4A4904490F8900515CC906C90EC840FC
:10F2300070470000FCFFFEEE002002408913000032
:10F24000FFF0FFFF00100240FF8FFFFF6443010843
:10F25000D4050020D0050020081002400024F4004E
:10F26000F8440108CA0F00D0494203105A400DD09B
:10F2700004B500D3404200F009F8009AD20701D348
:10F280004942124200D5404204BD0000094214D058
:10F2900088420FD30122030C01D100041204002381
:10F2A00000185B418B4200D35B1A5241F8D319001E
:10F2B0001000704701000020704708B503F0B8F94E
:10F2C00008BD12422DD0994231D970B500251B429C
:10F2D00009D00C00002112E01100FFF7D7FF0A004F
:10F2E0000021002370BD0942F6D0002401264918F0
:10F2F0006441944200D3A41A7641F8D33100012628
:10F3000001E0764109D2001864416D41A41A9D4183
:10F31000F7D2A4185D41B619F5D3300022002B00B6
:10F3200070BD1B42CFD108B503F084F908BD01D1EF
:10F330009042CAD202000B00002100207047FEE775
:10F3400010B500240B480168820D0A4302600320B7
:10F3500003F048F9002801D0012401E0FFF782F80A
:10F36000200010BD04490A68044B1340184308608C
:10F37000704700000020024000000140FFF9FFFF3D
:10F3800010B5C20018231340FF249C40E2438907B4
:10F39000090E9940030004D41F489B089B00C01825
:10F3A00006E01E4B0007000F083880088000181880
:10F3B00003681A401143016010BD80B5FFF7E0FFFC
:10F3C00001BD0000010005D40121C006C00E81402E
:10F3D000134801607047010009D40121C006C00E26
:10F3E000814010480160BFF34F8FBFF36F8F7047AC
:10F3F00010B5401E80214904884201D3012010BD70
:10F40000094C606003210020C043FFF7B9FF0020D2
:10F41000A0600721216010BD00E400E01CED00E0C9
:10F4200000E100E080E100E010E000E0F8B588B025
:10F43000142103A8FEF7A2FE0126574801683143B4
:10F4400001600168314000910099022102680A437D
:10F4500002600268114000910099416831434160A7
:10F460004068304000900098002200210920FFF7FA
:10F47000A4FF0920FFF7A6FF684600210022002311
:10F480000EC0464C46482060300560600025A560EF
:10F49000E560802000062061082767612583A67645
:10F4A000E6616562A5622C216654256307206063CE
:10F4B0003C216554E564200003F0D1F8002801D018
:10F4C000FEF7C2FB3748009001966946200003F022
:10F4D00031FA002801D0FEF7B7FB334800906946A7
:10F4E000200003F027FA002801D0FEF7ADFB2F48DB
:10F4F00000906946200003F01DFA002801D0FEF7B5
:10F50000A3FB039704960595069503A92848FCF7E5
:10F51000C5FE28480178AE220A401121114301702E
:10F5200009B0F0BD80B5032223491C4803F0A8F9B7
:10F5300001BD70B51F4CA568204E606880B203F015
:10F54000EBFB310003F0F8FB03F04EFC2082A8B285
:10F5500003F0E2FB310003F0EFFB03F045FC6082B7
:10F5600070BD80B513480178154A438A934202DB87
:10F5700002230B4301E0FD230B4003700178038A53
:10F58000934202DB01220A4301E0FE220A4002709C
:10F59000FEF744FB01BD0000341002407813002048
:10F5A00000240140400000188000001C00010020E1
:10F5B0000004005060160020641600201283903F63
:10F5C0004C04000070B5050001D1012070BD286811
:10F5D000144901601449016069684160A96881604B
:10F5E000FFF700F9072406002868C16821400AD007
:10F5F000FFF7F8F8801B3228F6D32868C06820404F
:10F60000F2D0032070BDE96802698A4201D001612D
:10F6100001E006490160002070BD044900680160F6
:10F6200000207047CCCC000055550000AAAA00006D
:10F6300010B5474C20002630FEF7ACF821002A31E7
:10F64000FEF780F810BD010000D17047F0B5404CC6
:10F65000A18F0918A18722004732117853781B0621
:10F660001B0C19432200473209181170090A517006
:10F67000A1880818A08037480225374EFA21890052
:10F68000A28F8A4216DB230043331A785F783F0645
:10F690003F0C3A4323004333521C1A70120A5A702B
:10F6A000A28F521AF37A2B43F37293B2834200DB98
:10F6B0000022A287230047331A785F783F063F0C69
:10F6C0003A438A4222DB4E22A25A521C4E23E25275
:10F6D000230047331A785F783F063F0C3A432300F4
:10F6E0004733521A1A70120A5A70F27A2A43F27287
:10F6F000230047331A785F783F063F0C3A43824233
:10F7000004DB20004730002202704270A08888424B
:10F710001CDB20002630FEF73DF821002631401C7E
:10F72000FEF710F8A088FA218900401AA080F07A2C
:10F730000543F57220002630FEF72CF80749884271
:10F7400004D3210026310020FDF7FCFFF0BD0000AE
:10F750001013002010270000000000208096980061
:10F76000F8B5664F6648386000247C60BC60FC6079
:10F77000012038747874BC74082078611020B86156
:10F780000C20F86103203862012078620420B862FE
:10F790000521F962386301207863BC63FC6338009B
:10F7A00003F040FB002801D0FEF74EFA5548002137
:10F7B0000170C1750176417641830177032141775C
:10F7C0003323C4543423C4543723C454048701223C
:10F7D0008277C47704842223C4542623C454272365
:10F7E000C4542823C4542E23C4542F23C454302378
:10F7F000C454448784874223C452434A5485948521
:10F800000600483634807471F480B460F460348249
:10F810003E4DEC72687A4006400E68722C73687B2D
:10F820002C2202406A73A87BFE220240AA73317523
:10F830008020C0056863AC63E96301202864344814
:10F8400068643448A86429003431380003F0E6FBCA
:10F85000002801D0FEF7F8F96C630120A863EC637F
:10F860002864C020800468648220C000A864290045
:10F870003431380003F0D2FB002801D0FEF7E4F960
:10F88000380003F00BFC002801D0FEF7DDF9002260
:10F890000121380003F008FD002801D0FEF7D4F95B
:10F8A0001D4828616C61AC610820E8612C626C62C3
:10F8B000AC62EC622C637475B475F1BDC90700D4F9
:10F8C000704780B5114B1A004C32402103F056FCB2
:10F8D000002801D0FEF7B8F900F020F801BD80B58E
:10F8E0000A4908610A0074321031044803F0ECFB45
:10F8F000002801D0FEF7A8F901BD0000DC130020AC
:10F9000000640040041200203016002094120020F1
:10F91000A7FF1110A7FF281009040000F0B585B05B
:10F92000D84C607900022179084369468880A37821
:10F93000E078000218434880227860780002104383
:10F940000880E0780490607802900393607BCE4D4D
:10F9500029004831E66CC027FF00F61B30D0761E28
:10F9600063D0CA4FF61B00D159E1C94FF61B00D135
:10F970005BE1C84FF61B75D0F0273F03F61B00D1A3
:10F9800090E0C027BF02F61B00D1A4E080277F02D1
:10F99000F61B00D1B9E0F61B00D1C8E07F00F61BD2
:10F9A00000D1CDE07F08F61B00D1E8E0FF00F61B98
:10F9B00000D1F7E0C027BF02F61B00D14AE15EE1AB
:10F9C000002088752F202A54607830216854607A8E
:10F9D000F72101401807C20FD0000843EF21014072
:10F9E0009806C20F100108436072E178227ABF23A3
:10F9F0001340CA0892011A435206520E0B09DB014A
:10FA000013432372FB230340C80982001A43627226
:10FA10000420024201D14807400FA877A079D830CE
:10FA20002E216854207B0121B9E000208875100246
:10FA300061780843288428003130217909026279ED
:10FA400011430170090A4170A0790002E17908436D
:10FA5000A885288C2121FFF719FC26216854207BDA
:10FA600002219CE04E7502980102100008430A2111
:10FA7000FFF7F8FBE875000A2876E0780102A07825
:10FA800008430A21FFF7EEFB80B2FA218900884281
:10FA900002DA0126081A00E0401A6E766883207B9D
:10FAA00004217CE000204875A079217AEF220A40E9
:10FAB000C107C90E1143F7220A408107CB0FD900B5
:10FAC0001143DF220A404007C10F48011043207252
:10FAD000207B082163E00020487502980102100095
:10FAE00008430A21FFF7BEFB332168540498010242
:10FAF000039808430A21FFF7B5FB3721685468468D
:10FB000080882887207B102149E068460088688724
:10FB100068464088A88768468088E887E0790002C0
:10FB2000A179084342216852207B202137E06946B1
:10FB300009887D4A518569464988918504219CE060
:10FB400000204875D8324A706078D8300870D833B1
:10FB50004B71E078D8308871C87BF9220240487830
:10FB600003003C3B052B01D2022002E0412802DBCE
:10FB7000042010430200CA73207B40210FE0CA71A9
:10FB8000607808724B72E07888722079C872607968
:10FB90000873A0794873E0798873207B8021014342
:10FBA00021736CE06049D306DB0E0B7052094A707A
:10FBB0009A00039B1D02029B2B439F04BF0C8D1CCC
:10FBC0001606F60DAF53521C6D462A709A0B049B15
:10FBD0009D001543227993022B439A04920C8D1CAD
:10FBE0006E4636787600AA536A461278521C9B0BF2
:10FBF00065792D011D43A3791B032B439F04BF0C83
:10FC00008D1C1606F60DAF53891C521C1206D20D20
:10FC10009B0BE579AD011D438D5208212DE0EA7063
:10FC2000617829716B71012127E0CB7B257A002A4D
:10FC300008D104222A432272FE221A408B7C5B1CCC
:10FC40008B7404E0FB222A40227201221A43CA73F9
:10FC5000102112E0032A0FD10F21E2780A40AA7185
:10FC60002279120163790B401343EB71A2791201DF
:10FC7000E37919401143297202210143617305B0F0
:10FC8000F0BD00009412002004120020A6F902101A
:10FC9000FEA7000002580E00F0B589B0234E707B1D
:10FCA000C10730D580072ED5214CE7780025182FC5
:10FCB00024DB2100093104A8FDF764FD207A0390BC
:10FCC000E0790290A07901906079009023793A0060
:10FCD0000EA120000930FEF795F8A5750E2221002F
:10FCE000093104A803F013FC000408D00E222100FF
:10FCF000093186204000FEF7D7FA00E06572707B7C
:10FD0000FC210140717309B0F0BD00003230253094
:10FD100032642530326425303264257825303278DB
:10FD200025303278000000003016002094120020A8
:10FD300004120020F8B5C4B005000E00FDF76EFFF8
:10FD4000A14C2100203108784A781206120C104389
:10FD50002121FFF79BFA2621605421002C310878DD
:10FD60004A781206120C104302F0D6FFB44903F091
:10FD7000E5FB03F035FC02000B0000BF93A13CA89B
:10FD8000FEF740F8AF48A900415839A8FDF7FAFC42
:10FD9000AD4DE87F012801D1462000E04E2035A975
:10FDA0000870607E0128A27EE07E04D10006000C6F
:10FDB0000243B4A103E00006000C0243BDA13AA82F
:10FDC000FEF720F835A8401C0670BB4E31004331C9
:10FDD00008784A781206120C104300BF7BA702F085
:10FDE0009BFF974903F0AAFB03F0FAFB02000B000C
:10FDF000390041A8FEF706F831004E3108784A78FC
:10FE00001206120C104302F087FF8D4903F096FB97
:10FE100003F0E6FB02000B0039003EA8FDF7F2FFFD
:10FE2000A648C08938A90880A5488178C2781206FA
:10FE3000120C1143230038331A785F783F063F0CC9
:10FE40003A4337AB9B1C1A80230038331A785F780B
:10FE50003F063F0C3A4337AB1A80230020331A7811
:10FE60005F783F063F0C3A4336AB9B1C1A80E37D1C
:10FE7000227E1206120C134336AA138032005C3223
:10FE8000167853781B061B0C1E4335AA921C16804D
:10FE9000220049328B4B8C4E3491C17ACF07FF0F31
:10FEA00033970021329131913091117C2F91D17B88
:10FEB0002E91F1782D913021615C2C912F21615C84
:10FEC0002B91917B2A91517B2991117B2891D17A99
:10FED0002791917A2691517A2591117A2491D1799D
:10FEE00023913EA9229141A921917849209138A9D5
:10FEF00009881F91764949780907490F1E91317881
:10FF00004907CE0F1D9691791C9137A9891C098844
:10FF10001B9137A909881A913AA919913721615C77
:10FF2000189136A9891C098817913CA91691A17FBF
:10FF3000159129003731149135A9491C097813917D
:10FF400039A912914921615C11913321615C1091B1
:10FF500036A909880F912621615C0E912E21615CE2
:10FF60000D915C490978C906CA0F0C9200780B9074
:10FF700035A8801C00880A905748185C0990280012
:10FF80002030089028004E30079028002F3006902F
:10FF9000280025300590280011300490281D03907A
:10FFA00035A8007802904D481818019020000930BB
:10FFB00000904B4B4B4A4C494C48FDF723FFFDF753
:10FFC0002DFE45B0F0BD00000412002025302E317A
:10FFD0006600000070B53A4D2878454E01280BD1D7
:10FFE000287030007330047841780906090C0C43FE
:10FFF000012000F02BF81AE0002818D130007530ED
:020000040801F1
:10000000047841780906090C0C43012000F01EF821
:1000100030480078C1070AD4800708D5002028702E
:1000200030007730047841780906090C0C433149D7
:10003000A4B2FA2080006043FDF784FB70BD00008D
:1000400000002041E0030020A014002038B5214C1E
:100050002178402500280BD1294208D00022082110
:100060002548FCF759FA2078BF210140217031BDA5
:100070004807F3D52942FAD100F006F82078054365
:10008000257031BD2D25640038B50A241A4D002293
:1000900008212800FCF740FA0120FDF79FFE01220D
:1000A00008212800FCF738FA0120FDF797FE641EAE
:1000B000EDD131BD2564000010130020641600202E
:1000C00000000020580600209C1200203A15002055
:1000D0008416002060160020560800004108000029
:1000E00041410108FC140020A03C0108E80E00205A
:1000F000544101082C00002000040050F0B58BB0E2
:10010000052206A90020FEF7FAF8944C06A801780B
:1001100011290BD14178222908D18178332905D1C1
:10012000C178442902D1007955280AD000F093F80B
:100130000020A070E0700222A11C8E204000FEF77B
:10014000B3F8874D122229000520FEF7D8F81422B3
:10015000290024313520FEF7D2F806222900383153
:100160004920FEF7CCF83420FEF7ADF8532168544F
:100170001122290012311720FEF7C1F8152229009B
:100180003E315320FEF7BBF8FF270C373800FEF74F
:100190009AF8002800D00120FE26E17A3140084379
:1001A000E072704D0E2128000930FDF7E7FF0E22A6
:1001B00029000931781CFEF7A2F8687A642803DA6E
:1001C000FF2801D0002806D10020687266484179D6
:1001D000FC220A4042713800FEF775F8002800D072
:1001E0000120E17A0E403043E072604DC52080006E
:1001F000FEF769F82870C0208000FEF764F8687088
:100200005B4E052201A93000FEF779F8594D042212
:1002100001A92800593003F07AF9000405D005221D
:10022000290059313000FEF73FF8082252498A2050
:100230004000FEF764F8022269468E204000FEF777
:100240005EF868460178090240780143A170090A06
:10025000E1700BB0F0BD38B586B0122101A8FDF7F2
:100260008DFF444C052221006C310020FEF71CF864
:100270003B4D2800FAF76FFF002804D01222290016
:100280000520FEF711F801A8FAF792FF002804D024
:10029000152201A95320FEF707F811222100713120
:1002A0001720FEF701F81422210083313520FDF7D5
:1002B000FBFF0622210097314920FDF7F5FF0522BB
:1002C000210059312A48FDF7EFFF2000DF30017887
:1002D00042781206120C11436D46090A2970017802
:1002E00042781206120C11436970022269464F20AF
:1002F000FDF7DAFF2000E130017842781206120C97
:100300001143090A2970017842781206120C114330
:100310006970022269465120FDF7C6FF114C0E227A
:100320002100093186204000FDF7BEFF00206072E9
:100330000D484179FC220A4042710121FF200C3016
:10034000FDF790FF054800218170C1700222811CD9
:100350008E204000FDF7A8FF07B030BD0000002050
:10036000FC140020041200209C12002080160020A3
:1003700002030000E84001084213002010B5FBF71B
:1003800061FE012805D13C4C2178607800F00EF820
:10039000207010BD10B5FBF76CFE012805D1374C5D
:1003A0002178607800F002F8207010BDF3B581B0BC
:1003B0000024334F334E0DE0316A3348FDF7E2F944
:1003C000010032483818FBF71FFF02E0E8B200F0E6
:1003D00030F8641C69460979E0B2884226D2684642
:1003E000007A002822D0E0B2FBF796FE0128E3D184
:1003F000E0B2FBF7EDFE012804D16846007A401E0A
:100400006946087200251E4F1E4E2806800D3018C2
:10041000816A1F483818FDF718FC6D1C002803D1AD
:10042000E8B20328F1DBD1E76D1ECFE76846007A1A
:10043000FEBD70B50100174AD37A174E124C114D0C
:10044000FF200C30002902D0012905D070BD012108
:100450001943D172012103E0FE211940D17200211C
:10046000FDF700FF29682000FDF78CF9010030003E
:10047000FBF7CAFE70BD0000B10E0020AF0E0020D9
:100480005806002094050020E80E00205B080000BC
:100490007408000000000020B30E002010B5FBF728
:1004A0002BFB002849D026490020FDF74BF92548B1
:1004B00001780A014178D0311143204CE170237852
:1004C000CAB29A4239D0C27812010079D0301043B2
:1004D000A070C0B2801E02282FD21B480078C00630
:1004E0002BD51A4840788006800F032825D118485C
:1004F0000078002821D12170012060700121C020E6
:100500008000FDF7AFFE2178C5208000FDF7AAFE30
:10051000FBF778FD6420FDF761FCFA235B002222E3
:100520000C490D48FCF71EF9BFF34F8F0B480C49DF
:100530000860BFF34F8F00BFFDE710BD801600209D
:1005400026000020A10E0020601600208416002046
:100550000000002008440108DC1000200400FA0517
:100560000CED00E010B50E4C21680E4A0A40024323
:100570002260610D884210D10B4800680621484373
:100580000A49FEF783FE401C00E0401E61694905F0
:1005900003D50028F9D1032010BD002010BD0000B4
:1005A00000700040FFF9FFFFD405002040420F001B
:1005B00010B5040003F044F801002000096A8847E0
:1005C00010BD10B5040003F03BF801002000896A5B
:1005D000884710BDC9B2521E05D30378401C8B4218
:1005E000F9D1401E704700207047FEE7010020202F
:1005F00008437047FDB5B2B03A98049102A93B2276
:10060000885400200D9024A8401C2F900DE00498E1
:10061000329A90470490002801D100F0B7FE0D985F
:10062000401C0D903398401C33903398017800297A
:1006300010D02529EBD100200790089009900A904E
:100640000B900C900021022401201490082012909D
:10065000339D05E00D9800F09BFE080014990143BE
:100660006D1C28782028F8D023280BD02B2804D004
:100670002D2804D0302808D00AE02143F0E70800F4
:100680000421ECE708000821E9E708001021E6E76B
:100690002A280FD1349802681068121D349B1A6002
:1006A0000F90002804D542420F9208000421014314
:1006B0006D1C12E000200F90644A09E00F9B9342EA
:1006C00005DA9E00F3185B00181830380F906D1C87
:1006D00028780300303B0A2BF0D328782E2803D04B
:1006E0000020C0430E9027E06D1C28782A2808D1EE
:1006F000349800680268001D349B18600E926D1CCF
:100700001AE02D2802D12D226D1C00E000220020CD
:100710000E900CE0002A09D10E9B4C4EB34205DA34
:100720009E00F3185B00181830380E906D1C287866
:100730000300303B0A2BEDD302A801872E7831004D
:1007400040487844FF30401EFDF706F8002801D0ED
:100750006D1C00E0002602A83A214654405C68283F
:1007600004D1287868280BD1622005E06C2807D1D5
:1007700028786C2804D1712002A93A2288546D1C73
:1007800015A80690287869460870681C339068465A
:1007900002781000253833D01C3800D1CCE1001F7E
:1007A000022800D8C8E1133801D100F019FD09383A
:1007B00000D1C1E1801E01D100F0AFFD401E01D18A
:1007C00000F05CFD401E022800D8B5E1001F01D1F9
:1007D00000F054FD401F00D108E1401E01D100F09F
:1007E000FFFC401E00D1F0E0C01E0ED0801E01D1E3
:1007F00000F0F6FCC01E01D100F0F2FC00F098FD04
:1008000014980790252015A97CE1349800680468A5
:10081000001D349908600594002C00D0C1E002A8A6
:100820003B21405C002800D1B5E00024E4430648A9
:100830007844143002F00EFF201A01D000F0A6FD1B
:1008400000F083FD203A0000543A0000CBCCCC0CE1
:1008500001236A4602A9280000F054FE002801D0B6
:1008600000F094FD641EF3D13295079D15AC002D68
:100870000FD0329E21780498B0470490002801D10F
:1008800000F084FD0D98401C0D90641C6D1EF1D18C
:1008900032963020694608700A9C002C0DDD329D8E
:1008A00001236A4602A9280000F02CFE002801D08E
:1008B00000F06CFD641EF3D13295059C089D002D5F
:1008C0000FD0329E21780498B0470490002801D1BF
:1008D00000F05CFD0D98401C0D90641C6D1EF1D164
:1008E0003296302769460F700B9C002C0DDD329D2F
:1008F00001236A4602A9280000F004FE002801D066
:1009000000F044FD641EF3D132950598089944180F
:10091000099D002D0FD0329E21780498B047049095
:10092000002801D100F032FD0D98401C0D90641C90
:100930006D1EF1D13296684607700C9C002C0DDDBF
:10094000329D01236A4602A9280000F0DBFD002841
:1009500001D000F01BFD641EF3D1329502A83821AE
:10096000405C400700D460E620206946087001988A
:10097000002800DC59E6019C329D01236A4602A949
:10098000280000F0BFFD002801D000F0FFFC641E2D
:10099000F3D1329549E61B4878446830059000F061
:1009A000D4FC0E9D002D03D52000FCF7E3FE09E0EA
:1009B0002A0000212000FFF70DFE002801D0001BB7
:1009C00000E02800089000F0C0FC3498006802683D
:1009D000001D349908600020C0430021104002AA85
:1009E00003C215A80590782100F093FC02A83B21D2
:1009F000415C002908D00024E4434B487844FF3090
:100A0000293017E7B43800003A21405C62286AD0E8
:100A1000682819D06A2845D06C2806D071284FD094
:100A2000742831D07A2821D06FE0349800680168AA
:100A3000001D349A106000297AD10024E4433B4819
:100A40007844FF301738F5E6349800680168001DD7
:100A5000349A1060002905D10024E44333487844D7
:100A6000CA30E7E60D98088000F06FFC3498006803
:100A70000168001D349A1060002959D10024E44314
:100A80002A487844A630D5E6349800680168001DED
:100A9000349A106000294BD10024E4432348784461
:100AA0008A30C7E6349800680268001D34990860EF
:100AB000002A13D10024E4431C4878446E30B9E680
:100AC000349800680268001D34990860002A05D136
