:020000040800F2
:10000000781C002009890008218300082583000846
:1000100000000000000000000000000000000000E0
:100020000000000000000000000000003183000814
:100030000000000000000000338300083583000842
:10004000172900081B29000863290008632F0008EE
:1000500013630008A3630008236400088B6500088D
:10006000EB760008D3770008BB790008DF7D000835
:100070002B7E0008CF8400080B8700081787000834
:100080009D8A00089F8A0008A18A0008A38A0008A8
:10009000A58A00086B830008758300087F83000829
:1000A000A78A0008A98A0008AB8A00089B83000879
:1000B000AD8A0008A5830008AF8A000838B504009F
:1000C00001D1012032BD250084356868002803D1A4
:1000D0002870200001F02AF9242068602068016857
:1000E000012291430160A06A002802D0200000F0A4
:1000F00095FB200000F04AFA012811D020684168E1
:10010000084A0A404260206881682A22914381603F
:100110002068016801220A430260200000F0E8FB29
:1001200032BD0000FFB7FFFFF1B584B01F000646E7
:100130005436706B202861D10C000FD068460280C5
:10014000002A0BD00498806880214901884207D199
:1001500004980069002803D1E00701D501204EE092
:100160000025F5632120706301F088F901006846DD
:10017000008830806846008870803A000498806863
:1001800080235B01984209D104980069002805D1B9
:100190002500049F0192029104001AE02000F8E774
:1001A00021788162641C11E001980090029B00227A
:1001B0008021380000F006FC00281BD13868002C94
:1001C000EED12988C905C90D8162AD1C7088401E19
:1001D000708070880028E7D13800029B0199009157
:1001E0000022402100F0EEFB002803D120207063A4
:1001F000002004E020207063032000E0022005B00E
:10020000F0BD70B58C23C358202B2BD100290BD007
:10021000130009D0836880246401A34206D10369D6
:10022000002B03D1CB0701D5012070BD0023C3668D
:1002300003680D4CA34212D00C4CA3420FD05B6854
:100240001B020CD5EFF31083012484F3108804689B
:1002500025688026F6042E43266083F3108800F07C
:1002600002FC70BD022070BD008000400084004090
:10027000FEB504002368D869194609689A68250004
:100280005C3520260E40009620260640019600266A
:10029000B74F07400ED1019F002F10D0009F002FB5
:1002A00002D1D70000D487E0A969002901D020003D
:1002B0008847F7BDAF4F174002D1AF4F0F407BD0FB
:1002C000C70706D5CF0504D501271F626B6B1F43F7
:1002D0006F63830708D5D30706D5022327683B62DF
:1002E0006B6B04271F436F630423184207D0D707A3
:1002F00005D527683B626B6B02271F436F6308239A
:1003000018420AD0009F002F02D19A4F174004D004
:1003100027683B626F6B3B436B6380231B01184074
:1003200007D0480105D520680362686B202101438E
:100330006963686B002835D00198002809D00098BF
:10034000002801D1D00004D5A969002901D02000DE
:100350008847686B402721688968394002D1282185
:10036000014024D0200000F015FC20688068074080
:1003700019D0EFF31080012181F3108821688A6879
:1003800040239A438A6080F31088686A00280AD064
:100390007A498163686A01F0B0F8002802D0686A7F
:1003A000816B8847F7BD200001F037F9F7BD2000C9
:1003B00001F033F96E63F7BD2F69012F00D094E08F
:1003C0001027384200D0394200D18EE01F62102041
:1003D000C0432168896849064BD5696A0A68526832
:1003E00092B2002AE7D05C23E35A9A42E3DA6A80A9
:1003F00009680968890634D4EFF31081012282F379
:100400001088226813685E4F1F40176081F31088C0
:10041000EFF31081012282F310882268936801278C
:10042000BB43936081F31088EFF31081012282F3C4
:100430001088226893684027BB43936081F310883B
:10044000202129632E61EFF31081012282F31088AD
:10045000226813681840106081F31088686A01F000
:1004600013F8022068615C20205A6988411A89B219
:1004700037E05C21615A6A88891A6A461180698866
:10048000002973D06946098800296FD0EFF31081E5
:10049000012282F31088226813683A4F1F401760C8
:1004A00081F31088EFF31081012282F31088226813
:1004B0009368354F1F40976081F31088202129638E
:1004C0002E61AE61EFF31081012282F31088226861
:1004D00013681840106081F3108802206861684634
:1004E0000188200001F0B0F8F7BDC70208D5570217
:1004F00006D5802040031862200001F0A6F8F7BD61
:1005000080231B048027384209D00F4001D11A40B4
:1005100005D0E969002929D020008847F7BD40228D
:10052000104214D00A4012D0EFF31080012181F361
:10053000108821680A6840239A430A6080F3108873
:100540002020E862EE61200001F080F8F7BD034052
:1005500005D04A0003D5200001F079F8F7BDC001AD
:1005600004D5002902D5200001F072F8F7BD000083
:100570000F0800000100001020010004110C000809
:10058000FFFEFFFFDFFEFFFFFEFFFFEFF8B50500F8
:1005900000242B68186891490140A868084329691C
:1005A000014368690843E9690143196058688C4947
:1005B0000140E86808435860A8698A498B4205D021
:1005C00089498B4202D00100286A08439968874A0A
:1005D0000A4010439860D86A0F218843696A014332
:1005E000D962834880210902824E1022824FBB4289
:1005F0002ED13668B607B60F30D0022E36D044D38F
:10060000032E31D0774EB34202D0774EB34242D15F
:10061000002A08D0022A0BD0042A00D192E0082A2E
:1006200000D192E0CEE001F018FB002800D1CAE032
:1006300072496A6A5200895A01F04AFB6A6851009D
:100640008918884203D31103814200D37FE0B9E0C7
:100650006B4FBB420CD136680C27374070D0042F4B
:1006600013D0082F02D00C2F56D0CBE70222C9E7B7
:100670009C4FBB420BD136683027374060D0102FDB
:1006800003D0202FF2D0302FEEE70422BAE7964FA6
:10069000BB4229D10022954F5AA6EB698B426AD101
:1006A000002A06D0022A08D0042A5FD0082A60D087
:1006B00088E001F0D2FA002869D069680091696A7F
:1006C0004900715A01F004FB4000009949084018A4
:1006D000009901F0FDFA01001039B94272D20740C9
:1006E0000007400F384365E0AD4FBB42D2D0AD4F5D
:1006F000BB42CFD03B4FBB4210D13768C02636013A
:100700003E401DD04F09BE42BFD00F09BE42ADD002
:10071000C0273F01BE4200D1082273E7324FBB42DF
:10072000B9D13768C026B6003E4009D0CF09BE42D5
:10073000ABD08F09BE4299D0C027BF00BE4293E71D
:1007400000225FE701F048FA6FE7080070E7070E44
:1007500006025008002180197941002301F0D3FAE4
:1007600091494118914A91422CD223E001F034FA88
:10077000A1E70800A1E7002A06D0022A08D0042A2F
:100780001BD0082A1CD01DE001F067FA00281AD0FF
:1007900069680091696A4900715A01F099FA0099F3
:1007A00049084018009901F093FA01001039B94244
:1007B00008D280B22968C86005E001F00DFAE5E7CB
:1007C0000800E5E70124280068300121418001800C
:1007D0000021C16001612000F2BD0000F369FFCF7C
:1007E000FFCFFFFF0080004000840040FFF4FF11B6
:1007F0000024F400541002400038014004080008AE
:1008000000440040010002000400060008000A0045
:100810000C00100020004000800000012821415CF5
:10082000090706D501684A68614B1340826B1A4379
:100830004A602821415CC90706D501684A685D4BBA
:100840001340C26A1A434A602821415C890706D5D1
:1008500001684A68584B1340026B1A434A602821CA
:10086000415C490706D501684A68544B1340426B06
:100870001A434A602821415CC90606D501688A6886
:100880004F4B1340C26B1A438A602821415C890692
:1008900006D501688A68B94B1340026C1A438A6016
:1008A0002821415C490611D501684A68B44B1340C0
:1008B000426C1A434A60426C80235B039A4205D122
:1008C0004A68B04B1340826C1A434A602821415C4D
:1008D000090606D501684A68AB4B1340C06C184343
:1008E0004860704700480040004C0040F0FF0000A6
:1008F000FEB50600370084370024FC6000F0BEFD22
:100900000190202530680068000717D59F480090A7
:10091000019B00222904300000F054F800280DD07B
:10092000EFF31080012181F3108831680A68802379
:100930009A430A6080F310887D6026E03068006882
:10094000400725D591480090019B002269043000A2
:1009500000F038F800281BD0EFF31080012181F35C
:10096000108831680A688A4B13400B6080F3108846
:10097000EFF31080012181F3108831688A68012328
:100980009A438A6080F31088BD603C700320FEBDEE
:100990007D60BD60F46634673C700020FEBD0000E1
:1009A00000500040003C014000FDFFFF00FD0F0033
:1009B000FF7FFFFFFFFFFDFFFFFFFEFFFFFFFBFFCE
:1009C000FFEFFFFFFEB580273F010824002506004A
:1009D00001916846027002933068C0690199014034
:1009E0000198814201D1012000E000206946097888
:1009F000884236D108980021C9438842ECD000F0E3
:100A00003DFD0299401A0899814201D3002901D184
:100A10000320FEBD306800684007DDD501988028BE
:100A2000DAD04028D8D03068C0692040306803D17F
:100A3000C0693840D0D009E00462300000F0AAF864
:100A400030008430C46005700120FEBD306807624C
:100A5000300000F09FF8300084302021C160057024
:100A6000D6E70020FEBDF4B5816501005C316A4621
:100A700012880A806A4612884A8000248C6187683E
:100A800080225205FF25130C9F4204D10669002ED7
:100A900010D1584D0EE07F26002F03D10769002F9B
:100AA00005D107E0974207D10569002D01D18E805D
:100AB00003E03F258D8000E08C804C6322240C6392
:100AC000EFF31084012585F310880568AE680127CF
:100AD0003743AF6084F310888C685500AC4228D14E
:100AE0006C4624888D89AC4223D384689C4205D10E
:100AF0000369002B02D1404B8B6110E03F4B8B61AF
:100B0000016900290BD0EFF31081012383F31088D2
:100B100003681C68150D25431D6081F31088EFF3F1
:100B20001081012383F31088006883681A43826070
:100B300011E082689A4212D10269002A0FD1304A2C
:100B40008A61EFF31081012282F310880068026845
:100B500020231343036081F310880020F2BD294A4B
:100B60008A6101690029ECD0EFF31081012282F340
:100B700010880068026890235B00EAE7FFDFFFFF50
:100B8000FFFFEFFFFFFF9FFFFFFFF7FFFFFFFF01EB
:100B9000DFFEFFFF10B5EFF31081012282F3108812
:100BA00002681368184C1C40146081F31088EFF33E
:100BB0001081012282F3108802689368134C1C4054
:100BC000946081F31088C16E01290BD1EFF310817D
:100BD000012282F31088026813681024A343136073
:100BE00081F3108820218C2281500021C166416749
:100BF00010BD0000FF010000410F0008A70D000814
:100C0000CD0C0008250C0008DFFEFFFFFEFFFFEF04
:100C100080B5806A0100563100220A810A8000F006
:100C2000FCFC01BD70B501005C3102680B6B222B2E
:100C300047D1526A8B881340826D1370826D521CAB
:100C400082654A88521E4A804A88002A3DD1EFF3C5
:100C50001082012383F3108803681C68B44D25407B
:100C60001D6082F31088EFF31082012383F3108854
:100C700003689C680125AC439C6082F310882022A5
:100C80000A6300228A614A610368AA4CA34211D018
:100C9000A94CA3420ED05B681B020BD5EFF3108367
:100CA000012484F3108804682568A44E2E40266031
:100CB00083F310880B69012B00D15CE000F074FC19
:100CC00070BD906908210143916170BD70B501004C
:100CD0005C3102680B6B222B47D1526A8B88134020
:100CE000826D1380826D921C82654A88521E4A80F2
:100CF0004A88002A3DD1EFF31082012383F3108844
:100D000003681C688A4D25401D6082F31088EFF34C
:100D10001082012383F3108803689C680125AC438B
:100D20009C6082F3108820220A6300228A614A6153
:100D30000368804CA34211D07F4CA3420ED05B6865
:100D40001B020BD5EFF31083012484F31088046891
:100D500025687A4E2E40266083F310880B69012B9C
:100D600000D108E000F020FC70BD9069082101432B
:100D7000916170BD00000A61EFF31081012282F3DE
:100D80001088026813681024A343136081F310884D
:100D900001681022CB69134000D00A625C21415ADD
:100DA00000F052FC70BDFEB505005C35AB880468F0
:100DB000E76921460968A2682D6B222D00D0B1E0B9
:100DC00005005C35AC89002C06D00400029301912B
:100DD000009200261BE0200001005C314A88002AB6
:100DE00000D1A3E08B899A4200DB9FE0EFF31082F1
:100DF000012383F3108803689C68B44D25409D60EF
:100E000082F31088B24A71E1200000F0CDFBB806F1
:100E1000E1D52068406A02990140A06D0170A06D83
:100E2000401CA0656888401E68802068C7697907F3
:100E300027D0F90707D50199C90504D50121016219
:100E4000686B014369630420B90708D50099C90795
:100E500005D5022122681162696B0143696307426B
:100E600008D00099C90705D521680862686B02217E
:100E700001436963686B002803D0200000F0CDFBBC
:100E80006E6368880028C2D1EFF31080012181F3DE
:100E9000108821680A688F4B13400B6080F310881C
:100EA000EFF31080012181F3108821688A688A4B52
:100EB00013408B6080F3108820202863AE616E6140
:100EC00020681C49884211D01B4988420ED04068D6
:100ED00000020BD5EFF31080012181F31088216807
:100EE0000A68164B13400B6080F3108828690128AC
:100EF0008AD12E61EFF31080012181F310882168DF
:100F00000A6810239A430A6080F310882068C16938
:100F1000C90601D5102101625C20215A200000F091
:100F200093FB74E7A06908210143A161F7BD0000AC
:100F3000DFFEFFFF0080004000840040FFFFFFFB5A
:100F4000FEB505005C35AB880468E7692146096891
:100F5000A2682D6B222D00D0B2E005005C35AC8973
:100F6000002C07D0040068460380029101920026FD
:100F70001BE0200001005C314A88002A00D1A3E078
:100F80008B899A4200DB9FE0EFF31082012383F309
:100F9000108803689C684D4D25409D6082F3108841
:100FA0004E4AA3E0200000F0FFFAB806E1D5206821
:100FB000406A694609880140A06D0180A06D801CCF
:100FC000A0656888401E68802068C769790726D0B8
:100FD000F90707D50299C90504D501210162686B9B
:100FE00001436963042002210F4207D0019AD2070E
:100FF00004D5226811626A6B02436A63074207D014
:10100000019AD20704D522681062686B01436963B4
:10101000686B002803D0200000F0FFFA6E63688838
:101020000028C2D1EFF31080012181F310882168DC
:101030000A68284B13400B6080F31088EFF3108090
:10104000012181F3108821688A68234B13408B604B
:1010500080F3108820202863AE616E6120682049EB
:10106000884211D01F4988420ED0406800020BD53B
:10107000EFF31080012181F3108821680A681A4B70
:1010800013400B6080F31088286901288AD12E61F3
:10109000EFF31080012181F3108821680A68102382
:1010A0009A430A6080F310882068C169C90601D597
:1010B000102101625C20215A200000F0C5FA74E77B
:1010C000A06908210143A161F7BD0000FFFFFFEF08
:1010D000250C0008FFFEFFFFFEFFFFEFCD0C000810
:1010E0000080004000840040FFFFFFFB8A61EFF3B7
:1010F0001081012282F310880068026820231343C4
:10110000036081F31088F7BD80B5844801214268EF
:101110000A434260426811400091009980214905CC
:1011200002680A4302600068014000910098802034
:10113000800000F039FE01BD81B000687849884226
:1011400008D1880C77490A6802430A600968084098
:101150000090009801B0704718B599B004001422AF
:10116000002101A800F02EFE4C22002106A800F06C
:1011700029FE20686C4988423AD18020800406907C
:101180000024189406A800F027FE002801D001F0E2
:10119000B8F9B048810C82680A43826082681140C5
:1011A00000910099012102680A4302600068014031
:1011B00000910098C0204001019002200290039409
:1011C00004940320059001A9A020C00501F0BAF9FC
:1011D00000220021152001F01EFB152001F020FB4C
:1011E00000220021162001F016FB162001F018FB4A
:1011F0001AB010BD30B599B004001422002101A826
:1012000000F0E0FD4C22002106A800F0DBFD206884
:101210009149884230D12020069000250C9506A8DF
:1012200000F0DAFD002801D001F06BF90220894CB2
:101230002168014321602168084000900098C02087
:10124000019012200290039504950620059001A9B3
:10125000824801F077F980208003A1680143A160F2
:10126000A16808400090009800220021172001F09A
:10127000D2FA172001F0D4FA19B030BD81B000685D
:101280008021C905884208D1012075490A680243B6
:101290000A60096808400090009801B07047006833
:1012A0007049884200D0704780B5802080026E4926
:1012B0000A6802430A60096808400090009800220A
:1012C0000021152001F0A7FA152001F0A9FA01BDAF
:1012D00010B586B004001422002101A800F072FDB0
:1012E00020688021C905884215D1012059490A6822
:1012F00002430A60096808400090009808200190A5
:1013000002200290002103910491059001A9A020E0
:10131000C00501F017F906B010BD00003C100240F6
:10132000003002403810024000640040F0B599B02F
:10133000040014220021684600F044FD4C220021E4
:1013400006A800F03FFD20680224424D00264749D0
:1013500088422BD101270697079606A800F03CFD8E
:10136000002801D001F0CDF86003E9680143E9608D
:10137000E96808400590059828683843286028687F
:10138000384005900598C020C00000900194029656
:10139000039604976946A020C00501F0D3F8002207
:1013A00000211B2001F037FA1B202CE03049884235
:1013B0002BD104270697099606A800F00DFD0028FA
:1013C00001D001F09EF86004A9680143A960A968F2
:1013D0000840059005982868204328602868204028
:1013E00005900598C0208000009001940296039615
:1013F00004976946194801F0A5F8002200211D2034
:1014000001F009FA1D2001F00BFA19B0F0BD00003F
:1014100080B500681249154A90420BD14868154AB8
:1014200002404A60C021C900A020C00501F040F977
:101430001B200CE00E4A90420BD108680E4A024075
:101440000A60C0218900054801F032F91D2001F031
:10145000F0F901BD34100240005400400004005077
:101460003C1002400044014040100240003801405E
:1014700000480040FFBFFFFFFFFFFBFF014840683F
:10148000704700BFF400002070B5002809D00100AB
:10149000243100222523C35C022B04D00423C36320
:1014A0000A70012070BD03681C680E25AC431C60E7
:1014B000846C2F4B25681D40256004682568012633
:1014C000B543256001244425455D1C262E40012599
:1014D000B540066C7560056DC66C7560456D002D78
:1014E00006D02D682B40456D2B60C36D856D6B60FC
:1014F0002523C4540A70002070BD70B5002100245B
:1015000001222523C35C022B03D00421C1630124E3
:101510002AE003681D680E26B5431D6003681D6838
:1015200095431D60856C124B2E681E402E6044252D
:10153000455D1C262E400125B540066C7560056D85
:10154000C66C7560456D002D06D02D682B40456D2D
:101550002B60C36D856D6B602523C254242281549A
:10156000816B002900D08847200070BD000000007A
:10157000FFFEFFFF2521405C70470268531C03609B
:101580001170704770B504000D001600280001F0BE
:1015900089F9330082B229002000FEF7C5FD00283A
:1015A00001D000F0AEFF70BD00682349884200D032
:1015B000704710B5214C217860780006000C01437B
:1015C0001F4881421BDA207861780906090C08431C
:1015D000217A22000A321154207861780906090C18
:1015E0000843401C2070000A60702078617809066A
:1015F000090C0843002122000A32115402E0207035
:1016000008206070A11C002001F054F90122210083
:1016100008310C48FEF7F5FD10BD10B5094CA0428D
:1016200008D10120216808622000FFF7F1FE2000A8
:10163000FFF77CFE10BD000000480040900C002029
:1016400034080000FC160020704770477047704750
:1016500070473E00FEB505001BD0B64C2878C00789
:1016600019D5A16838200840E1688027BF021028FA
:1016700008D18807800F032806D06968780881425E
:1016800033D13AE00828F8D12068074003D06868D1
:10169000002800D1E3E1287880077AD5A0683821B6
:1016A0000140E268A448A54F10294DD19207920F3E
:1016B000022A4BD0E968002900D194E02168084053
:1016C0002969014321602068A10D01432160FFF7D2
:1016D000D5FE06002068400500D57DE0FFF7CEFE70
:1016E000801B0328F6D30320FEBDA022D202914224
:1016F00007D1216882000A432260216808432060E4
:1017000007E02068B649014021602068B5490140E2
:101710002160686800280BD0FFF7B0FE0600206843
:101720003840B8D1FFF7AAFE801B6528F7D3DAE767
:10173000FFF7A4FE060020683840ACD0FFF79EFEFD
:10174000801B6528F7D3CEE70029B3D12268520564
:1017500002D5EA68002A3ED0626817406A69120220
:101760003A43626000290ED121680840296901438B
:1017700021609D48012122689204520F914000F09F
:10178000A7FAB8490860B848006801F09DF8002839
:1017900021D10227287800070AD5A0683821014006
:1017A000182930D1206E384002D0A869002812D004
:1017B0002878400700D4A5E000200190A0683821D7
:1017C0000140202941D1E06D074000D19AE0A8688E
:1017D000002800D096E042E1606807406869000296
:1017E00038436060D5E72068A04901402160FFF7D9
:1017F00045FE060020684005CBD5FFF73FFE801B65
:101800000328F7D36FE7A8690028206E0ED00121C6
:1018100001432166FFF732FE0600206E3840C7D133
:10182000FFF72CFE801B0328F7D35CE701218843D8
:101830002066FFF723FE0600206E3840B8D0FFF781
:101840001DFE801B0328F7D34DE7F806E16B01402E
:1018500008D1E16B0143E163E16B0840009000981F
:1018600001200190824F3868C00512D4A00D00906D
:101870003868009901433960FFF700FE06003868B8
:101880000099014005D1FFF7F9FD801B0328F6D32D
:1018900029E7A8680121012805D00528E06D06D1B7
:1018A00004220243E265E06D0143E16505E08843FF
:1018B000E065E06D04218843E0650227A868002800
:1018C0000CD0FFF7DBFD0600E06D384013D1FFF7C9
:1018D000D5FD801B67498842F6D304E7FFF7CEFDAC
:1018E0000600E06D384006D0FFF7C8FD801B614957
:1018F0008842F6D3F7E60198002803D0E06B5E49F2
:101900000140E1632878800629D580273F04E869F3
:101910000028206814D0790801432160FFF7AEFD4C
:101920000600206838401AD1FFF7A8FD801B032865
:10193000F7D3D8E600100240FFC7FFFFFF80FFFF8C
:10194000A24901402160FFF799FD06002068384058
:1019500005D0FFF793FD801B0328F7D3C3E6286A61
:10196000002855D0A16838220A40102A52D080277A
:10197000BF0497490228206838D101402160FFF751
:101980007DFD06002068384005D0FFF777FD801BFD
:101990000328F7D3A7E6E0688E490140686A084348
:1019A000A96A0143E86A00020843296B0143686B96
:1019B0000843A96B0143E160206879080143216075
:1019C000E068F9000143E160FFF758FD0500206879
:1019D00038401DD1FFF752FD401B0328F7D382E6A4
:1019E000FFFFFEFFFFFFFBFF0024F400014021602A
:1019F000FFF744FD05002068384005D0FFF73EFDA5
:101A0000401B0328F7D36EE6E0689B490140E16084
:101A10000020FEBD012822D0E0688107890F6A6A94
:101A200091421CD170210140AA6A914217D1FE2136
:101A3000C9010140EA6A1202914210D1F8218903DA
:101A400001402A6B91420AD1E021090501406A6BED
:101A5000914204D1400F4007A96B8842D8D00120A1
:101A6000FEBD00BF00010020FC000020FFFEFFFFC4
:101A70000070004089130000FFFFFFEFF8B507007A
:101A800066D000917D4800684007400F884218D218
:101A90007A4C206807218843009901432160FFF7B1
:101AA000EDFC009D060020684007400FA84207D0CB
:101AB000FFF7E4FC801B72498842F4D30320F2BD97
:101AC00000953968704C022001420CD0490704D5BA
:101AD000A168E022D2010A43A260A168694A0A40D3
:101AE000B9681143A1600725ED433978C90732D59C
:101AF0007968012918D12068800329D5A068284079
:101B00000143A160FFF7BAFC3E000700A06838213E
:101B100001407068C00081421CD0FFF7AFFCC01BC1
:101B200057498842F2D3C9E7022902D120688001CF
:101B300003E0002903D120684005DFD408E0032931
:101B400003D1226E1040D9D102E0E26D1040D5D110
:101B50000120F2BD37000098484909684907490F3C
:101B6000884217D2454800680540009828434349F9
:101B70000860FFF783FC009D0600404800684007AE
:101B8000400FA84206D0FFF779FC801B3C498842F1
:101B9000F3D393E73878400705D5A0683B49014067
:101BA000F8680843A06000F017F83949A2681205E8
:101BB000120F9200895CC906C90EC84035490860F9
:101BC0003548006800F080FEF2BD0000FFFFBFFF57
:101BD000FFFFFFFE8C80C11130B5072130482A4C31
:101BE0003823A2681A4006D123680122DB0A194073
:101BF0008A4011001EE04208A5681D40082D01D151
:101C0000100030BDA5681D40102D16D1E368E568B1
:101C10002D092940491C7F259B079B0F032B00D1D1
:101C2000100000F055F8E168090A0D406843E168CA
:101C3000490F491C00F04CF830BDA068184020281E
:101C400002D18020000230BDA0680340182B02D1D1
:101C5000FA20C00130BD002030BD104801680D4899
:101C60000068104A4904490F8900515CC906C90E31
:101C7000C840704700000000FCFFFEEE002002405C
:101C800089130000FFF0FFFF00100240FF8FFFFFED
:101C90002085000800010020FC0000200810024000
:101CA0000024F400C0860008CA0F00D04942031087
:101CB0005A400DD004B500D3404200F009F8009A14
:101CC000D20701D34942124200D5404204BD000070
:101CD000094214D088420FD30122030C01D1000421
:101CE0001204002300185B418B4200D35B1A52415F
:101CF000F8D319001000704701000020704708B5A4
:101D000000F008FE08BD12422DD0994231D970B5BD
:101D100000251B4209D00C00002112E01100FFF742
:101D2000D7FF0A000021002370BD0942F6D000242D
:101D3000012649186441944200D3A41A7641F8D38D
:101D40003100012601E0764109D2001864416D415D
:101D5000A41A9D41F7D2A4185D41B619F5D33000FD
:101D600022002B0070BD1B42CFD108B500F0D4FD7E
:101D700008BD01D19042CAD202000B000021002010
:101D800070472E0010B500240B480168820D0A43ED
:101D90000260032000F098FD002801D0012401E03A
:101DA000FFF7B2F9200010BD04490A68044B134044
:101DB0001843086070470000002002400000014006
:101DC000FFF9FFFF10B50400080011000200200019
:101DD00000F0A6FD200010BDF0B585B00400002085
:101DE0006A461070984D02210491216889035AD5E2
:101DF000029080204005296B014008D1296B0143E6
:101E00002963296B08400190019801200290A80DD8
:101E100003908E4801900068039901430198016086
:101E2000FFF72CFB0600019800680399014008D1D8
:101E3000FFF724FB801B0328F5D3032069460870B5
:101E40002AE0296DC02080000840814F00280ED074
:101E5000216C88420BD0286D3840296D80225202B7
:101E60000A432A65296D7B4A0A402A652865C0070E
:101E70000DD5FFF703FB0600286D0499014006D13C
:101E8000FFF7FCFA801B74498842F5D3D5E7286D2B
:101E90000740206C384328650298002803D0286B3F
:101EA0006E49014029630322D2432078C00704D53C
:101EB000A86C104061680143A9642068049901403E
:101EC00005D0A86C0C218843A1680143A96420783F
:101ED000400705D5A86C30218843E1680143A96417
:101EE0002078C00605D5A86C5D49014020690843EB
:101EF000A8642068C00405D5A86C554901406069F4
:101F00000843A8642068800505D5A86C55490140A0
:101F1000A06A0843A8642068400505D5A86C52490A
:101F20000140E06A0843A86450482178890604D536
:101F3000A96C0140A3690B43AB642178490605D520
:101F4000A96C4B4B0B40E1691943A9642168490412
:101F50000ED5A96C89008908236B0B43AB64216BF8
:101F60008023DB05994203D129689B0B0B432B602F
:101F70002168090305D5A96C40239943636B0B4382
:101F8000AB64802149048B082668B6020BD5AF6C80
:101F9000384E3E40A76B3743AF64A66B9E4202D1DA
:101FA0002E680E432E60266833400BD0AB6C324E49
:101FB0001E40E36B3343AB64E36B8B4202D12B686F
:101FC0000B432B600B0A266836050AD5EE6C3240AF
:101FD000266A1643EE64226A012A02D12A681A434D
:101FE0002A60CA0A266816400BD0EE6C0C27BE4346
:101FF000676A3743EF64666A042E02D12E68334362
:102000002B6023680B400AD0EB6C1840636C0343D1
:10201000EB64606C904202D1286808432860206815
:1020200080010CD5E86C0A4A0240A06C1043E864B9
:10203000A06C0A0C904202D12868014329606846CE
:10204000007805B0F0BD00000C10024000700040A8
:10205000FFFCFFFFFFFFFEFF89130000FFFFFFEF04
:10206000FFF3FFFFFFFFF3FFFFFFCFFFFFCFFFFFF8
:10207000FF3FFFFFFFFFBFFFFFFFFFFEF8B58EB082
:10208000FFF780FE00F0C4F9CD4DA920000128180B
:1020900000F04CFC012801D100F0D8FBC94868666B
:1020A0002800683000240480046144610121C1617A
:1020B0002800643000F056FC002801D000F021FA1E
:1020C000C14828606C60AC60EC60012028746874C2
:1020D000AC74082169611021A9610C21E961032117
:1020E000296268620427AF620521E9622F63686391
:1020F000AC63EC63280000F0E3FC002801D000F0A2
:1021000000FA902040002E18BB483060BB48706039
:10211000B4600120F06034617461B461F4613462D0
:10212000300000F01FFF002801D000F0EAF9002184
:10213000300001F0C9FD002801D000F0E2F90021D3
:10214000300001F0DEFD002801D000F0DAF9AC48E3
:10215000AC4901604760AC49C160816001F0FAFDA3
:10216000002801D000F0CDF904A8002100220023AE
:102170000EC01C2100F0D2FB380770653F20B0650F
:10218000F465A24830667466F466BA2040002E18E2
:10219000300001F046FE002801D000F0B2F90494AE
:1021A000069404A9300002F037F9002801D000F0AD
:1021B000A8F960200790089409940B940C2207A9B1
:1021C000300001F0EFFE002801D000F09AF9300055
:1021D000FFF77EF8E02040002818AD490160AD49C6
:1021E00041608460C909C16004614461846101F097
:1021F000E7FD002801D000F084F92F008837A648B9
:102200007860E1204002B860FC603C617C610C2099
:10221000B861FC613C627C62BC62FC6228008C306C
:10222000FDF74CFF002801D000F06BF900212800D9
:102230008C3002F050F9002801D000F062F9002142
:1022400028008C3002F060F9002801D000F059F924
:1022500028008C3002F022F9002801D000F051F95A
:1022600002F0A8F902F066FA802252008320800072
:102270002918C820800002F036FA02F0A9FE87492A
:102280004870C820800002F012FA3870844D3A7805
:102290009DA1280003F078F8280000F003FB814C92
:1022A000FA26B600330082B229002000FDF73CFF79
:1022B0000221C820800002F0C9F93878062809D127
:1022C00005227949794802F00EFA192278497948AD
:1022D00002F009FA3878012802D03878062866D149
:1022E00002F00EFB33000C228BA12000FDF71CFF37
:1022F00005227149714802F0F6F903F065F8694664
:10230000087068460078012831D16D4C210063487F
:10231000007803F0A3FB694608706846007801283E
:102320002CD1200003F076FD5C4C2078002102F0D7
:1023300069FE0321C820800002F088F920786070CF
:10234000052259495D4802F0A3F9387806282ED1B4
:10235000052102A800F0E2FA052202A9534802F082
:1023600097F95848416D524802F0EAFD1FE03300EA
:10237000122200BF6CA12000FDF7D6FE0221C8206A
:10238000800002F063F912E00120002102F03AFE21
:1023900001266E700021C820800002F057F93E70BF
:1023A000019401E048480190019800F00FF83B4D7E
:1023B000464C68780128F3D00228F3D0E4E7000007
:1023C000C0010020003002400064004001000A68A3
:1023D0003F4B134080229205934200D0704780B556
:1023E000001D00683B4A50601060086880F3088850
:1023F0001068804701BD000000540040B57DB11059
:102400002C18002000300040FF0F0000E703000000
:1024100030B593B03C2104A800F080FA6846002152
:102420000022002300241EC08020800003F01AFF39
:102430000A200490F630079008944020099001206B
:102440000A9002250C950D950E9408200F9080039C
:102450001090000211900001129004A8FFF7FAF802
:10246000002801D000F04DF807200090019502945B
:10247000039402216846FFF701FB002801D000F019
:1024800040F813B030BD80B5134801F08EFC01BD9B
:1024900000440140FFF9000000380140B41600205C
:1024A000D00B00204C020020AE16002003030000D9
:1024B000E014002016030000A9160020020300000B
:1024C000D9160020980000200060010800B0000824
:1024D0000000FE2F5C1800202C18002001000A00CC
:1024E000303A112A0ADB00BF14A0401841391129E3
:1024F00001DB613800E04138007800E0D030C0B244
:10250000704772B6FEE70000557064617465466CF2
:1025100061673A2025640A0047534D205374617265
:102520007465640A0000000046545020434F4E4E2C
:10253000454354204641494C0A0000000A0B0C0D4B
:102540000E0F0000FFB500220F2302932DE0052699
:1025500003E09B4EB042FAD10426AE402643009CD5
:102560002660984C2568DC4325404E68F60200D56D
:102570001D43944E3560756825404F68BF0200D5F5
:102580001D437560904D6E6826404D68AD0300D5C3
:102590001E438D4D6E602E6834404E68F60302D5A2
:1025A00026001C0034432C60521C0B681C00D440D5
:1025B0007DD0012595402B40F6D054000327A7403D
:1025C000FE4301964E68B707BF0F012F03D0B60731
:1025D000B60F022E0ED18768019E3E40CF68A740FD
:1025E000374387604668AE434D68EF06FF0F97405C
:1025F000374347600D79AD07AD0F032D25D0C56872
:10260000019E2E408D68A5403543C5600D79AD070C
:10261000AD0F022D19D1D508AD0045192E6A0396CC
:1026200097001C263E406F463E70039EB446029FB4
:102630006E463678B7406646BE43B4460F696E466E
:102640003678B740664637432F6207680326019DF8
:102650003D404F683740BC4627006446BC402C4391
:1026600004604C68350425409ED0584C9508AD0058
:1026700064190094009C2468D70018253D40029FEF
:10268000AF40BC43A027FF05B84201D1002664E754
:102690004F4FB84201D101265FE74E4FB84201D1FA
:1026A00002265AE74C4FB84200D052E755E7FFBD2B
:1026B000F0B585B00200444800900491002348E042
:1026C000052703E03E4DAA42FAD10427BC46DF00AD
:1026D00018253D406746AF40BE421AD1039EF543E0
:1026E000009E36682E40009F3E60009E76682E4019
:1026F000009F7E60334E76682E40324F7E603E46AD
:10270000366835403E463560019D2D68A543019CE5
:10271000256003245D00AC4001941468019D2543AD
:102720001560DC08A4001419256A9F001C263E4091
:102730000F27B740BD432562019DEC4395682540B6
:1027400095605568029EB5435560D5682C40D460AD
:102750005B1C049CDC402BD001249C400294049C14
:10276000029D25400395039C002CF1D0174C9D0839
:10277000AD0064190194019C26680F24DD00182720
:102780002F40BC402640A025ED05AA4201D10027DC
:102790009CE70F4DAA4201D1012797E70D4DAA42B0
:1027A00001D1022792E70C4DAA428BD103278DE776
:1027B00005B0F0BD002A01D0816170478162704789
:1027C00000100050001802408018024060180240BB
:1027D0000004005000080050000C005010B5C2006A
:1027E00018231340FF249C40E2438907090E9940B7
:1027F000030004D424489B089B00C01806E0234B28
:102800000007000F083880088000181803681A4075
:102810001143016010BD80B5FFF7E0FF01BD00006E
:10282000010005D40121C006C00E81401848016096
:102830007047010009D40121C006C00E814015482F
:102840000160BFF34F8FBFF36F8F7047BFF34F8FA0
:10285000114812490860BFF34F8F00BFFDE710B564
:10286000401E80214904884201D3012010BD0C4C38
:10287000606003210020C043FFF7B0FF0020A0608C
:102880000721216010BD000000E400E01CED00E025
:1028900000E100E080E100E00400FA050CED00E05A
:1028A00010E000E0431C0178401C0942FBD1C01A33
:1028B0007047430084460870000A4870000A887018
:1028C000000AC8706046704770B5060000240F4DBE
:1028D0002978002916D0FA208000FFF7F9F90100C5
:1028E0000B480068FFF7F4F9FFF7B9FF002809D19A
:1028F000042E07D2002231000020C043FFF78BFFD7
:10290000AE6000E00124200070BD00BFF400002094
:10291000000100207047FEE77047FEE7002200BF7D
:10292000094202D0491E4254FCD17047F0C04246D1
:102930004B4654465D466E467746FCC02838F0C884
:1029400000207047002900D1491C1030FCC8BE4649
:10295000B546AB46A246994690462838F0C80800CE
:102960007047FEE710B5040020D0607F002803D137
:1029700020772000FEF7E0FB022060772079002816
:102980000DD116482168486120688168182291435A
:102990008160607900280BD10020C04309E0E26823
:1029A000A168200003F084FC0028F2D0012010BDB3
:1029B000206921680861206881686022914362690A
:1029C0000A4382602068816880229143A2690A4399
:1029D000826001206077002010BD0000B71DC10497
:1029E00070B50400002002236377236801259E68E8
:1029F0002E439E60236A012B0DD013D3032B05D0E9
:102A00000DD30FE086008E591E60401C2368904253
:102A1000F8D3186806E0200000F006F802E0200075
:102A200000F039F8657770BD70B503001400002020
:102A30000A000CE029780E06697809043143AE7863
:102A400036020E43E97831431D682960401C81003D
:102A50005518A1088842EDD3A007800F18D001288F
:102A600003D128781968087012E0022806D1287866
:102A70000002697808431968088009E0032807D133
:102A80001868297809026A7811430180A9780170D1
:102A90001868006870BD70B5002305E02E88360404
:102AA0006D882E4326605B1C9C000D190468560837
:102AB000B342F3D3D00701D528882080206870BDA9
:102AC000F8B5040033D000275C20205C002805D135
:102AD00021005C314F702000FEF73EFB20688169C9
:102AE000102291438161FEF7C9FC05000126206890
:102AF0008169090705D5FEF7C1FC401B0B28F6D3F9
:102B00000EE0816931438161FEF7B8FC0500206861
:102B1000816931400DD1FEF7B1FC401B0B28F6D383
:102B200020005C3041680E434660032101700120A3
:102B3000F2BD816902220A43826120685E498842AF
:102B400002D160685D490860207C012820688169A5
:102B500003D140229143816102E040220A43826115
:102B6000607C01282068816902D1B2030A4301E038
:102B7000534A0A408261A07C01282068816902D101
:102B8000504A0A4001E032030A43826120688169A9
:102B90004D4A0A40A1681143816120688169A422DD
:102BA0009143816120680169102291430161E268CB
:102BB000012A05D12068816904220A43826115E057
:102BC000002A13D021682020022A8A690CD0802391
:102BD00013438B6121680A69102313430B61E16879
:102BE000032903D121688A6910438861A069401EC6
:102BF0004006E169491E09020143206A401E08435C
:102C00006169491E090401432068C161A068C021AF
:102C1000890088420FD1A06A401EE16A491E09025C
:102C20000143206B401E00010843616A491E0904EC
:102C300001432068C1602068C0300168E26B0A432C
:102C4000026022482168224A914200D12148206432
:102C500080228B58204A1A40636B1B041343802246
:102C60008B5001007031616421688B581B4A1A40F7
:102C7000A36B1B06134380228B500100B031A1646B
:102C8000C42149004118E164982189004118216557
:102C90009E21890041186165010001E00F60091D56
:102CA000D422920082189142F8D3A76520005C30AC
:102CB000476006700020F2BD0064004000650040DF
:102CC000FFBFFFFFFFEFFFFFFFFCFFFF00B400406F
:102CD0000068004050B70040FFFFE0FFFFFFFFF03B
:102CE000FDB581B000200023019C5C34019A5C2575
:102CF000525D022A7BD1009101210D020F22009E1C
:102D0000402E019E366813D180363769174013D0A4
:102D10003469240E0C4004D03468640A0C4000D09E
:102D2000012331698905890F5B180199896C16E0C7
:102D30008036B769174003D16068054365605AE083
:102D4000B469240E0C4004D03468240A0C4000D02E
:102D50000123B1698905890F5B180199C96C482461
:102D60005C430C1902992668AD052E404E6025681B
:102D700002D1ED006D0D01E0ED00ED080D6025685C
:102D80008026B60535408D6025688026360635409C
:102D90000D616568ADB2CD6165682D0C2A40CA60D1
:102DA0006268F50A2A404A6162686D002A408A61B9
:102DB00062685200520E0A626268D20F4A622200B2
:102DC000083200BF0DA4039D02E0165C2E54401C87
:102DD000CE68A65DB042F8D301980068943000999F
:102DE000402901D1036000E08360002004E06068B6
:102DF000082101436160012004B0F0BD000102031D
:102E000004050607080C101418203040F8B584B0EB
:102E100004002068016D426D0A40E0214901114023
:102E20000391016D426D0A405107490F0291016DF6
:102E3000426D0A4038271740016D426D0A40F1216A
:102E4000090411400191016D426D0A40E02109031E
:102E500011400091466D056D40210D4205D00E4296
:102E600003D00165200003F051FA80225200154280
:102E70000BD0164209D023681900D8310868896838
:102E80001A650140200003F042FA0398002805D09B
:102E9000216808650399200003F03AFA0298002897
:102EA00005D0216808650299200003F033FA002F4D
:102EB00005D0206807653900200003F05DFA802006
:102EC0008000054206D0064204D021680865200033
:102ED00003F053FA80273D420BD03E4209D02068D0
:102EE0000100D4310A68896807651140200003F0A9
:102EF00045FAB801054206D0064204D021680865AB
:102F0000200003F03CFA3802054206D0064204D005
:102F100021680865200003F033FAF801054006D067
:102F2000064004D021680865206E07432766009894
:102F3000002805D0216808650099200003F021FAD7
:102F40000198002805D021680865206E0199014389
:102F50002166206E002802D0200003F013FA05B08D
:102F6000F0BDFEE770B5040001D1012070BD250061
:102F7000403500266878002803D12E702000FEF727
:102F800039F92420687020680168012291430160AA
:102F90006068214901402068016121681F488A68F2
:102FA00002408A60E1680129A16801D1C24301E0C1
:102FB000842212020A4321688A60E168022921689A
:102FC0004A6803D180231B01134301E0144B1340D3
:102FD0004B6021684A68134B13434B602168CA68F1
:102FE0001040C860206961690143A069000208437C
:102FF0002168C860E069216A014320680160206897
:10300000016801220A4302606E6020206870266316
:10301000AE70002070BD0000FFFFFFF0FF7FFFFFDC
:10302000FFF7FFFF00800002F6B583B004000F0039
:103030001E0040304078202800D0D4E00A980028B4
:1030400002D00B9D280005D1802080002100403156
:103050004860C6E04020205C012800D1C3E0012088
:1030600040216054FEF70AFA0290009019230122D1
:10307000D103200000F0C6FC0028EAD16846878012
:1030800021202100403148704020210040318870CB
:1030900000202100403148600A9860626585002068
:1030A0006063C348009080235B04F2B26846818865
:1030B000200000F0BFFD029A0C99200000F0E0FC17
:1030C00000281AD16846058A012E09D0280A2168ED
:1030D0008862029A0C99200000F0D2FC00280CD1E2
:1030E000EDB220688562029800900C9B002280213E
:1030F000200000F087FC002803D00020402160540D
:103100006FE0608DFF2810D9FF20208500200090FF
:1031100080235B04FF2268468188200000F08AFD3E
:10312000684687880C9E029D07E0628D22850020FC
:10313000009080239B04D2B2EDE72A0031002000EA
:1031400000F09EFC00284CD1606A007821688862FB
:10315000606A401C60629748618D09186185218D05
:1031600008182085618D002920D000041ED100950B
:10317000330000228021200000F044FC002830D1E0
:10318000608DFF2807D9FF20208500200090802334
:103190005B04FF2206E0628D2285002000908023E0
:1031A0009B04D2B23900200000F044FD608D00285D
:1031B000C3D131002A00200000F092FC01000ED1A2
:1031C00020202268D061226853687B4D1D405560E5
:1031D00022004032507000200023937010700800CD
:1031E00002D0012000E0022005B0F0BDF6B583B0AA
:1031F00004000F001E0040304078202800D0D4E0AA
:103200000A98002802D00B9D280005D1802080005C
:10321000210040314860C6E04020205C012800D1F8
:10322000C3E0012040216054FEF728F9029000908D
:1032300019230122D103200000F0E4FB0028EAD189
:1032400068468780222021004031487040202100BC
:103250004031887000202100403148600A98606247
:10326000658500206063524800900023F2B26846F2
:103270008188200000F0DEFC029A0C99200000F00A
:10328000FFFB00281AD16846058A012E09D0280ABA
:1032900021688862029A0C99200000F0F1FB002856
:1032A0000CD1EDB220688562029800900C9B002240
:1032B0004021200000F0A6FB002803D00020402180
:1032C000605470E03D48618DFF290FD9FF212185B1
:1032D000009080235B04FF2268468188200000F074
:1032E000A9FC684687880C9E029D06E0628D2285B7
:1032F000009080239B04D2B2EEE7009533000022B9
:103300000421200000F07EFB00284CD12068406A98
:10331000616A0870606A401C60622649208D40180E
:103320002085628D51186185618D002920D00004AF
:103330001ED10095330000228021200000F062FBA6
:10334000002830D1608DFF2807D9FF20208500207C
:10335000009080235B04FF2206E0628D228500201E
:10336000009080239B04D2B23900200000F062FC60
:10337000608D0028C1D131002A00200000F0B0FB90
:1033800001000ED120202268D061226853680A4DC6
:103390001D40556022004032507000200023937081
:1033A0001070080002D0012000E0022005B0F0BD3E
:1033B00000200080FFFF000000E800FE00240080E5
:1033C000026891691268436B002B00D1704780B589
:1033D000984701BDF8B50468A169224612688023A8
:1033E0005D00294206D01A4204D0466C01273743BB
:1033F0004764E561DC00214207D01A4205D0456CE4
:1034000008262E4346640568EC619C00214007D0E5
:10341000134005D0416C02220A4342640168CC612A
:10342000416C0B220A4001D000F02AFAF1BDF8B538
:103430000400E06A4023E35C012B01D10220F2BDCD
:103440000123402563552023194205D0134003D0A2
:10345000200000F005F97BE0AB0404253F4E102767
:10346000394234D03A4232D0628D002A1BD1220038
:1034700040325278282A06D15A00904203D12000C7
:1034800000F0C8F964E0210040314978292907D1CA
:10349000B04205D02068C761200000F08CFA54E0EB
:1034A0002068C76154E02168CF612100403149683C
:1034B0000D43210040314D60002801D0984247D192
:1034C000200040304168200000F0DAF940E0F74386
:1034D000294217D0154015D0618D00290CD02168E4
:1034E000496A626A1170616A491C6162218DC91959
:1034F0002185618DC9196185618D002928D1B0426E
:1035000026D022E00825294205D0154003D020000E
:1035100000F026F81CE00225294019D0154017D0EC
:10352000618D00290DD0606A007821688862606A28
:10353000401C6062608DC0196085208DC019208597
:1035400006E0984201D0002802D1200000F055F892
:10355000002040216054F2BD000000000000FFFF89
:10356000FEB506003400403430680025082261783A
:1035700028230B40282B3DD18169C903CB0F694615
:103580000B708169090CFE270F4081688905890D40
:103590006B465980C368FE2119406B469980110320
:1035A000F368022B1BD106231F40BC466F467F8861
:1035B000FF093B409C450BD1A168491CA160A16853
:1035C000022919D1A560C2612570684642880CE0C5
:1035D000300000F047FB25706846828805E0300027
:1035E00000F040FB25703A0068460178300002F098
:1035F000CAFEF7BDC2612570F7BD70B50400206832
:1036000001682600403600250022B2704A0402D527
:1036100001687E4A03E0090403D501687C4A0A4038
:1036200002602820717829290BD170702120206335
:103630000121200000F016FB3570200002F0A4FEEE
:1036400070BD71782A290AD170702220206302216E
:10365000200000F007FB3570200002F096FE70BDE0
:10366000FEB504002068006802900091E06A0190B5
:1036700025004035687820272168CF610026212861
:1036800001D0292805D17C49200000F0EBFA212047
:1036900008E0222801D02A2806D17849200000F02D
:1036A000E1FA2220206306E0282804D1B449200052
:1036B00000F0D8FA266320684168BA020A434260E3
:1036C000206841686B4A0A404260200000F073F9AC
:1036D0000298400406D5206801684C4A0A400260FE
:1036E000A06B08E0029800040AD520680168484AE7
:1036F0000A400260E06B002802D0006840686085E4
:1037000004200099014012D0009981430091216862
:10371000496A626A1170616A491C6162228D002ADD
:1037200005D0984952182285628D51186185618DA6
:10373000002902D06968014369601021009A0A409B
:1037400033D0029A0A4030D0628D002A1ED16878A8
:10375000282808D101984A05904204D100992000F8
:1037600000F058F821E0687829280CD10198994A8E
:10377000904208D02068C161200000F01CF92000B0
:10378000FFF73BFF11E02068C1610EE02268D161C4
:103790006968084368600198002802D0F9048842EB
:1037A00003D16968200000F06BF80020A870666300
:1037B000686800280BD06968200000F061F868781C
:1037C000282821D10099200000F024F8F7BDE06AF4
:1037D000804988420BD02000FFF70FFF7D48E06250
:1037E0006F7026632E70200002F0D0FDF7BD687860
:1037F00022286F7026632E7003D1200002F0C5FDD1
:10380000F7BD200002F0C0FDF7BD0000FFBFFFFFC5
:10381000FF7FFFFF70B504006E48E062002525635E
:1038200026004036202070700020B07065630420B0
:10383000014012D02168496A626A1170616A491CAC
:103840006162218D002908D04E4A89182185618D39
:10385000891861857168084370604949200000F04B
:1038600001FA10202168C8613570200002F08EFD39
:1038700070BD000000E800FE018000000280000032
:10388000F8B5040027004037787800250022BA7088
:10389000504AE262002262857A68114379602828E2
:1038A00003D0292801D02A2808D10321200000F0C4
:1038B000D9F928207870484860631CE0304920001E
:1038C00000F0D0F9200000F076F87878602811D068
:1038D00020202021797021688A6902400AD01022B4
:1038E0008B69134004D0CA61796804220A437A6064
:1038F0002168C8616563206B384EA16B00291AD01E
:10390000112801D0212816D120680168490403D567
:103910000168334A0A400260A06BFDF72BFE0128C4
:1039200029D0A06B86633D70A06BFDF7E6FD0028F3
:1039300024D0A06B1CE0E16B00291CD0122801D020
:10394000222818D120680168090403D50168254A96
:103950000A400260E06BFDF70DFE01280BD0E06B22
:1039600086633D70E06BFDF7C8FD002806D0E06B74
:10397000816B8847F1BD200000F006F8F1BD000022
:1039800003800000FFFF000010B50200303200216C
:103990004123C35C602B08D12023412403551160CF
:1039A0004022815402F0F3FC10BD1160402281548A
:1039B00002F0EEFC10BD00688169890701D5002185
:1039C0008162012182690A4002D1826911438161C9
:1039D000704700000000FFFF2F340008E93900089D
:1039E000FFBFFFFFFF7FFFFF80B5806A816B002272
:1039F000002900D08A63C16B002900D08A63FFF7D9
:103A0000C3FF01BDF8B50092002405000F001E00A1
:103A1000286880693840B84201D1012000E00020C8
:103A2000009988422AD1069A3100280000F082F8D5
:103A3000002812D10020C0438642E9D0FDF71EFDC8
:103A40000699401A864201D3002EE1D12868806988
:103A50003840B84203D1012002E00120F2BD00202D
:103A600000998842D4D128004030202142680A437E
:103A700042604170002181700470EEE70020F2BDC9
:103A8000F8B5022604000D00170020688069304058
:103A900024D13A002900200000F04CF8002804D17D
:103AA0000020C0438542F0D001E00120F2BDFDF7C7
:103AB000E5FCC01B854201D3002DE6D1206880695A
:103AC0003040E2D120004030202142680A43426069
:103AD00041700021002282700170E6E70020F2BDF3
:103AE000F8B5202504000E001700206880692840E2
:103AF0001ED13A003100200000F01CF8002801D04F
:103B00000120F2BDFDF7BAFCC01B864201D3002E96
:103B1000EBD1206880692840E7D12000403041681F
:103B20002943416045700021002282700170E7E75F
:103B30000020F2BDFEB50600002430688369002530
:103B400017001022134042D0C261009133E02100DF
:103B500035D100980021C94388422CD0FDF78EFC56
:103B6000C01B0099814201D3002924D130684168EB
:103B700032004032927883691B040BD58023DB012D
:103B8000194007D1202A05D041680B434360FDF757
:103B900075FC070001962026019800688069304076
:103BA00008D1FDF76BFCC01B1A28F5D3280020258F
:103BB00005430124019E306881698906C7D5002C20
:103BC00001D12021C1612800042505430124326868
:103BD000906901210B02184202D00D43D3610124E8
:103BE0008A02104205D02B0008251D433368DA6194
:103BF00001244A02104006D02800022505433068FF
:103C0000C261012401E0200012D03000FFF7D3FE92
:103C100030684168114A0A404260310040314868CA
:103C200005434D6020204870002000228A700870F3
:103C30002000FEBDF0B5059C00684568660D084F84
:103C40003743BD438905890D12040A4313431C43BE
:103C50006100490829434160F0BD000000E800FE12
:103C6000FF63FF0310B500222823CC0706D54222AC
:103C70004124045D1C40282C00D0F2228C070AD578
:103C80001400442222434124045D2340282B02D007
:103C90001300B0221A430B0402D51300B8221A43B2
:103CA000102902D11100902208E0202902D1110030
:103CB000202203E0402902D1110040220A4300687B
:103CC00001689143016010BD70B502004032537825
:103CD000202B14D14023C35C012B10D0012313707F
:103CE00024245470046825689D4325600468256871
:103CF000164E2E4026600468256829431CE00220E9
:103D000070BD70B5020040325378202B12D1402391
:103D1000C35C012B0ED0012313702424547004685B
:103D200025689D43256004682568094E2E400902D8
:103D3000314301E0022070BD2160006801680B433F
:103D40000360202050700020107070BDFFEFFFFF57
:103D5000FFF0FFFF70B5050001D1012070BD28689C
:103D6000144901601449016069684160A968816073
:103D7000FDF784FB072406002868C16821400AD0AB
:103D8000FDF77CFB801B3228F6D32868C0682040F2
:103D9000F2D0032070BDE96802698A4201D0016156
:103DA00001E006490160002070BD0449006801601F
:103DB00000207047CCCC000055550000AAAA000096
:103DC00010B5040001D1012010BD3D20205C002869
:103DD00004D13C2160542000FDF761FAFFE7022086
:103DE0003D216054211D206800F070F90120482118
:103DF00060543E2160543F21605440216054412171
:103E00006054422160544321605444216054452150
:103E1000605446216054472160543D216054002085
:103E200010BD10B5040001D1012010BD3D20205C63
:103E3000002804D13C2160542000FDF71FFACEE792
:103E4000F8B504002068C1680091056900270226C2
:103E5000354214D0314012D00221C9430161012101
:103E600021778069800703D0200002F092FA05E0F4
:103E7000200002F08FFA200002F08DFA2777680701
:103E800017D50098400714D520680421C943016163
:103E900026778069C0218900014003D0200002F00C
:103EA00078FA05E0200002F075FA200002F073FABB
:103EB00027770826354216D00098304013D0206866
:103EC0000821C943016104212177C069800703D01B
:103ED000200002F05EFA05E0200002F05BFA20000C
:103EE00002F059FA27771020054217D000990840B0
:103EF00014D020681021C94301612677C069C02110
:103F00008900014003D0200002F043FA05E02000C0
:103F100002F040FA200002F03EFA2777E907C90FC5
:103F20000098C207D20F114206D00120C043216879
:103F30000861200002F030FA8026822080012840AB
:103F400008D00098304005D015482168086120004D
:103F500002F023FAE80508D50098064005D0594834
:103F600021680861200002F019FA4020054209D0BA
:103F70000099084006D04020C04321680861200015
:103F800002F00DFA2020054009D00099084006D023
:103F90002020C04321680861200002F001FAF1BD31
:103FA0007FDFFFFFF1B582B000206B4618700298EA
:103FB0003C23C05C012801D10220FEBD0120029BF0
:103FC0003C2418550827404EC5020C00002A0AD090
:103FD000042A18D0082A28D00C2A36D0102A46D015
:103FE000142A54D065E00298006800F0BBF80298EB
:103FF000006881690F43876181690422914381616F
:10400000816922690EE00298006800F0E5F80298E4
:10401000006881690D43856181690E40866181690F
:10402000226912020A43826145E00298006800F0AA
:1040300007F902980068C1690F43C761C16904228A
:104040009143C161C16922690EE00298006800F0E5
:1040500031F902980068C1690D43C561C1690E401C
:10406000C661C169226912020A43C26123E0029853
:10407000006800F051F902980068416D0F434765F0
:10408000416D042291434165416D22690EE0029821
:10409000006800F06DF902980068416D0D434565B8
:1040A000416D0E404665416D226912020A43426528
:1040B00001E069460870002002993C228854684655
:1040C0000078FEBDFFFEFFFFFFFBFFFFF0B50668B7
:1040D000754A764B8024E405754DA84205D0A04270
:1040E00003D0984201D090420AD17027BE433700D6
:1040F0004E683E43A84211D0A0420FD098420DD046
:1041000090420BD0804A904208D0804A904205D01D
:104110007F4A904202D0944A904203D17D4A324075
:10412000CE681643802296434A69324302608A6809
:10413000C2620A688262A84208D0744A904205D0DE
:10414000734A904202D0884A904201D109690163C2
:10415000012141610269114003D0016901229143AB
:104160000161F0BDF8B5036A026A0124A24302624C
:10417000426884697D4D25400C682C4300940224DC
:10418000A3438C681C43624B604D494EB04206D03D
:10419000A84204D0984202D0734FB8420CD10827ED
:1041A000BC432700CC683C430427BC43B04206D044
:1041B000A84204D0984202D06B4B984205D1554B8F
:1041C00013404D691D438A692A434260009A826107
:1041D000496841630462F1BD70B5026A036A102444
:1041E000A343036243688469764D25400C6824022A
:1041F0002C432025AA438D682D0115432C4A90425B
:1042000008D1802295432E00CA681501354340220B
:10421000954308E03D4A904205D03D4A904202D085
:10422000514A904206D16F4A1A404B698E691E432B
:10423000B30013434360846149688163056270BDC4
:1042400070B5026A036A604C1C4004624368C4692A
:10425000464D25400C682C435C4D15408A6812027F
:104260002A43134DA84207D1594D1540CA6816027A
:104270002E43584A324008E0244DA84205D0244D30
:10428000A84202D0384DA84206D1574D1D404B6977
:104290008E691E4333012B434360C4614968C16387
:1042A000026270BD000000000008004000040040F1
:1042B000002C014030B5026A036A474C1C4004627E
:1042C0004368C4693F4D25400C6824022C43434D8C
:1042D00015408A6812032A43414DA84208D00B4D6D
:1042E000A84205D00A4DA84202D01F4DA84204D1D1
:1042F0003E4D1D404B699B012B434360C46149689F
:104300000164026230BD0000002000400040014016
:1043100000440140FFFCFFFF70B5036A344A046AA1
:10432000144004624468456D324E2E400D6835439A
:10433000314E1E408B681B043343294EB04208D0D7
:104340002E4EB04205D02E4EB04202D02D4EB0427D
:1043500003D122404C6924021443446045654968F6
:104360008165036270BD0000004801408CFFFEFFC4
:1043700030B5026A036A244C1C4004624368446DF1
:10438000224D25400C6824022C43214D15408A689B
:1043900012052A43124DA84208D0184DA84205D054
:1043A000174DA84202D0174DA84204D1194D1D4007
:1043B0004B699B022B43436044654968C1650262B7
:1043C00030BD0000FF8CFFFEFFFEFFFFFFFDFFFF83
:1043D000FFF7FFFFFFFBFFFFFFEFFFFFFFDFFFFF29
:1043E000002C0140FFF3FFFFFFCFFFFFFFBFFFFFE8
:1043F000FFFFFEFF8FFFFEFFFFFFFDFF00400140BC
:104400000044014000480140FFFFEFFFFF8FFFFE27
:10441000FFFFDFFFFFFFFBFFF0B53C22825C012ABC
:1044200001D10220F0BD01223C23C25402233D24CD
:10443000035505686E68AB68134CA54203D1134F52
:1044400037404E683E437027BE430F6837436F6066
:104450000568A5420BD09407A54208D00C4CA54294
:1044600005D00C4CA54202D00B4CA54204D18024AF
:10447000A34389681943A9603D21425400213C228D
:1044800081540020F0BD0000002C0140FFFF0FFF11
:1044900000040040000800400040014030B5010029
:1044A00084310A78012A01D1022030BD01220A702C
:1044B00024224A600268136814680125AC43146022
:1044C00000224266224C1C400068046020204860A4
:1044D0000A70002030BD70B50400250084352878AE
:1044E000012801D1022070BD0120287024206860BD
:1044F00020680668026801239A4302602068826887
:10450000D200D208114317E070B5040025008435AD
:104510002878012801D1022070BD012028702420B4
:10452000686020680668026801239A430260206878
:104530008268084B134019438160200000F00CF89A
:1045400020680660202068600020287070BD000090
:10455000FFFFFFDFFFFFFFF1F8B50400606E0028EA
:1045600002D10120012517E0206881680901490F67
:1045700000918068410F00BF0CA600BF09A7785CBE
:10458000C000715CFDF790FB05000098385CC0002E
:104590000099715CFDF788FB210068314D8008802F
:1045A000F1BD00000101010307010000080402043D
:1045B0000801010110B586B01422002101A8FDF701
:1045C00001FC00F01CF8022055490A6802430A6009
:1045D0000968084000900098524C012220212000D8
:1045E000FEF7E8F8202001900120029000200390BF
:1045F000049001A92000FDF7A5FF06B010BD10B57D
:10460000494C4A4820604A4860600020A06001216F
:10461000E16020616061A061E06120622000FEF73E
:10462000A1FC002801D0FDF76CFF00212000FFF75E
:104630004BFB002801D0FDF764FF00212000FFF7AD
:1046400060FB002801D0FDF75CFF10BD12B583B000
:104650000400002220213348FEF7ACF8022001F0CC
:10466000A1FEFA20800002900120019003A8009092
:1046700002232200A0212C48FEF7D6FC002801D0FE
:10468000FDF73FFF052001F08DFE00F042F81FBD51
:10469000F8B5002507000E00140005E0715D7819DB
:1046A00080B2FFF7D3FF6D1CA542F7DBF1BD1FB54C
:1046B000040000206946087300F02BF8FA208000FF
:1046C00002900120019003A8009002232200A02163
:1046D0001548FEF78BFD002801D0FDF712FF684654
:1046E000007B04B010BD7FB504000D00160000F083
:1046F00010F8FA2080000290019600950223220013
:10470000A0210948FEF772FD002801D0FDF7F9FE4F
:104710007FBD80B5012220210248FEF74BF801BD84
:104720003410024000040050E00200200054004019
:10473000BC7D701070B586B00124674801682143C4
:1047400001600168214000910099022102680A433A
:1047500002600068014000910098A025ED0500224C
:104760000B212800FEF726F80B200190029400246C
:104770000394049401A92800FDF7E4FE04200190AD
:10478000C42080030290039401A95448FDF7DAFE87
:10479000534E54483018002101704170524830186F
:1047A0000180817051488178FA220A408270504D10
:1047B00050482860E12040026860AC60EC602C61E9
:1047C0000C206861AC61EC612C626C62AC62280008
:1047D000FBF774FC002801D0FDF793FE00212800B0
:1047E000FFF779FE002801D0FDF78BFE002128009D
:1047F000FFF78AFE002801D0FDF783FE2800FFF7AF
:104800004DFE002801D0FDF77CFE01223100083169
:104810002800FBF7F6FC3480B11C0020FEF74AF8B4
:1048200006B070BD38B5FDF72EFEA024E4050122C8
:1048300001212000FDF7BEFF2F4801F0B3FDFDF779
:1048400022FE002201212000FDF7B4FF244C0020AD
:104850002080A11CFEF72EF8224825180020287081
:1048600068700020022804DDA01C01F0AFFD65285F
:10487000F7D2287869780906090C08436528F0DA28
:1048800031BD38B5164C1D4D8000295820000A3026
:1048900001F0A7FD002801D0052032BDE968200005
:1048A0000A3001F09EFD002801D0072032BD696961
:1048B00020000A3001F095FD002801D0082032BD0B
:1048C000296920000A3001F08CFD002801D0062063
:1048D00032BD042032BD00003410024000040050FC
:1048E000900C0020690800003E08000064180020B9
:1048F000FC1600200048004034080000980000200A
:10490000F8B590B0FC2400F09FF9052807D1C24803
:104910004078044002202043BF49487018E0FFF768
:1049200081FF00F091F9052807D000F0A9F9FFF701
:1049300079FF00F089F9052806D1B74841780C4085
:1049400001212143417003E0B34841780C40447099
:10495000FA2080000290C8200190062000900023D9
:104960001C220B21112000F00FFAFA239B00C82211
:104970000021122000F09CF9FA239B00C82200219C
:104980001E2000F095F9FA239B00C82200211F2069
:1049900000F08EF9FA239B00C8220021202000F0AD
:1049A00087F9FA239B00C8220021212000F080F91A
:1049B000FA239B00C8222321222000F079F9FA2350
:1049C0009B00C8220021132000F072F9FA239B00FB
:1049D000C8220021142000F06BF91024B84802907E
:1049E0009620400001900620009000230E220C210A
:1049F000162000F0C9F90928874804D1C07820435F
:104A00008549C87003E0C178EF220A40C27082482D
:104A1000C078204200D1FDE00027AA48039000257D
:104A20000024FA2080000290962040000190062089
:104A3000009000230A220D21172000F0A5F9092873
:104A40002BD1BD483A210A3001F0E2FC00281FD0EA
:104A5000801C00902C2101F0DBFC060020D035707A
:104A6000009801F08AFDC1B2632904D0072901DA58
:104A7000022400E00324039908702C20307066485B
:104A80008078E7210140E00008436349887007E02F
:104A9000632003990870012402E00C2800D10C2443
:104AA0007F1CFA20800001F07DFCFDF7ECFC032C5C
:104AB00002D0F8B20F28B3DBBB490020FDF7FAFEA5
:104AC000FA24A400002700250026012000F0FFF9A9
:104AD000012837D0200001F065FC6D1CE8B25A288F
:104AE000F3DB4D488178DF224BE0B04D0123EA6EC5
:104AF0004AA103A800F048FCAD480290962040006F
:104B000001900620009000231522112103A800F037
:104B100032F9092856D1286F00900123A548426C2C
:104B200040A103A800F030FC2B21A34801F070FC49
:104B3000040047D003A8FDF7B5FEC0B2012300274B
:104B4000210039E03448817820220A438270022013
:104B500000F0BDF9012807D0200001F023FC7F1CE4
:104B6000F8B23C28F3DB09E02B48817840220A4365
:104B700082700126032000F0AAF904E0264881781B
:104B8000BF220A408270002E02D1200001F00AFCF0
:104B9000FDF779FC002EA8D1834801F017FC874966
:104BA00088428FD3A1E7012305E003ABDB5DCC5D39
:104BB000A342F8D000237F1C874201DA1C00F4D105
:104BC000580101E000200023DF26134CE17831403A
:104BD0000843E070002B1DD1286F00900123EA6E7E
:104BE00013A103A800F0D0FB71480290962040006A
:104BF00001900620009000231522112103A800F047
:104C0000BAF80928E07803D120210143E17001E0DE
:104C10000640E67011B0F0BD6418002025732564CD
:104C20000D00000025732025642C222573222C0002
:104C3000257325642C312C222573222C22222C2230
:104C4000222C300D0000000038B596256D00FA24A6
:104C5000A40023002A000021152000F029F80528CF
:104C60000DD023002A000021152000F021F805288E
:104C700005D023002A000021152000F019F832BDCC
:104C800010B5A024E405012202212000FDF792FDC9
:104C9000E620400001F086FB002202212000FDF703
:104CA00089FDFDF7F0FBFA20C00001F07BFB10BD91
:104CB00010B53E4C8000205800F00AF810BD0000EE
:104CC00088130000DF14002080B500F001F802BD59
:104CD000FDB50F0000260020174908803249FDF776
:104CE000E9FD0C24AD4DC82200992800FCF74AFCD0
:104CF0000122AB492800FBF784FAAA4D02990198DA
:104D000000F01CF800280ED138002E70FFF7B9FD16
:104D1000062803D0072801D0082802D16978491C49
:104D20006970040006E004480088002802D1287851
:104D3000401C28702000FEBD900C0020F8B5060035
:104D40000024994F0D00B81C01F040FB854200D2B1
:104D50000124FDF798FB3888022801DA2000F2D000
:104D6000200006D1FDF78FFBB81C01F02FFBB042ED
:104D7000F8D32000F2BD1FB5089C0294079C019453
:104D80006C46247E00940AE01FB5089C0294079CA0
:104D900001946C46247E0094044C8000205800F05E
:104DA0000FF804B010BD0000920C00201C00002081
:104DB000F0490200980000209A0C0020204E0000CC
:104DC000FFB581B007000025774C00202080A11C92
:104DD000FDF770FD714EC82239003000FCF7D2FBA0
:104DE0000122210008313000FBF70BFA68460570FC
:104DF00010260C9DA01C01F0E9FAA84203D22088DD
:104E00000228F7DB24E0A01C01F0E0FA854202D280
:104E10002088022800DA0E26112E01D0102E53D140
:104E20006846007A614E8000315820000A3001F057
:104E3000D8FA07006846007C8000315820000A300C
:104E400001F0CFFA002F22D000281ED009203CE02C
:104E500020886946097B0AAA1278891888420ADBE9
:104E600001206946087011260B9FA01C01F0AEFAC4
:104E7000B842FAD30B97A01C01F0A8FAA842CBD2F3
:104E8000684600780028E3D0C6E70A201DE0002825
:104E900001D00B2019E0032120000A3001F0A1FA13
:104EA000002801D0072010E0052120000A3001F081
:104EB00098FA002806D1042120000A3001F091FA66
:104EC000002801D0062000E0042005B0F0BD1FB589
:104ED000002496225200364B012808D102930192F9
:104EE0000620009000230A220E21182014E0022838
:104EF00008D1029301920620009000230A220F217C
:104F0000192009E0032809D102930192062000909C
:104F100000230A2210211A20FFF736FF09280BD19F
:104F20002C21244801F074FA002805D0407831285B
:104F300001D0352800D10124200004B010BD0000AC
:104F400070B5B0B003000D0000241B48426F00BFD5
:104F50001BA103A800F018FA96267600FA239B00FE
:104F60003200132103A8FFF7AFFE052812D12A0053
:104F70001A2300BF14A103A800F006FA0F480290FC
:104F800001960620009014230822122103A8FFF79F
:104F9000F2FE0124200030B070BD0000FC1600209D
:104FA000980C0020CE140020900C002098000020C7
:104FB000282300009A0C00201C000020F049020069
:104FC0002573222573220D00257325630000000040
:104FD00038B500F02DF80400B14884420FD0AC4D34
:104FE000002C05D0083CA4B2601900F096F834BD3E
:104FF00001220023280000F04CF80428F3D0A5A0DB
:1050000003C834BDF8B506000F0000F011F8040025
:105010009F4DA249884205D3280000F0A2F8052838
:1050200000D1002432003B00601900F032F8F2BDDC
:1050300070B500240025964EA01900F06EF895A2D8
:105040000CCA994202D1904200D101250834A4B281
:1050500080200001844201D22800EDD02000002DE4
:1050600014D1BC4800F059F804000D00300000F0E5
:1050700078F8052808D122002B00300000F009F84C
:10508000042801D1082002E0854800E0083880B2F9
:1050900070BDF8B5A0B0070014001D00AE4E01F0C1
:1050A000AAFA002826D122002B0072B6390001206E
:1050B00001F074FA62B6002817D1A84D01F0ABFADE
:1050C000002803D104243A00310003E00224022224
:1050D00031003031684600F057F96846FDF7E2FBD1
:1050E000642382B26946280012E0032403223100BF
:1050F0005C3103E00124012231008831684600F070
:1051000043F96846FDF7CEFB642382B269469348B3
:10511000FBF70AF8200021B0F0BD10B50400E279D9
:105120001202A07910430002627902431202207930
:105130001043010E0002E27802430B02100E0343FB
:105140001202A07810431902020E11430002627885
:1051500002430B02100E0343120220781043190081
:1051600010BD78B5A1B004000020009001F043FA12
:10517000200000F054F80600200000F050F8010074
:10518000774802250560042242608660891B491C1D
:10519000C160694601F09CFA002807D101F03BFA92
:1051A000002801D1052011E002200FE0009B220021
:1051B0006C4901A800F0E8F801A8FDF773FB64232F
:1051C00082B201A96548FAF7AFFF062022B070BD90
:1051D00038B505000020009001F00DFA8020000293
:1051E00061490860280000F01AF80400280000F067
:1051F00016F801005D4802220260042242608460C9
:10520000091B491CC160694601F062FA002801D1FE
:10521000052400E0062401F0FEF9200032BDF0B5BF
:105220005349096880229203D300C024A404214278
:1052300007D025000D409D4208D14E4D2D681540E8
:1052400004D14D4D2D68AE024C4D03E04A4D2D6802
:105250006E024B4D3540F82636069701ED19A842EF
:1052600013D3214206D00C409C4208D14149096821
:105270000A4004D1404909688A02404903E03E4996
:1052800009684A023E491140401A8019C00AF0BD1F
:1052900000F80308FFFFFFFFFFFFFFFFFC07000010
:1052A000FFFF0000F0B5A1B004000D0017002800BA
:1052B000FFF78EFF052849D101F09DF900942C00DD
:1052C000002600988519E8790002AA7902431202A3
:1052D0006879104300022A790243130E1202E8781B
:1052E00010431902020E11430002AA7802430B0276
:1052F000100E03431202687810431902020E114384
:1053000000022A7802430B002100012001F046F937
:1053100008340836B6B2BE4201DA0028D1D02500E2
:10532000002801D1042400E0032401F074F9EA1BF1
:10533000144901A800F028F801A8FDF7B3FA642386
:1053400082B201A90548FAF7EFFE00E0062420002A
:1053500021B0F0BDF8FF0308688200084C0200206D
:105360003C18002060850008102002404C180020E6
:105370000075FF1F20200240E075FF1F00FC0F009A
:1053800000FE0700108600080CB418B583B00400B6
:105390000A0006A8029001940020009002AB01A927
:1053A000084878441E3001F0FDF90021019A11707F
:1053B000002801D40198001B04B0019910BC03B06F
:1053C000084700BFB7C1FFFFF8B500F0A3F805001C
:1053D000A04E4A4C00D17FE0494F3A78210030007E
:1053E000FFF7D2FF3000FDF75DFA0023DB4382B206
:1053F00031004448FAF798FE3878062829D1210070
:1054000024313000FFF7C0FF3000FDF74BFA0023D6
:10541000DB4382B231003B48FAF786FE394F002069
:1054200000F01EFA0E2847D10025002000F0B6FA41
:105430000A283ED13448007D002837D0334800F098
:10544000C3FA05002A00210090313000FFF79CFFCD
:1054500039E03878012825D12D488168406800F06E
:105460000FFD010048D028484268B74802F03EF9D5
:1054700025484268B549B44802F049F9000401D111
:10548000012700E002272048006800F0D7FC2048F0
:10549000806800F0BFFC012F01D100252CE0022F15
:1054A0002AD1BBE700252100603118E02100B83186
:1054B00006E02100E03103E00025882040002118AB
:1054C0003000FFF761FF3000FDF7ECF90023DB430C
:1054D00082B2310038000DE09C20400021183000DD
:1054E000FFF752FF3000FDF7DDF90023DB4382B206
:1054F00031000448FAF718FE2800F2BDF47F0008D6
:10550000480200204C020020A0160020D9160020DE
:1055100000000020F8B5BCB08D4F39004D48FFF7B2
:1055200033FF4C48FDF7BEF98A4D0024E4432300C5
:1055300082B248492800FAF7F7FDC24B9622520082
:1055400000210020FFF7B4FB00206946087201200B
:105550000090BD484368BD4A642123A802F0EEF8DC
:10556000FA239B0096225200002123A8FFF7ACFBF0
:105570000600052E01D1B6A300E0B64B00963A0016
:105580006032802103A802F0D9F803A8FDF78AF958
:10559000230082B203A92800FAF7C6FD052E00D029
:1055A00098E0AD480190AD480090A748836800BFDF
:1055B00069A2642123A802F0C1F823AB6AA280216A
:1055C00003A802F0BBF803A8FDF76CF9230082B230
:1055D00003A92800FAF7A8FDFA239B00962252009F
:1055E000002123A8FFF770FB0600052E01D198A328
:1055F00001E000BF69A300963A009032802103A821
:1056000002F09CF803A8FDF74DF9230082B203A92C
:105610002800FAF789FD052E58D100BF57A2802136
:1056200003A802F08BF803A8FDF73CF9230082B22F
:1056300003A92800FAF778FDFA239B00962252006E
:1056400000210320FFF734FB0600052E04D180A3C0
:1056500003E000BFD00B002050A300963A00C032F8
:10566000802103A802F06AF803A8FDF71BF92300C4
:1056700082B203A92800FAF757FD052E22D1FA2697
:10568000B60033009622520000210420FFF710FBE1
:10569000052813D13300962252000021FFF708FBA2
:1056A000052807D101206946087223001D2200BF8A
:1056B0003CA113E02300182242A10FE023001A228C
:1056C00047A10BE0230019224CA107E023001F2271
:1056D00051A103E0230022223900EC312800FAF71F
:1056E00023FD6846067A30001CD00024B44B180015
:1056F000143000905448026B4FA103A8FFF744FEFA
:10570000B04802909620400001901220009006239D
:105710000622002103A8FFF72EFB092800D101244F
:1057200026000DE039002831C448FFF72DFEC3489C
:10573000FDF7B8F8230082B2C0492800FAF7F4FC5C
:1057400030003DB0F0BD0000AE160020A9160020CC
:10575000588100084C0200202573222573222C2238
:105760002573220D000000005B44454255475D2033
:1057700053656E64696E673A202573005B44454249
:1057800055475D20436F6E6669677572696E672065
:1057900046494C45545950450D0A00004641494C74
:1057A000000000005B44454255475D2046545020B0
:1057B000696E6974207375636365737366756C0DC8
:1057C0000A0000005B44454255475D205253505447
:1057D0004F5554206661696C65640D0A0000000035
:1057E0005B44454255475D205452414E534D4F4412
:1057F00045206661696C65640D0A00005B444542A2
:1058000055475D2046494C455459504520666169CD
:105810006C65640D0A0000005B44454255475D20FD
:105820004143434F554E5420636F6E66696720664F
:1058300061696C65640D0A002573222573222C258D
:10584000730D0000102700001C000020785E000887
:105850004F4B00009C57000801860008F2850008A5
:10586000FEB500216A46D180117100F051F8002880
:1058700001D1132449E0724802900146714800F0BA
:10588000FFFA07003DD02C21380000F0C1FD0400D4
:1058900035D0C51BADB26846C0884019401C69466A
:1058A000C8800021002608E008010090B85CFCF7E1
:1058B00015FE010000980143761CF2B2AA42F3DB08
:1058C00061486A461279920082185160671C6946E5
:1058D0000979491C6A4611716946C988D222520069
:1058E000821852689142CED30E2469460979FF226C
:1058F000FC3281545548006800F0A0FA02E00D2403
:10590000F8E70B24029800F085FA2000FEBD0000A5
:10591000F8B5002769460F70002837D14A4EDC20C1
:10592000400030184078002830D0494CD920400041
:105930003318226817A108303018FFF725FD01251C
:1059400068460570DC20400030184178FF20DE30CA
:10595000301801290AD1216901F016FFA169F6204A
:105960004000301801F010FF02250CE0022909D197
:10597000E16801F009FF6169F6204000301801F08C
:1059800003FF00E00025DC20400035546846007825
:10599000F2BD0000257325730000000080B5FFF7FD
:1059A000B7FF012809D12848FF21DE314118DD2247
:1059B0005200801800F086FA02BD132002BD0000DC
:1059C000D8850008905F0100FEB500F0D8FB1E4F9F
:1059D000D22149007918009100251E49884226D01D
:1059E00000240190802109010098006880B200F035
:1059F00085FB01000FD0802212011748FCF7F0FF51
:105A00003860A1007918D4228850386849688842E3
:105A100001D1012600E00026641CA4B20A2000F097
:105A2000C1FC0198844201DA3000DBD135000098D6
:105A3000006800F003FA2800FEBD0000D00B002033
:105A4000E8160020B6160020FC140020A016002046
:105A500000000020FFFF000024020020F0B5B9B0D4
:105A60000600080000216A461171002500F087FB3E
:105A700004002300AF4A402109A801F05FFE09A8F5
:105A8000FCF710FF642382B209A9AB48FAF74CFB7C
:105A9000AA480790AA48844200D126E16846467188
:105AA000C58002940027FF43802109010798006800
:105AB00080B200F023FB05906846C6880598002850
:105AC00054D000249B4D68464079012806D19D485A
:105AD0000090012403462A0094320DE06846407984
